{"abi":[{"type":"constructor","inputs":[],"stateMutability":"nonpayable"},{"type":"function","name":"AUDITOR_ROLE","inputs":[],"outputs":[{"name":"","type":"bytes32","internalType":"bytes32"}],"stateMutability":"view"},{"type":"function","name":"BASE_OPERATIVA_ROLE","inputs":[],"outputs":[{"name":"","type":"bytes32","internalType":"bytes32"}],"stateMutability":"view"},{"type":"function","name":"CONSULTOR_ROLE","inputs":[],"outputs":[{"name":"","type":"bytes32","internalType":"bytes32"}],"stateMutability":"view"},{"type":"function","name":"DEFAULT_ADMIN_ROLE","inputs":[],"outputs":[{"name":"","type":"bytes32","internalType":"bytes32"}],"stateMutability":"view"},{"type":"function","name":"JEFE_ESCENA_ROLE","inputs":[],"outputs":[{"name":"","type":"bytes32","internalType":"bytes32"}],"stateMutability":"view"},{"type":"function","name":"OPERADOR_ROLE","inputs":[],"outputs":[{"name":"","type":"bytes32","internalType":"bytes32"}],"stateMutability":"view"},{"type":"function","name":"abrirEventoIncendio","inputs":[{"name":"_coordenadas","type":"string","internalType":"string"},{"name":"_riesgo","type":"uint256","internalType":"uint256"}],"outputs":[],"stateMutability":"nonpayable"},{"type":"function","name":"asignarInsumo","inputs":[{"name":"_eventoID","type":"uint256","internalType":"uint256"},{"name":"_codigo","type":"bytes32","internalType":"bytes32"},{"name":"_operador","type":"address","internalType":"address"}],"outputs":[],"stateMutability":"nonpayable"},{"type":"function","name":"basesAutorizadas","inputs":[{"name":"","type":"address","internalType":"address"}],"outputs":[{"name":"","type":"bool","internalType":"bool"}],"stateMutability":"view"},{"type":"function","name":"bitacoraEvento","inputs":[{"name":"","type":"uint256","internalType":"uint256"},{"name":"","type":"uint256","internalType":"uint256"}],"outputs":[{"name":"eventoID","type":"uint256","internalType":"uint256"},{"name":"codigoInsumo","type":"bytes32","internalType":"bytes32"},{"name":"operador","type":"address","internalType":"address"},{"name":"timestamp","type":"uint256","internalType":"uint256"},{"name":"detalles","type":"string","internalType":"string"},{"name":"esDiscrepancia","type":"bool","internalType":"bool"}],"stateMutability":"view"},{"type":"function","name":"brigadistas","inputs":[{"name":"","type":"address","internalType":"address"}],"outputs":[{"name":"billetera","type":"address","internalType":"address"},{"name":"nombre","type":"string","internalType":"string"},{"name":"especialidad","type":"string","internalType":"string"},{"name":"estaActivo","type":"bool","internalType":"bool"}],"stateMutability":"view"},{"type":"function","name":"cerrarIncidente","inputs":[{"name":"_eventoID","type":"uint256","internalType":"uint256"}],"outputs":[],"stateMutability":"nonpayable"},{"type":"function","name":"getRoleAdmin","inputs":[{"name":"role","type":"bytes32","internalType":"bytes32"}],"outputs":[{"name":"","type":"bytes32","internalType":"bytes32"}],"stateMutability":"view"},{"type":"function","name":"grantRole","inputs":[{"name":"role","type":"bytes32","internalType":"bytes32"},{"name":"account","type":"address","internalType":"address"}],"outputs":[],"stateMutability":"nonpayable"},{"type":"function","name":"hasRole","inputs":[{"name":"role","type":"bytes32","internalType":"bytes32"},{"name":"account","type":"address","internalType":"address"}],"outputs":[{"name":"","type":"bool","internalType":"bool"}],"stateMutability":"view"},{"type":"function","name":"incendios","inputs":[{"name":"","type":"uint256","internalType":"uint256"}],"outputs":[{"name":"eventoID","type":"uint256","internalType":"uint256"},{"name":"jefeDeEscena","type":"address","internalType":"address"},{"name":"timestampInicio","type":"uint256","internalType":"uint256"},{"name":"timestampFin","type":"uint256","internalType":"uint256"},{"name":"coordenadas","type":"string","internalType":"string"},{"name":"riesgo","type":"uint256","internalType":"uint256"},{"name":"activo","type":"bool","internalType":"bool"}],"stateMutability":"view"},{"type":"function","name":"inventario","inputs":[{"name":"","type":"bytes32","internalType":"bytes32"}],"outputs":[{"name":"codigoInventario","type":"bytes32","internalType":"bytes32"},{"name":"descripcion","type":"string","internalType":"string"},{"name":"basePropietaria","type":"address","internalType":"address"},{"name":"custodioActual","type":"address","internalType":"address"},{"name":"estado","type":"uint8","internalType":"enum TrazabilidadLogistica.EstadoInsumo"},{"name":"estadoReportadoF2","type":"uint8","internalType":"enum TrazabilidadLogistica.EstadoReportado"},{"name":"ultimoMantenimiento","type":"uint256","internalType":"uint256"},{"name":"consumoNominal","type":"uint256","internalType":"uint256"},{"name":"inicioUso","type":"uint256","internalType":"uint256"}],"stateMutability":"view"},{"type":"function","name":"nextEventoID","inputs":[],"outputs":[{"name":"","type":"uint256","internalType":"uint256"}],"stateMutability":"view"},{"type":"function","name":"obtenerLogEvento","inputs":[{"name":"_eventoID","type":"uint256","internalType":"uint256"}],"outputs":[{"name":"","type":"tuple[]","internalType":"struct TrazabilidadLogistica.LogOperativo[]","components":[{"name":"eventoID","type":"uint256","internalType":"uint256"},{"name":"codigoInsumo","type":"bytes32","internalType":"bytes32"},{"name":"operador","type":"address","internalType":"address"},{"name":"timestamp","type":"uint256","internalType":"uint256"},{"name":"detalles","type":"string","internalType":"string"},{"name":"esDiscrepancia","type":"bool","internalType":"bool"}]}],"stateMutability":"view"},{"type":"function","name":"pause","inputs":[],"outputs":[],"stateMutability":"nonpayable"},{"type":"function","name":"paused","inputs":[],"outputs":[{"name":"","type":"bool","internalType":"bool"}],"stateMutability":"view"},{"type":"function","name":"registrarBitacoraTactica","inputs":[{"name":"_eventoID","type":"uint256","internalType":"uint256"},{"name":"_detalles","type":"string","internalType":"string"}],"outputs":[],"stateMutability":"nonpayable"},{"type":"function","name":"registrarHito","inputs":[{"name":"_eventoID","type":"uint256","internalType":"uint256"},{"name":"_codigo","type":"bytes32","internalType":"bytes32"},{"name":"_detalles","type":"string","internalType":"string"},{"name":"_nuevoEstadoProvisional","type":"uint8","internalType":"enum TrazabilidadLogistica.EstadoReportado"}],"outputs":[],"stateMutability":"nonpayable"},{"type":"function","name":"registrarInsumo","inputs":[{"name":"codigo","type":"bytes32","internalType":"bytes32"},{"name":"descripcion","type":"string","internalType":"string"},{"name":"consumoNominal","type":"uint256","internalType":"uint256"}],"outputs":[],"stateMutability":"nonpayable"},{"type":"function","name":"registrarInsumosBatch","inputs":[{"name":"codigos","type":"bytes32[]","internalType":"bytes32[]"},{"name":"descripciones","type":"string[]","internalType":"string[]"},{"name":"consumos","type":"uint256[]","internalType":"uint256[]"}],"outputs":[],"stateMutability":"nonpayable"},{"type":"function","name":"registrarPersonal","inputs":[{"name":"_billetera","type":"address","internalType":"address"},{"name":"_nombre","type":"string","internalType":"string"},{"name":"_especialidad","type":"string","internalType":"string"},{"name":"_role","type":"bytes32","internalType":"bytes32"}],"outputs":[],"stateMutability":"nonpayable"},{"type":"function","name":"renounceRole","inputs":[{"name":"role","type":"bytes32","internalType":"bytes32"},{"name":"account","type":"address","internalType":"address"}],"outputs":[],"stateMutability":"nonpayable"},{"type":"function","name":"retornarInsumo","inputs":[{"name":"_codigo","type":"bytes32","internalType":"bytes32"},{"name":"_estadoFinal","type":"uint8","internalType":"enum TrazabilidadLogistica.EstadoInsumo"},{"name":"_consumoReal","type":"uint256","internalType":"uint256"},{"name":"_motivoDiscrepancia","type":"string","internalType":"string"}],"outputs":[],"stateMutability":"nonpayable"},{"type":"function","name":"revokeRole","inputs":[{"name":"role","type":"bytes32","internalType":"bytes32"},{"name":"account","type":"address","internalType":"address"}],"outputs":[],"stateMutability":"nonpayable"},{"type":"function","name":"supportsInterface","inputs":[{"name":"interfaceId","type":"bytes4","internalType":"bytes4"}],"outputs":[{"name":"","type":"bool","internalType":"bool"}],"stateMutability":"view"},{"type":"function","name":"unpause","inputs":[],"outputs":[],"stateMutability":"nonpayable"},{"type":"event","name":"AlertaConsumo","inputs":[{"name":"eventoID","type":"uint256","indexed":true,"internalType":"uint256"},{"name":"codigo","type":"bytes32","indexed":true,"internalType":"bytes32"},{"name":"esperado","type":"uint256","indexed":false,"internalType":"uint256"},{"name":"real","type":"uint256","indexed":false,"internalType":"uint256"}],"anonymous":false},{"type":"event","name":"DiscrepanciaRegistrada","inputs":[{"name":"eventoID","type":"uint256","indexed":true,"internalType":"uint256"},{"name":"codigo","type":"bytes32","indexed":true,"internalType":"bytes32"},{"name":"motivo","type":"string","indexed":false,"internalType":"string"}],"anonymous":false},{"type":"event","name":"HitoRegistrado","inputs":[{"name":"eventoID","type":"uint256","indexed":true,"internalType":"uint256"},{"name":"codigo","type":"bytes32","indexed":true,"internalType":"bytes32"},{"name":"detalles","type":"string","indexed":false,"internalType":"string"}],"anonymous":false},{"type":"event","name":"IncendioCerrado","inputs":[{"name":"eventoID","type":"uint256","indexed":true,"internalType":"uint256"}],"anonymous":false},{"type":"event","name":"IncendioIniciado","inputs":[{"name":"eventoID","type":"uint256","indexed":true,"internalType":"uint256"},{"name":"coordenadas","type":"string","indexed":false,"internalType":"string"},{"name":"riesgo","type":"uint256","indexed":false,"internalType":"uint256"}],"anonymous":false},{"type":"event","name":"InsumoAsignado","inputs":[{"name":"eventoID","type":"uint256","indexed":true,"internalType":"uint256"},{"name":"codigo","type":"bytes32","indexed":true,"internalType":"bytes32"},{"name":"operador","type":"address","indexed":false,"internalType":"address"}],"anonymous":false},{"type":"event","name":"InsumoRegistrado","inputs":[{"name":"codigo","type":"bytes32","indexed":true,"internalType":"bytes32"},{"name":"descripcion","type":"string","indexed":false,"internalType":"string"},{"name":"base","type":"address","indexed":false,"internalType":"address"}],"anonymous":false},{"type":"event","name":"InsumoRetornado","inputs":[{"name":"codigo","type":"bytes32","indexed":true,"internalType":"bytes32"},{"name":"estadoFinal","type":"uint8","indexed":false,"internalType":"enum TrazabilidadLogistica.EstadoInsumo"}],"anonymous":false},{"type":"event","name":"Paused","inputs":[{"name":"account","type":"address","indexed":false,"internalType":"address"}],"anonymous":false},{"type":"event","name":"RoleAdminChanged","inputs":[{"name":"role","type":"bytes32","indexed":true,"internalType":"bytes32"},{"name":"previousAdminRole","type":"bytes32","indexed":true,"internalType":"bytes32"},{"name":"newAdminRole","type":"bytes32","indexed":true,"internalType":"bytes32"}],"anonymous":false},{"type":"event","name":"RoleGranted","inputs":[{"name":"role","type":"bytes32","indexed":true,"internalType":"bytes32"},{"name":"account","type":"address","indexed":true,"internalType":"address"},{"name":"sender","type":"address","indexed":true,"internalType":"address"}],"anonymous":false},{"type":"event","name":"RoleRevoked","inputs":[{"name":"role","type":"bytes32","indexed":true,"internalType":"bytes32"},{"name":"account","type":"address","indexed":true,"internalType":"address"},{"name":"sender","type":"address","indexed":true,"internalType":"address"}],"anonymous":false},{"type":"event","name":"Unpaused","inputs":[{"name":"account","type":"address","indexed":false,"internalType":"address"}],"anonymous":false}],"bytecode":{"object":"0x60806040526001600355348015610014575f5ffd5b505f60015f6101000a81548160ff02191690831515021790555060016002819055506100485f5f1b3361004d60201b60201c565b6101b1565b61005d828261006160201b60201c565b5050565b610071828261014760201b60201c565b6101435760015f5f8481526020019081526020015f205f015f8373ffffffffffffffffffffffffffffffffffffffff1673ffffffffffffffffffffffffffffffffffffffff1681526020019081526020015f205f6101000a81548160ff0219169083151502179055506100e86101aa60201b60201c565b73ffffffffffffffffffffffffffffffffffffffff168173ffffffffffffffffffffffffffffffffffffffff16837f2f8788117e7eff1d82e926ec794901d17c78024a50270940304540a733656f0d60405160405180910390a45b5050565b5f5f5f8481526020019081526020015f205f015f8373ffffffffffffffffffffffffffffffffffffffff1673ffffffffffffffffffffffffffffffffffffffff1681526020019081526020015f205f9054906101000a900460ff16905092915050565b5f33905090565b614476806101be5f395ff3fe608060405234801561000f575f5ffd5b50600436106101e3575f3560e01c80636e1d616e1161010d578063a217fddf116100a0578063d5e49e981161006f578063d5e49e981461058f578063d8cb4278146105ad578063f0fb65fd146105c9578063fc5b8505146105e5576101e3565b8063a217fddf14610503578063aeeffa1b14610521578063ccfbee661461053d578063d547741f14610573576101e3565b806391d14854116100dc57806391d14854146104525780639434ef34146104825780639c11ed41146104a05780639cd12f22146104d0576101e3565b80636e1d616e146103f05780637cf1d61b1461040e578063801d25ba1461042a5780638456cb5914610448576101e3565b80632b1c4235116101855780633f4ba83a116101545780633f4ba83a146103905780634b78e0da1461039a5780634dc1fb2b146103b65780635c975abb146103d2576101e3565b80632b1c4235146103075780632f2ff15d14610323578063308f72df1461033f57806336568abe14610374576101e3565b806312d81c2f116101c157806312d81c2f146102655780631730e0d6146102815780632101bcfd146102b9578063248a9ca3146102d7576101e3565b806301ffc9a7146101e75780630773598814610217578063079a47db14610247575b5f5ffd5b61020160048036038101906101fc9190612994565b610601565b60405161020e91906129d9565b60405180910390f35b610231600480360381019061022c9190612a4c565b61067a565b60405161023e91906129d9565b60405180910390f35b61024f610697565b60405161025c9190612a8f565b60405180910390f35b61027f600480360381019061027a9190612b66565b6106bb565b005b61029b60048036038101906102969190612bd7565b610742565b6040516102b099989796959493929190612d49565b60405180910390f35b6102c161086a565b6040516102ce9190612ddb565b60405180910390f35b6102f160048036038101906102ec9190612bd7565b610870565b6040516102fe9190612a8f565b60405180910390f35b610321600480360381019061031c9190612df4565b61088c565b005b61033d60048036038101906103389190612e1f565b61098b565b005b61035960048036038101906103549190612e5d565b6109ac565b60405161036b96959493929190612e9b565b60405180910390f35b61038e60048036038101906103899190612e1f565b610aaf565b005b610398610b32565b005b6103b460048036038101906103af9190613029565b610b49565b005b6103d060048036038101906103cb91906130c5565b610c6f565b005b6103da610e9e565b6040516103e791906129d9565b60405180910390f35b6103f8610eb3565b6040516104059190612a8f565b60405180910390f35b61042860048036038101906104239190613122565b610ed7565b005b610432611063565b60405161043f9190612a8f565b60405180910390f35b610450611087565b005b61046c60048036038101906104679190612e1f565b61109e565b60405161047991906129d9565b60405180910390f35b61048a611101565b6040516104979190612a8f565b60405180910390f35b6104ba60048036038101906104b59190612df4565b611125565b6040516104c79190613341565b60405180910390f35b6104ea60048036038101906104e59190612a4c565b6112ae565b6040516104fa9493929190613361565b60405180910390f35b61050b611411565b6040516105189190612a8f565b60405180910390f35b61053b600480360381019061053691906133d5565b611417565b005b61055760048036038101906105529190612df4565b611705565b60405161056a9796959493929190613455565b60405180910390f35b61058d60048036038101906105889190612e1f565b6117f4565b005b610597611815565b6040516105a49190612a8f565b60405180910390f35b6105c760048036038101906105c291906134c9565b611839565b005b6105e360048036038101906105de9190613618565b611bfc565b005b6105ff60048036038101906105fa91906136eb565b611d97565b005b5f7f7965db0b000000000000000000000000000000000000000000000000000000007bffffffffffffffffffffffffffffffffffffffffffffffffffffffff1916827bffffffffffffffffffffffffffffffffffffffffffffffffffffffff19161480610673575061067282611ff3565b5b9050919050565b6008602052805f5260405f205f915054906101000a900460ff1681565b7f731fe6f22e48c8ad24c7515b4379705d9f8883dd221815024b35c6580536cb7181565b7f731fe6f22e48c8ad24c7515b4379705d9f8883dd221815024b35c6580536cb716106e58161205c565b6106ed612070565b61073b8585858080601f0160208091040260200160405190810160405280939291908181526020018383808284375f81840152601f19601f82011690508083019250505050505050846120ba565b5050505050565b6004602052805f5260405f205f91509050805f01549080600101805461076790613798565b80601f016020809104026020016040519081016040528092919081815260200182805461079390613798565b80156107de5780601f106107b5576101008083540402835291602001916107de565b820191905f5260205f20905b8154815290600101906020018083116107c157829003601f168201915b505050505090806002015f9054906101000a900473ffffffffffffffffffffffffffffffffffffffff1690806003015f9054906101000a900473ffffffffffffffffffffffffffffffffffffffff16908060030160149054906101000a900460ff16908060030160159054906101000a900460ff16908060040154908060050154908060060154905089565b60035481565b5f5f5f8381526020019081526020015f20600101549050919050565b7f1c33b934193907dc14a35370982c68e37544b8f15b0b2800284cda811d8d84566108b68161205c565b60065f8381526020019081526020015f206006015f9054906101000a900460ff16610916576040517f08c379a000000000000000000000000000000000000000000000000000000000815260040161090d90613812565b60405180910390fd5b5f60065f8481526020019081526020015f206006015f6101000a81548160ff0219169083151502179055504260065f8481526020019081526020015f2060030181905550817fccb7696195025f4e6e7f9114baab03db051fc97ddb2c6b9d09111341ea52e2d760405160405180910390a25050565b61099482610870565b61099d8161205c565b6109a7838361231d565b505050565b6007602052815f5260405f2081815481106109c5575f80fd5b905f5260205f2090600602015f9150915050805f015490806001015490806002015f9054906101000a900473ffffffffffffffffffffffffffffffffffffffff1690806003015490806004018054610a1c90613798565b80601f0160208091040260200160405190810160405280929190818152602001828054610a4890613798565b8015610a935780601f10610a6a57610100808354040283529160200191610a93565b820191905f5260205f20905b815481529060010190602001808311610a7657829003601f168201915b505050505090806005015f9054906101000a900460ff16905086565b610ab76123f7565b73ffffffffffffffffffffffffffffffffffffffff168173ffffffffffffffffffffffffffffffffffffffff1614610b24576040517f08c379a0000000000000000000000000000000000000000000000000000000008152600401610b1b906138a0565b60405180910390fd5b610b2e82826123fe565b5050565b5f5f1b610b3e8161205c565b610b466124d8565b50565b5f5f1b610b558161205c565b60405180608001604052808673ffffffffffffffffffffffffffffffffffffffff1681526020018581526020018481526020016001151581525060055f8773ffffffffffffffffffffffffffffffffffffffff1673ffffffffffffffffffffffffffffffffffffffff1681526020019081526020015f205f820151815f015f6101000a81548173ffffffffffffffffffffffffffffffffffffffff021916908373ffffffffffffffffffffffffffffffffffffffff1602179055506020820151816001019081610c259190613a6f565b506040820151816002019081610c3b9190613a6f565b506060820151816003015f6101000a81548160ff021916908315150217905550905050610c688286612539565b5050505050565b7f1c33b934193907dc14a35370982c68e37544b8f15b0b2800284cda811d8d8456610c998161205c565b610ca1612070565b60065f8581526020019081526020015f206006015f9054906101000a900460ff16610d01576040517f08c379a0000000000000000000000000000000000000000000000000000000008152600401610cf890613b88565b60405180910390fd5b60075f8581526020019081526020015f206040518060c001604052808681526020015f5f1b81526020013373ffffffffffffffffffffffffffffffffffffffff16815260200142815260200185858080601f0160208091040260200160405190810160405280939291908181526020018383808284375f81840152601f19601f8201169050808301925050505050505081526020015f1515815250908060018154018082558091505060019003905f5260205f2090600602015f909190919091505f820151815f0155602082015181600101556040820151816002015f6101000a81548173ffffffffffffffffffffffffffffffffffffffff021916908373ffffffffffffffffffffffffffffffffffffffff160217905550606082015181600301556080820151816004019081610e399190613a6f565b5060a0820151816005015f6101000a81548160ff02191690831515021790555050505f5f1b847f9411c1cd33a2ce86a586acaacc052235ed9bc501acc5510a0e0157db9a3ce0ba8585604051610e90929190613bd2565b60405180910390a350505050565b5f60015f9054906101000a900460ff16905090565b7f59a1c48e5837ad7a7f3dcedcbe129bf3249ec4fbf651fd4f5e2600ead39fe2f581565b7f1c33b934193907dc14a35370982c68e37544b8f15b0b2800284cda811d8d8456610f018161205c565b610f09612070565b5f60035f815480929190610f1c90613c21565b9190505590506040518060e001604052808281526020013373ffffffffffffffffffffffffffffffffffffffff1681526020014281526020015f81526020018581526020018481526020016001151581525060065f8381526020019081526020015f205f820151815f01556020820151816001015f6101000a81548173ffffffffffffffffffffffffffffffffffffffff021916908373ffffffffffffffffffffffffffffffffffffffff16021790555060408201518160020155606082015181600301556080820151816004019081610ff69190613a6f565b5060a0820151816005015560c0820151816006015f6101000a81548160ff021916908315150217905550905050807f0a21e54b25e00ab323df8e4bd0d986ce1c742f1493372abb6fe4cdbd58a653a38585604051611055929190613c68565b60405180910390a250505050565b7facaade3b8ba30639994a37216e3f69a43c82aee06bd093696f45c6386815da2181565b5f5f1b6110938161205c565b61109b612547565b50565b5f5f5f8481526020019081526020015f205f015f8373ffffffffffffffffffffffffffffffffffffffff1673ffffffffffffffffffffffffffffffffffffffff1681526020019081526020015f205f9054906101000a900460ff16905092915050565b7ff0e27d98792a1f4388176184868b885d3f7997fa8a9a3b972f6b9007c691065881565b606060075f8381526020019081526020015f20805480602002602001604051908101604052809291908181526020015f905b828210156112a3578382905f5260205f2090600602016040518060c00160405290815f820154815260200160018201548152602001600282015f9054906101000a900473ffffffffffffffffffffffffffffffffffffffff1673ffffffffffffffffffffffffffffffffffffffff1673ffffffffffffffffffffffffffffffffffffffff168152602001600382015481526020016004820180546111fa90613798565b80601f016020809104026020016040519081016040528092919081815260200182805461122690613798565b80156112715780601f1061124857610100808354040283529160200191611271565b820191905f5260205f20905b81548152906001019060200180831161125457829003601f168201915b50505050508152602001600582015f9054906101000a900460ff16151515158152505081526020019060010190611157565b505050509050919050565b6005602052805f5260405f205f91509050805f015f9054906101000a900473ffffffffffffffffffffffffffffffffffffffff16908060010180546112f290613798565b80601f016020809104026020016040519081016040528092919081815260200182805461131e90613798565b80156113695780601f1061134057610100808354040283529160200191611369565b820191905f5260205f20905b81548152906001019060200180831161134c57829003601f168201915b50505050509080600201805461137e90613798565b80601f01602080910402602001604051908101604052809291908181526020018280546113aa90613798565b80156113f55780601f106113cc576101008083540402835291602001916113f5565b820191905f5260205f20905b8154815290600101906020018083116113d857829003601f168201915b505050505090806003015f9054906101000a900460ff16905084565b5f5f1b81565b7f731fe6f22e48c8ad24c7515b4379705d9f8883dd221815024b35c6580536cb716114418161205c565b6114496125a8565b5f60045f8781526020019081526020015f2090506001600481111561147157611470612c81565b5b8160030160149054906101000a900460ff16600481111561149557611494612c81565b5b14806114d557506004808111156114af576114ae612c81565b5b8160030160149054906101000a900460ff1660048111156114d3576114d2612c81565b5b145b611514576040517f08c379a000000000000000000000000000000000000000000000000000000000815260040161150b90613ce0565b60405180910390fd5b5f816005015411801561152a57505f8160060154115b156115c1575f8160060154426115409190613cfe565b90505f610e108360050154836115569190613d31565b6115609190613d9f565b905060646078826115719190613d31565b61157b9190613d9f565b8611156115be57875f7f9460118c07ceacdad770843a755ebf21b9b6188fe176613728061007f600cbcd83896040516115b5929190613dcf565b60405180910390a35b50505b8060030160159054906101000a900460ff1660038111156115e5576115e4612c81565b5b60ff168560048111156115fb576115fa612c81565b5b60ff161461163d57855f7f4ba644195ddad15d5480bbdf892fd3a68317084d3e4a49d17a0120c2f0d0fa74856040516116349190613df6565b60405180910390a35b848160030160146101000a81548160ff0219169083600481111561166457611663612c81565b5b02179055505f816003015f6101000a81548173ffffffffffffffffffffffffffffffffffffffff021916908373ffffffffffffffffffffffffffffffffffffffff1602179055505f8160060181905550428160040181905550857f126f2357217a57a127d57de8579b758d2dc7d17f1fc644303f7c0c2790abcc71866040516116ed9190613e16565b60405180910390a2506116fe6125f5565b5050505050565b6006602052805f5260405f205f91509050805f015490806001015f9054906101000a900473ffffffffffffffffffffffffffffffffffffffff169080600201549080600301549080600401805461175b90613798565b80601f016020809104026020016040519081016040528092919081815260200182805461178790613798565b80156117d25780601f106117a9576101008083540402835291602001916117d2565b820191905f5260205f20905b8154815290600101906020018083116117b557829003601f168201915b505050505090806005015490806006015f9054906101000a900460ff16905087565b6117fd82610870565b6118068161205c565b61181083836123fe565b505050565b7f1c33b934193907dc14a35370982c68e37544b8f15b0b2800284cda811d8d845681565b7f1c33b934193907dc14a35370982c68e37544b8f15b0b2800284cda811d8d84566118638161205c565b61186b6125a8565b611873612070565b60065f8581526020019081526020015f206006015f9054906101000a900460ff166118d3576040517f08c379a00000000000000000000000000000000000000000000000000000000081526004016118ca90613b88565b60405180910390fd5b5f60048111156118e6576118e5612c81565b5b60045f8581526020019081526020015f2060030160149054906101000a900460ff16600481111561191a57611919612c81565b5b1461195a576040517f08c379a000000000000000000000000000000000000000000000000000000000815260040161195190613e79565b60405180910390fd5b6119847ff0e27d98792a1f4388176184868b885d3f7997fa8a9a3b972f6b9007c69106588361109e565b6119c3576040517f08c379a00000000000000000000000000000000000000000000000000000000081526004016119ba90613ee1565b60405180910390fd5b600160045f8581526020019081526020015f2060030160146101000a81548160ff021916908360048111156119fb576119fa612c81565b5b02179055508160045f8581526020019081526020015f206003015f6101000a81548173ffffffffffffffffffffffffffffffffffffffff021916908373ffffffffffffffffffffffffffffffffffffffff1602179055504260045f8581526020019081526020015f206006018190555060075f8581526020019081526020015f206040518060c001604052808681526020018581526020018473ffffffffffffffffffffffffffffffffffffffff1681526020014281526020016040518060400160405280601681526020017f417369676e61646f206120636f6d62617469656e74650000000000000000000081525081526020015f1515815250908060018154018082558091505060019003905f5260205f2090600602015f909190919091505f820151815f0155602082015181600101556040820151816002015f6101000a81548173ffffffffffffffffffffffffffffffffffffffff021916908373ffffffffffffffffffffffffffffffffffffffff160217905550606082015181600301556080820151816004019081611b939190613a6f565b5060a0820151816005015f6101000a81548160ff021916908315150217905550505082847f45c6504610ce381c3bf12be4be1022b9cf010fd050104cbb2c9ee88939ae5c2c84604051611be69190613eff565b60405180910390a3611bf66125f5565b50505050565b7f731fe6f22e48c8ad24c7515b4379705d9f8883dd221815024b35c6580536cb71611c268161205c565b611c2e612070565b611c366125a8565b8484905087879050148015611c5057508282905087879050145b611c8f576040517f08c379a0000000000000000000000000000000000000000000000000000000008152600401611c8690613f88565b60405180910390fd5b5f5f90505b87879050811015611d85575f5f1b60045f8a8a85818110611cb857611cb7613fa6565b5b9050602002013581526020019081526020015f205f015403611d7857611d77888883818110611cea57611ce9613fa6565b5b90506020020135878784818110611d0457611d03613fa6565b5b9050602002810190611d169190613fdf565b8080601f0160208091040260200160405190810160405280939291908181526020018383808284375f81840152601f19601f82011690508083019250505050505050868685818110611d6b57611d6a613fa6565b5b905060200201356120ba565b5b8080600101915050611c94565b50611d8e6125f5565b50505050505050565b7ff0e27d98792a1f4388176184868b885d3f7997fa8a9a3b972f6b9007c6910658611dc18161205c565b3373ffffffffffffffffffffffffffffffffffffffff1660045f8681526020019081526020015f206003015f9054906101000a900473ffffffffffffffffffffffffffffffffffffffff1673ffffffffffffffffffffffffffffffffffffffff1614611e62576040517f08c379a0000000000000000000000000000000000000000000000000000000008152600401611e599061408b565b60405180910390fd5b8160045f8681526020019081526020015f2060030160156101000a81548160ff02191690836003811115611e9957611e98612c81565b5b021790555060075f8681526020019081526020015f206040518060c001604052808781526020018681526020013373ffffffffffffffffffffffffffffffffffffffff1681526020014281526020018581526020015f1515815250908060018154018082558091505060019003905f5260205f2090600602015f909190919091505f820151815f0155602082015181600101556040820151816002015f6101000a81548173ffffffffffffffffffffffffffffffffffffffff021916908373ffffffffffffffffffffffffffffffffffffffff160217905550606082015181600301556080820151816004019081611f919190613a6f565b5060a0820151816005015f6101000a81548160ff021916908315150217905550505083857f9411c1cd33a2ce86a586acaacc052235ed9bc501acc5510a0e0157db9a3ce0ba85604051611fe49190613df6565b60405180910390a35050505050565b5f7f01ffc9a7000000000000000000000000000000000000000000000000000000007bffffffffffffffffffffffffffffffffffffffffffffffffffffffff1916827bffffffffffffffffffffffffffffffffffffffffffffffffffffffff1916149050919050565b61206d816120686123f7565b6125ff565b50565b612078610e9e565b156120b8576040517f08c379a00000000000000000000000000000000000000000000000000000000081526004016120af906140f3565b60405180910390fd5b565b5f5f1b60045f8581526020019081526020015f205f015414612111576040517f08c379a00000000000000000000000000000000000000000000000000000000081526004016121089061415b565b60405180910390fd5b6040518061012001604052808481526020018381526020013273ffffffffffffffffffffffffffffffffffffffff1681526020013273ffffffffffffffffffffffffffffffffffffffff1681526020015f600481111561217457612173612c81565b5b81526020015f600381111561218c5761218b612c81565b5b81526020014281526020018281526020015f81525060045f8581526020019081526020015f205f820151815f015560208201518160010190816121cf9190613a6f565b506040820151816002015f6101000a81548173ffffffffffffffffffffffffffffffffffffffff021916908373ffffffffffffffffffffffffffffffffffffffff1602179055506060820151816003015f6101000a81548173ffffffffffffffffffffffffffffffffffffffff021916908373ffffffffffffffffffffffffffffffffffffffff16021790555060808201518160030160146101000a81548160ff0219169083600481111561228757612286612c81565b5b021790555060a08201518160030160156101000a81548160ff021916908360038111156122b7576122b6612c81565b5b021790555060c0820151816004015560e082015181600501556101008201518160060155905050827fdc6c6e42e4beb3fd43a594802a1828532a6f0d9b270f6a1ec09bc8dbe4ad837d8332604051612310929190614179565b60405180910390a2505050565b612327828261109e565b6123f35760015f5f8481526020019081526020015f205f015f8373ffffffffffffffffffffffffffffffffffffffff1673ffffffffffffffffffffffffffffffffffffffff1681526020019081526020015f205f6101000a81548160ff0219169083151502179055506123986123f7565b73ffffffffffffffffffffffffffffffffffffffff168173ffffffffffffffffffffffffffffffffffffffff16837f2f8788117e7eff1d82e926ec794901d17c78024a50270940304540a733656f0d60405160405180910390a45b5050565b5f33905090565b612408828261109e565b156124d4575f5f5f8481526020019081526020015f205f015f8373ffffffffffffffffffffffffffffffffffffffff1673ffffffffffffffffffffffffffffffffffffffff1681526020019081526020015f205f6101000a81548160ff0219169083151502179055506124796123f7565b73ffffffffffffffffffffffffffffffffffffffff168173ffffffffffffffffffffffffffffffffffffffff16837ff6391f5c32d9c69d2a47ea670b442974b53935d1edc7fd64eb21e047a839171b60405160405180910390a45b5050565b6124e0612683565b5f60015f6101000a81548160ff0219169083151502179055507f5db9ee0a495bf2e6ff9c91a7834c1ba4fdd244a5e8aa4e537bd38aeae4b073aa6125226123f7565b60405161252f9190613eff565b60405180910390a1565b612543828261231d565b5050565b61254f612070565b6001805f6101000a81548160ff0219169083151502179055507f62e78cea01bee320cd4e420270b5ea74000d11b0c9f74754ebdbfc544b05a2586125916123f7565b60405161259e9190613eff565b60405180910390a1565b60028054036125ec576040517f08c379a00000000000000000000000000000000000000000000000000000000081526004016125e3906141f1565b60405180910390fd5b60028081905550565b6001600281905550565b612609828261109e565b61267f57612616816126cc565b612623835f1c60206126f9565b6040516020016126349291906142dd565b6040516020818303038152906040526040517f08c379a00000000000000000000000000000000000000000000000000000000081526004016126769190613df6565b60405180910390fd5b5050565b61268b610e9e565b6126ca576040517f08c379a00000000000000000000000000000000000000000000000000000000081526004016126c190614360565b60405180910390fd5b565b60606126f28273ffffffffffffffffffffffffffffffffffffffff16601460ff166126f9565b9050919050565b60605f600283600261270b9190613d31565b612715919061437e565b67ffffffffffffffff81111561272e5761272d612f05565b5b6040519080825280601f01601f1916602001820160405280156127605781602001600182028036833780820191505090505b5090507f3000000000000000000000000000000000000000000000000000000000000000815f8151811061279757612796613fa6565b5b60200101907effffffffffffffffffffffffffffffffffffffffffffffffffffffffffffff191690815f1a9053507f7800000000000000000000000000000000000000000000000000000000000000816001815181106127fa576127f9613fa6565b5b60200101907effffffffffffffffffffffffffffffffffffffffffffffffffffffffffffff191690815f1a9053505f60018460026128389190613d31565b612842919061437e565b90505b60018111156128e1577f3031323334353637383961626364656600000000000000000000000000000000600f86166010811061288457612883613fa6565b5b1a60f81b82828151811061289b5761289a613fa6565b5b60200101907effffffffffffffffffffffffffffffffffffffffffffffffffffffffffffff191690815f1a905350600485901c9450806128da906143b1565b9050612845565b505f8414612924576040517f08c379a000000000000000000000000000000000000000000000000000000000815260040161291b90614422565b60405180910390fd5b8091505092915050565b5f604051905090565b5f5ffd5b5f5ffd5b5f7fffffffff0000000000000000000000000000000000000000000000000000000082169050919050565b6129738161293f565b811461297d575f5ffd5b50565b5f8135905061298e8161296a565b92915050565b5f602082840312156129a9576129a8612937565b5b5f6129b684828501612980565b91505092915050565b5f8115159050919050565b6129d3816129bf565b82525050565b5f6020820190506129ec5f8301846129ca565b92915050565b5f73ffffffffffffffffffffffffffffffffffffffff82169050919050565b5f612a1b826129f2565b9050919050565b612a2b81612a11565b8114612a35575f5ffd5b50565b5f81359050612a4681612a22565b92915050565b5f60208284031215612a6157612a60612937565b5b5f612a6e84828501612a38565b91505092915050565b5f819050919050565b612a8981612a77565b82525050565b5f602082019050612aa25f830184612a80565b92915050565b612ab181612a77565b8114612abb575f5ffd5b50565b5f81359050612acc81612aa8565b92915050565b5f5ffd5b5f5ffd5b5f5ffd5b5f5f83601f840112612af357612af2612ad2565b5b8235905067ffffffffffffffff811115612b1057612b0f612ad6565b5b602083019150836001820283011115612b2c57612b2b612ada565b5b9250929050565b5f819050919050565b612b4581612b33565b8114612b4f575f5ffd5b50565b5f81359050612b6081612b3c565b92915050565b5f5f5f5f60608587031215612b7e57612b7d612937565b5b5f612b8b87828801612abe565b945050602085013567ffffffffffffffff811115612bac57612bab61293b565b5b612bb887828801612ade565b93509350506040612bcb87828801612b52565b91505092959194509250565b5f60208284031215612bec57612beb612937565b5b5f612bf984828501612abe565b91505092915050565b5f81519050919050565b5f82825260208201905092915050565b8281835e5f83830152505050565b5f601f19601f8301169050919050565b5f612c4482612c02565b612c4e8185612c0c565b9350612c5e818560208601612c1c565b612c6781612c2a565b840191505092915050565b612c7b81612a11565b82525050565b7f4e487b71000000000000000000000000000000000000000000000000000000005f52602160045260245ffd5b60058110612cbf57612cbe612c81565b5b50565b5f819050612ccf82612cae565b919050565b5f612cde82612cc2565b9050919050565b612cee81612cd4565b82525050565b60048110612d0557612d04612c81565b5b50565b5f819050612d1582612cf4565b919050565b5f612d2482612d08565b9050919050565b612d3481612d1a565b82525050565b612d4381612b33565b82525050565b5f61012082019050612d5d5f83018c612a80565b8181036020830152612d6f818b612c3a565b9050612d7e604083018a612c72565b612d8b6060830189612c72565b612d986080830188612ce5565b612da560a0830187612d2b565b612db260c0830186612d3a565b612dbf60e0830185612d3a565b612dcd610100830184612d3a565b9a9950505050505050505050565b5f602082019050612dee5f830184612d3a565b92915050565b5f60208284031215612e0957612e08612937565b5b5f612e1684828501612b52565b91505092915050565b5f5f60408385031215612e3557612e34612937565b5b5f612e4285828601612abe565b9250506020612e5385828601612a38565b9150509250929050565b5f5f60408385031215612e7357612e72612937565b5b5f612e8085828601612b52565b9250506020612e9185828601612b52565b9150509250929050565b5f60c082019050612eae5f830189612d3a565b612ebb6020830188612a80565b612ec86040830187612c72565b612ed56060830186612d3a565b8181036080830152612ee78185612c3a565b9050612ef660a08301846129ca565b979650505050505050565b5f5ffd5b7f4e487b71000000000000000000000000000000000000000000000000000000005f52604160045260245ffd5b612f3b82612c2a565b810181811067ffffffffffffffff82111715612f5a57612f59612f05565b5b80604052505050565b5f612f6c61292e565b9050612f788282612f32565b919050565b5f67ffffffffffffffff821115612f9757612f96612f05565b5b612fa082612c2a565b9050602081019050919050565b828183375f83830152505050565b5f612fcd612fc884612f7d565b612f63565b905082815260208101848484011115612fe957612fe8612f01565b5b612ff4848285612fad565b509392505050565b5f82601f8301126130105761300f612ad2565b5b8135613020848260208601612fbb565b91505092915050565b5f5f5f5f6080858703121561304157613040612937565b5b5f61304e87828801612a38565b945050602085013567ffffffffffffffff81111561306f5761306e61293b565b5b61307b87828801612ffc565b935050604085013567ffffffffffffffff81111561309c5761309b61293b565b5b6130a887828801612ffc565b92505060606130b987828801612abe565b91505092959194509250565b5f5f5f604084860312156130dc576130db612937565b5b5f6130e986828701612b52565b935050602084013567ffffffffffffffff81111561310a5761310961293b565b5b61311686828701612ade565b92509250509250925092565b5f5f6040838503121561313857613137612937565b5b5f83013567ffffffffffffffff8111156131555761315461293b565b5b61316185828601612ffc565b925050602061317285828601612b52565b9150509250929050565b5f81519050919050565b5f82825260208201905092915050565b5f819050602082019050919050565b6131ae81612b33565b82525050565b6131bd81612a77565b82525050565b6131cc81612a11565b82525050565b5f82825260208201905092915050565b5f6131ec82612c02565b6131f681856131d2565b9350613206818560208601612c1c565b61320f81612c2a565b840191505092915050565b613223816129bf565b82525050565b5f60c083015f83015161323e5f8601826131a5565b50602083015161325160208601826131b4565b50604083015161326460408601826131c3565b50606083015161327760608601826131a5565b506080830151848203608086015261328f82826131e2565b91505060a08301516132a460a086018261321a565b508091505092915050565b5f6132ba8383613229565b905092915050565b5f602082019050919050565b5f6132d88261317c565b6132e28185613186565b9350836020820285016132f485613196565b805f5b8581101561332f578484038952815161331085826132af565b945061331b836132c2565b925060208a019950506001810190506132f7565b50829750879550505050505092915050565b5f6020820190508181035f83015261335981846132ce565b905092915050565b5f6080820190506133745f830187612c72565b81810360208301526133868186612c3a565b9050818103604083015261339a8185612c3a565b90506133a960608301846129ca565b95945050505050565b600581106133be575f5ffd5b50565b5f813590506133cf816133b2565b92915050565b5f5f5f5f608085870312156133ed576133ec612937565b5b5f6133fa87828801612abe565b945050602061340b878288016133c1565b935050604061341c87828801612b52565b925050606085013567ffffffffffffffff81111561343d5761343c61293b565b5b61344987828801612ffc565b91505092959194509250565b5f60e0820190506134685f83018a612d3a565b6134756020830189612c72565b6134826040830188612d3a565b61348f6060830187612d3a565b81810360808301526134a18186612c3a565b90506134b060a0830185612d3a565b6134bd60c08301846129ca565b98975050505050505050565b5f5f5f606084860312156134e0576134df612937565b5b5f6134ed86828701612b52565b93505060206134fe86828701612abe565b925050604061350f86828701612a38565b9150509250925092565b5f5f83601f84011261352e5761352d612ad2565b5b8235905067ffffffffffffffff81111561354b5761354a612ad6565b5b60208301915083602082028301111561356757613566612ada565b5b9250929050565b5f5f83601f84011261358357613582612ad2565b5b8235905067ffffffffffffffff8111156135a05761359f612ad6565b5b6020830191508360208202830111156135bc576135bb612ada565b5b9250929050565b5f5f83601f8401126135d8576135d7612ad2565b5b8235905067ffffffffffffffff8111156135f5576135f4612ad6565b5b60208301915083602082028301111561361157613610612ada565b5b9250929050565b5f5f5f5f5f5f6060878903121561363257613631612937565b5b5f87013567ffffffffffffffff81111561364f5761364e61293b565b5b61365b89828a01613519565b9650965050602087013567ffffffffffffffff81111561367e5761367d61293b565b5b61368a89828a0161356e565b9450945050604087013567ffffffffffffffff8111156136ad576136ac61293b565b5b6136b989828a016135c3565b92509250509295509295509295565b600481106136d4575f5ffd5b50565b5f813590506136e5816136c8565b92915050565b5f5f5f5f6080858703121561370357613702612937565b5b5f61371087828801612b52565b945050602061372187828801612abe565b935050604085013567ffffffffffffffff8111156137425761374161293b565b5b61374e87828801612ffc565b925050606061375f878288016136d7565b91505092959194509250565b7f4e487b71000000000000000000000000000000000000000000000000000000005f52602260045260245ffd5b5f60028204905060018216806137af57607f821691505b6020821081036137c2576137c161376b565b5b50919050565b7f5961206365727261646f000000000000000000000000000000000000000000005f82015250565b5f6137fc600a83612c0c565b9150613807826137c8565b602082019050919050565b5f6020820190508181035f830152613829816137f0565b9050919050565b7f416363657373436f6e74726f6c3a2063616e206f6e6c792072656e6f756e63655f8201527f20726f6c657320666f722073656c660000000000000000000000000000000000602082015250565b5f61388a602f83612c0c565b915061389582613830565b604082019050919050565b5f6020820190508181035f8301526138b78161387e565b9050919050565b5f819050815f5260205f209050919050565b5f6020601f8301049050919050565b5f82821b905092915050565b5f6008830261391a7fffffffffffffffffffffffffffffffffffffffffffffffffffffffffffffffff826138df565b61392486836138df565b95508019841693508086168417925050509392505050565b5f819050919050565b5f61395f61395a61395584612b33565b61393c565b612b33565b9050919050565b5f819050919050565b61397883613945565b61398c61398482613966565b8484546138eb565b825550505050565b5f5f905090565b6139a3613994565b6139ae81848461396f565b505050565b5f5b828110156139d4576139c95f82840161399b565b6001810190506139b5565b505050565b601f821115613a275782821115613a26576139f3816138be565b6139fc836138d0565b613a05856138d0565b6020861015613a12575f90505b808301613a21828403826139b3565b505050505b5b505050565b5f82821c905092915050565b5f613a475f1984600802613a2c565b1980831691505092915050565b5f613a5f8383613a38565b9150826002028217905092915050565b613a7882612c02565b67ffffffffffffffff811115613a9157613a90612f05565b5b613a9b8254613798565b613aa68282856139d9565b5f60209050601f831160018114613ad7575f8415613ac5578287015190505b613acf8582613a54565b865550613b36565b601f198416613ae5866138be565b5f5b82811015613b0c57848901518255600182019150602085019450602081019050613ae7565b86831015613b295784890151613b25601f891682613a38565b8355505b6001600288020188555050505b505050505050565b7f4576656e746f206e6f2061637469766f000000000000000000000000000000005f82015250565b5f613b72601083612c0c565b9150613b7d82613b3e565b602082019050919050565b5f6020820190508181035f830152613b9f81613b66565b9050919050565b5f613bb18385612c0c565b9350613bbe838584612fad565b613bc783612c2a565b840190509392505050565b5f6020820190508181035f830152613beb818486613ba6565b90509392505050565b7f4e487b71000000000000000000000000000000000000000000000000000000005f52601160045260245ffd5b5f613c2b82612b33565b91507fffffffffffffffffffffffffffffffffffffffffffffffffffffffffffffffff8203613c5d57613c5c613bf4565b5b600182019050919050565b5f6040820190508181035f830152613c808185612c3a565b9050613c8f6020830184612d3a565b9392505050565b7f4e6f2065737461626120656e2075736f000000000000000000000000000000005f82015250565b5f613cca601083612c0c565b9150613cd582613c96565b602082019050919050565b5f6020820190508181035f830152613cf781613cbe565b9050919050565b5f613d0882612b33565b9150613d1383612b33565b9250828203905081811115613d2b57613d2a613bf4565b5b92915050565b5f613d3b82612b33565b9150613d4683612b33565b9250828202613d5481612b33565b91508282048414831517613d6b57613d6a613bf4565b5b5092915050565b7f4e487b71000000000000000000000000000000000000000000000000000000005f52601260045260245ffd5b5f613da982612b33565b9150613db483612b33565b925082613dc457613dc3613d72565b5b828204905092915050565b5f604082019050613de25f830185612d3a565b613def6020830184612d3a565b9392505050565b5f6020820190508181035f830152613e0e8184612c3a565b905092915050565b5f602082019050613e295f830184612ce5565b92915050565b7f496e73756d6f206e6f20646973706f6e69626c650000000000000000000000005f82015250565b5f613e63601483612c0c565b9150613e6e82613e2f565b602082019050919050565b5f6020820190508181035f830152613e9081613e57565b9050919050565b7f44657374696e61746172696f206e6f206573206f70657261646f7200000000005f82015250565b5f613ecb601b83612c0c565b9150613ed682613e97565b602082019050919050565b5f6020820190508181035f830152613ef881613ebf565b9050919050565b5f602082019050613f125f830184612c72565b92915050565b7f4c6f6e67697475642064652061727265676c6f7320696e636f6e73697374656e5f8201527f7465000000000000000000000000000000000000000000000000000000000000602082015250565b5f613f72602283612c0c565b9150613f7d82613f18565b604082019050919050565b5f6020820190508181035f830152613f9f81613f66565b9050919050565b7f4e487b71000000000000000000000000000000000000000000000000000000005f52603260045260245ffd5b5f5ffd5b5f5ffd5b5f5ffd5b5f5f83356001602003843603038112613ffb57613ffa613fd3565b5b80840192508235915067ffffffffffffffff82111561401d5761401c613fd7565b5b60208301925060018202360383131561403957614038613fdb565b5b509250929050565b7f4e6f20657320656c20637573746f64696f0000000000000000000000000000005f82015250565b5f614075601183612c0c565b915061408082614041565b602082019050919050565b5f6020820190508181035f8301526140a281614069565b9050919050565b7f5061757361626c653a20706175736564000000000000000000000000000000005f82015250565b5f6140dd601083612c0c565b91506140e8826140a9565b602082019050919050565b5f6020820190508181035f83015261410a816140d1565b9050919050565b7f456c20696e73756d6f2079612065737461207265676973747261646f000000005f82015250565b5f614145601c83612c0c565b915061415082614111565b602082019050919050565b5f6020820190508181035f83015261417281614139565b9050919050565b5f6040820190508181035f8301526141918185612c3a565b90506141a06020830184612c72565b9392505050565b7f5265656e7472616e637947756172643a207265656e7472616e742063616c6c005f82015250565b5f6141db601f83612c0c565b91506141e6826141a7565b602082019050919050565b5f6020820190508181035f830152614208816141cf565b9050919050565b5f81905092915050565b7f416363657373436f6e74726f6c3a206163636f756e74200000000000000000005f82015250565b5f61424d60178361420f565b915061425882614219565b601782019050919050565b5f61426d82612c02565b614277818561420f565b9350614287818560208601612c1c565b80840191505092915050565b7f206973206d697373696e6720726f6c65200000000000000000000000000000005f82015250565b5f6142c760118361420f565b91506142d282614293565b601182019050919050565b5f6142e782614241565b91506142f38285614263565b91506142fe826142bb565b915061430a8284614263565b91508190509392505050565b7f5061757361626c653a206e6f74207061757365640000000000000000000000005f82015250565b5f61434a601483612c0c565b915061435582614316565b602082019050919050565b5f6020820190508181035f8301526143778161433e565b9050919050565b5f61438882612b33565b915061439383612b33565b92508282019050808211156143ab576143aa613bf4565b5b92915050565b5f6143bb82612b33565b91505f82036143cd576143cc613bf4565b5b600182039050919050565b7f537472696e67733a20686578206c656e67746820696e73756666696369656e745f82015250565b5f61440c602083612c0c565b9150614417826143d8565b602082019050919050565b5f6020820190508181035f83015261443981614400565b905091905056fea26469706673582212203aa3aa7aaafd11b04ed396c38a8f3cb55e359c9b21ae1cfee429aaa9bab7cb8a64736f6c63430008210033","linkReferences":{}},"methodIdentifiers":{"AUDITOR_ROLE()":"6e1d616e","BASE_OPERATIVA_ROLE()":"079a47db","CONSULTOR_ROLE()":"801d25ba","DEFAULT_ADMIN_ROLE()":"a217fddf","JEFE_ESCENA_ROLE()":"d5e49e98","OPERADOR_ROLE()":"9434ef34","abrirEventoIncendio(string,uint256)":"7cf1d61b","asignarInsumo(uint256,bytes32,address)":"d8cb4278","basesAutorizadas(address)":"07735988","bitacoraEvento(uint256,uint256)":"308f72df","brigadistas(address)":"9cd12f22","cerrarIncidente(uint256)":"2b1c4235","getRoleAdmin(bytes32)":"248a9ca3","grantRole(bytes32,address)":"2f2ff15d","hasRole(bytes32,address)":"91d14854","incendios(uint256)":"ccfbee66","inventario(bytes32)":"1730e0d6","nextEventoID()":"2101bcfd","obtenerLogEvento(uint256)":"9c11ed41","pause()":"8456cb59","paused()":"5c975abb","registrarBitacoraTactica(uint256,string)":"4dc1fb2b","registrarHito(uint256,bytes32,string,uint8)":"fc5b8505","registrarInsumo(bytes32,string,uint256)":"12d81c2f","registrarInsumosBatch(bytes32[],string[],uint256[])":"f0fb65fd","registrarPersonal(address,string,string,bytes32)":"4b78e0da","renounceRole(bytes32,address)":"36568abe","retornarInsumo(bytes32,uint8,uint256,string)":"aeeffa1b","revokeRole(bytes32,address)":"d547741f","supportsInterface(bytes4)":"01ffc9a7","unpause()":"3f4ba83a"},"id":0}