{"abi":[{"type":"constructor","inputs":[],"stateMutability":"nonpayable"},{"type":"function","name":"AUDITOR_ROLE","inputs":[],"outputs":[{"name":"","type":"bytes32","internalType":"bytes32"}],"stateMutability":"view"},{"type":"function","name":"BASE_OPERATIVA_ROLE","inputs":[],"outputs":[{"name":"","type":"bytes32","internalType":"bytes32"}],"stateMutability":"view"},{"type":"function","name":"CONSULTOR_ROLE","inputs":[],"outputs":[{"name":"","type":"bytes32","internalType":"bytes32"}],"stateMutability":"view"},{"type":"function","name":"DEFAULT_ADMIN_ROLE","inputs":[],"outputs":[{"name":"","type":"bytes32","internalType":"bytes32"}],"stateMutability":"view"},{"type":"function","name":"JEFE_ESCENA_ROLE","inputs":[],"outputs":[{"name":"","type":"bytes32","internalType":"bytes32"}],"stateMutability":"view"},{"type":"function","name":"OPERADOR_ROLE","inputs":[],"outputs":[{"name":"","type":"bytes32","internalType":"bytes32"}],"stateMutability":"view"},{"type":"function","name":"abrirEventoIncendio","inputs":[{"name":"_coordenadas","type":"string","internalType":"string"},{"name":"_riesgo","type":"uint256","internalType":"uint256"}],"outputs":[],"stateMutability":"nonpayable"},{"type":"function","name":"actualizarRiesgoIncendio","inputs":[{"name":"_eventoID","type":"uint256","internalType":"uint256"},{"name":"_nuevoRiesgo","type":"uint256","internalType":"uint256"}],"outputs":[],"stateMutability":"nonpayable"},{"type":"function","name":"asignarInsumo","inputs":[{"name":"_eventoID","type":"uint256","internalType":"uint256"},{"name":"_codigo","type":"bytes32","internalType":"bytes32"},{"name":"_operador","type":"address","internalType":"address"}],"outputs":[],"stateMutability":"nonpayable"},{"type":"function","name":"auditoriasPendientes","inputs":[{"name":"","type":"bytes32","internalType":"bytes32"}],"outputs":[{"name":"estadoPropuesto","type":"uint8","internalType":"enum TrazabilidadLogistica.EstadoInsumo"},{"name":"consumoReal","type":"uint256","internalType":"uint256"},{"name":"motivo","type":"string","internalType":"string"},{"name":"activa","type":"bool","internalType":"bool"}],"stateMutability":"view"},{"type":"function","name":"basesAutorizadas","inputs":[{"name":"","type":"address","internalType":"address"}],"outputs":[{"name":"","type":"bool","internalType":"bool"}],"stateMutability":"view"},{"type":"function","name":"bitacoraEvento","inputs":[{"name":"","type":"uint256","internalType":"uint256"},{"name":"","type":"uint256","internalType":"uint256"}],"outputs":[{"name":"eventoID","type":"uint256","internalType":"uint256"},{"name":"codigoInsumo","type":"bytes32","internalType":"bytes32"},{"name":"operador","type":"address","internalType":"address"},{"name":"timestamp","type":"uint256","internalType":"uint256"},{"name":"detalles","type":"string","internalType":"string"},{"name":"esDiscrepancia","type":"bool","internalType":"bool"}],"stateMutability":"view"},{"type":"function","name":"brigadistas","inputs":[{"name":"","type":"address","internalType":"address"}],"outputs":[{"name":"billetera","type":"address","internalType":"address"},{"name":"nombre","type":"string","internalType":"string"},{"name":"especialidad","type":"string","internalType":"string"},{"name":"estaActivo","type":"bool","internalType":"bool"}],"stateMutability":"view"},{"type":"function","name":"cerrarIncidente","inputs":[{"name":"_eventoID","type":"uint256","internalType":"uint256"}],"outputs":[],"stateMutability":"nonpayable"},{"type":"function","name":"contadorRecursos","inputs":[{"name":"","type":"address","internalType":"address"}],"outputs":[{"name":"","type":"uint256","internalType":"uint256"}],"stateMutability":"view"},{"type":"function","name":"despliegueActual","inputs":[{"name":"","type":"address","internalType":"address"}],"outputs":[{"name":"","type":"uint256","internalType":"uint256"}],"stateMutability":"view"},{"type":"function","name":"firmarDeslinde","inputs":[{"name":"_codigo","type":"bytes32","internalType":"bytes32"}],"outputs":[],"stateMutability":"nonpayable"},{"type":"function","name":"getListaPersonal","inputs":[],"outputs":[{"name":"","type":"address[]","internalType":"address[]"}],"stateMutability":"view"},{"type":"function","name":"getRoleAdmin","inputs":[{"name":"role","type":"bytes32","internalType":"bytes32"}],"outputs":[{"name":"","type":"bytes32","internalType":"bytes32"}],"stateMutability":"view"},{"type":"function","name":"grantRole","inputs":[{"name":"role","type":"bytes32","internalType":"bytes32"},{"name":"account","type":"address","internalType":"address"}],"outputs":[],"stateMutability":"nonpayable"},{"type":"function","name":"hasRole","inputs":[{"name":"role","type":"bytes32","internalType":"bytes32"},{"name":"account","type":"address","internalType":"address"}],"outputs":[{"name":"","type":"bool","internalType":"bool"}],"stateMutability":"view"},{"type":"function","name":"incendios","inputs":[{"name":"","type":"uint256","internalType":"uint256"}],"outputs":[{"name":"eventoID","type":"uint256","internalType":"uint256"},{"name":"jefeDeEscena","type":"address","internalType":"address"},{"name":"timestampInicio","type":"uint256","internalType":"uint256"},{"name":"timestampFin","type":"uint256","internalType":"uint256"},{"name":"coordenadas","type":"string","internalType":"string"},{"name":"riesgo","type":"uint256","internalType":"uint256"},{"name":"activo","type":"bool","internalType":"bool"}],"stateMutability":"view"},{"type":"function","name":"iniciarRetorno","inputs":[{"name":"_codigo","type":"bytes32","internalType":"bytes32"}],"outputs":[],"stateMutability":"nonpayable"},{"type":"function","name":"inventario","inputs":[{"name":"","type":"bytes32","internalType":"bytes32"}],"outputs":[{"name":"codigoInventario","type":"bytes32","internalType":"bytes32"},{"name":"descripcion","type":"string","internalType":"string"},{"name":"basePropietaria","type":"address","internalType":"address"},{"name":"custodioActual","type":"address","internalType":"address"},{"name":"estado","type":"uint8","internalType":"enum TrazabilidadLogistica.EstadoInsumo"},{"name":"estadoReportadoF2","type":"uint8","internalType":"enum TrazabilidadLogistica.EstadoReportado"},{"name":"ultimoMantenimiento","type":"uint256","internalType":"uint256"},{"name":"consumoNominal","type":"uint256","internalType":"uint256"},{"name":"inicioUso","type":"uint256","internalType":"uint256"}],"stateMutability":"view"},{"type":"function","name":"listaPersonal","inputs":[{"name":"","type":"uint256","internalType":"uint256"}],"outputs":[{"name":"","type":"address","internalType":"address"}],"stateMutability":"view"},{"type":"function","name":"nextEventoID","inputs":[],"outputs":[{"name":"","type":"uint256","internalType":"uint256"}],"stateMutability":"view"},{"type":"function","name":"obtenerLogEvento","inputs":[{"name":"_eventoID","type":"uint256","internalType":"uint256"}],"outputs":[{"name":"","type":"tuple[]","internalType":"struct TrazabilidadLogistica.LogOperativo[]","components":[{"name":"eventoID","type":"uint256","internalType":"uint256"},{"name":"codigoInsumo","type":"bytes32","internalType":"bytes32"},{"name":"operador","type":"address","internalType":"address"},{"name":"timestamp","type":"uint256","internalType":"uint256"},{"name":"detalles","type":"string","internalType":"string"},{"name":"esDiscrepancia","type":"bool","internalType":"bool"}]}],"stateMutability":"view"},{"type":"function","name":"pause","inputs":[],"outputs":[],"stateMutability":"nonpayable"},{"type":"function","name":"paused","inputs":[],"outputs":[{"name":"","type":"bool","internalType":"bool"}],"stateMutability":"view"},{"type":"function","name":"registrarAuditoria","inputs":[{"name":"_codigo","type":"bytes32","internalType":"bytes32"},{"name":"_estadoPropuesto","type":"uint8","internalType":"enum TrazabilidadLogistica.EstadoInsumo"},{"name":"_consumoReal","type":"uint256","internalType":"uint256"},{"name":"_motivoDiscrepancia","type":"string","internalType":"string"}],"outputs":[],"stateMutability":"nonpayable"},{"type":"function","name":"registrarBitacoraTactica","inputs":[{"name":"_eventoID","type":"uint256","internalType":"uint256"},{"name":"_detalles","type":"string","internalType":"string"}],"outputs":[],"stateMutability":"nonpayable"},{"type":"function","name":"registrarHito","inputs":[{"name":"_eventoID","type":"uint256","internalType":"uint256"},{"name":"_codigo","type":"bytes32","internalType":"bytes32"},{"name":"_detalles","type":"string","internalType":"string"},{"name":"_nuevoEstadoProvisional","type":"uint8","internalType":"enum TrazabilidadLogistica.EstadoReportado"}],"outputs":[],"stateMutability":"nonpayable"},{"type":"function","name":"registrarInsumo","inputs":[{"name":"codigo","type":"bytes32","internalType":"bytes32"},{"name":"descripcion","type":"string","internalType":"string"},{"name":"consumoNominal","type":"uint256","internalType":"uint256"}],"outputs":[],"stateMutability":"nonpayable"},{"type":"function","name":"registrarInsumosBatch","inputs":[{"name":"codigos","type":"bytes32[]","internalType":"bytes32[]"},{"name":"descripciones","type":"string[]","internalType":"string[]"},{"name":"consumos","type":"uint256[]","internalType":"uint256[]"}],"outputs":[],"stateMutability":"nonpayable"},{"type":"function","name":"registrarPersonal","inputs":[{"name":"_billetera","type":"address","internalType":"address"},{"name":"_nombre","type":"string","internalType":"string"},{"name":"_especialidad","type":"string","internalType":"string"},{"name":"_role","type":"bytes32","internalType":"bytes32"}],"outputs":[],"stateMutability":"nonpayable"},{"type":"function","name":"registrarReporteAuditoria","inputs":[{"name":"_eventoID","type":"uint256","internalType":"uint256"},{"name":"_reporte","type":"string","internalType":"string"}],"outputs":[],"stateMutability":"nonpayable"},{"type":"function","name":"renounceRole","inputs":[{"name":"role","type":"bytes32","internalType":"bytes32"},{"name":"account","type":"address","internalType":"address"}],"outputs":[],"stateMutability":"nonpayable"},{"type":"function","name":"retornarInsumo","inputs":[{"name":"","type":"bytes32","internalType":"bytes32"},{"name":"","type":"uint8","internalType":"enum TrazabilidadLogistica.EstadoInsumo"},{"name":"","type":"uint256","internalType":"uint256"},{"name":"","type":"string","internalType":"string"}],"outputs":[],"stateMutability":"pure"},{"type":"function","name":"revokeRole","inputs":[{"name":"role","type":"bytes32","internalType":"bytes32"},{"name":"account","type":"address","internalType":"address"}],"outputs":[],"stateMutability":"nonpayable"},{"type":"function","name":"supportsInterface","inputs":[{"name":"interfaceId","type":"bytes4","internalType":"bytes4"}],"outputs":[{"name":"","type":"bool","internalType":"bool"}],"stateMutability":"view"},{"type":"function","name":"unpause","inputs":[],"outputs":[],"stateMutability":"nonpayable"},{"type":"event","name":"AlertaConsumo","inputs":[{"name":"eventoID","type":"uint256","indexed":true,"internalType":"uint256"},{"name":"codigo","type":"bytes32","indexed":true,"internalType":"bytes32"},{"name":"esperado","type":"uint256","indexed":false,"internalType":"uint256"},{"name":"real","type":"uint256","indexed":false,"internalType":"uint256"}],"anonymous":false},{"type":"event","name":"DiscrepanciaRegistrada","inputs":[{"name":"eventoID","type":"uint256","indexed":true,"internalType":"uint256"},{"name":"codigo","type":"bytes32","indexed":true,"internalType":"bytes32"},{"name":"motivo","type":"string","indexed":false,"internalType":"string"}],"anonymous":false},{"type":"event","name":"HitoRegistrado","inputs":[{"name":"eventoID","type":"uint256","indexed":true,"internalType":"uint256"},{"name":"codigo","type":"bytes32","indexed":true,"internalType":"bytes32"},{"name":"operador","type":"address","indexed":true,"internalType":"address"},{"name":"detalles","type":"string","indexed":false,"internalType":"string"}],"anonymous":false},{"type":"event","name":"IncendioCerrado","inputs":[{"name":"eventoID","type":"uint256","indexed":true,"internalType":"uint256"}],"anonymous":false},{"type":"event","name":"IncendioIniciado","inputs":[{"name":"eventoID","type":"uint256","indexed":true,"internalType":"uint256"},{"name":"coordenadas","type":"string","indexed":false,"internalType":"string"},{"name":"riesgo","type":"uint256","indexed":false,"internalType":"uint256"}],"anonymous":false},{"type":"event","name":"InsumoAsignado","inputs":[{"name":"eventoID","type":"uint256","indexed":true,"internalType":"uint256"},{"name":"codigo","type":"bytes32","indexed":true,"internalType":"bytes32"},{"name":"operador","type":"address","indexed":false,"internalType":"address"}],"anonymous":false},{"type":"event","name":"InsumoRegistrado","inputs":[{"name":"codigo","type":"bytes32","indexed":true,"internalType":"bytes32"},{"name":"descripcion","type":"string","indexed":false,"internalType":"string"},{"name":"base","type":"address","indexed":false,"internalType":"address"}],"anonymous":false},{"type":"event","name":"InsumoRetornado","inputs":[{"name":"codigo","type":"bytes32","indexed":true,"internalType":"bytes32"},{"name":"estadoFinal","type":"uint8","indexed":false,"internalType":"enum TrazabilidadLogistica.EstadoInsumo"}],"anonymous":false},{"type":"event","name":"Paused","inputs":[{"name":"account","type":"address","indexed":false,"internalType":"address"}],"anonymous":false},{"type":"event","name":"RiesgoActualizado","inputs":[{"name":"eventoID","type":"uint256","indexed":true,"internalType":"uint256"},{"name":"viejoRiesgo","type":"uint256","indexed":false,"internalType":"uint256"},{"name":"nuevoRiesgo","type":"uint256","indexed":false,"internalType":"uint256"},{"name":"autor","type":"address","indexed":false,"internalType":"address"}],"anonymous":false},{"type":"event","name":"RoleAdminChanged","inputs":[{"name":"role","type":"bytes32","indexed":true,"internalType":"bytes32"},{"name":"previousAdminRole","type":"bytes32","indexed":true,"internalType":"bytes32"},{"name":"newAdminRole","type":"bytes32","indexed":true,"internalType":"bytes32"}],"anonymous":false},{"type":"event","name":"RoleGranted","inputs":[{"name":"role","type":"bytes32","indexed":true,"internalType":"bytes32"},{"name":"account","type":"address","indexed":true,"internalType":"address"},{"name":"sender","type":"address","indexed":true,"internalType":"address"}],"anonymous":false},{"type":"event","name":"RoleRevoked","inputs":[{"name":"role","type":"bytes32","indexed":true,"internalType":"bytes32"},{"name":"account","type":"address","indexed":true,"internalType":"address"},{"name":"sender","type":"address","indexed":true,"internalType":"address"}],"anonymous":false},{"type":"event","name":"Unpaused","inputs":[{"name":"account","type":"address","indexed":false,"internalType":"address"}],"anonymous":false}],"bytecode":{"object":"0x608060405234609b576001805460ff191681556002819055600355335f9081525f51602061393e5f395f51905f52602052604090205460ff1615604c575b60405161389e90816100a08239f35b335f8181525f51602061393e5f395f51905f5260205260408120805460ff1916600117905581907f2f8788117e7eff1d82e926ec794901d17c78024a50270940304540a733656f0d8180a4603d565b5f80fdfe6080806040526004361015610012575f80fd5b5f3560e01c90816301ffc9a714612975575080630773598814612938578063079a47db146128fe57806312d81c2f146128a35780631730e0d6146127de57806320f63985146125a25780632101bcfd14612585578063248a9ca3146125535780632b1c4235146123ea5780632f2ff15d146123335780632fa6b670146122fb578063308f72df1461226657806333636f6e1461204c57806336568abe14611fba5780633f4ba83a14611f275780634b78e0da14611aa15780634dc1fb2b146119f75780635c975abb146119d5578063676dd3391461190d5780636e1d616e146118d35780637cf1d61b146115dd578063801d25ba146115a3578063812e9454146115615780638456cb59146115095780638b6ad2c61461104657806391d1485414610ffe5780639434ef3414610fc45780639c11ed4114610e545780639cd12f2214610dcb578063a217fddf14610db1578063aeeffa1b14610d35578063ccfbee6614610ca5578063d547741f14610c61578063d5e49e9814610c27578063d8cb4278146108cc578063db364cc0146106a4578063ed59fb0614610530578063f0fb65fd14610380578063f5f119aa1461030c578063fc5b85051461021b5763fd358539146101df575f80fd5b34610217576020366003190112610217576001600160a01b036102006129c8565b165f52600b602052602060405f2054604051908152f35b5f80fd5b34610217576080366003190112610217576004356024356044356001600160401b03811161021757610251903690600401612c34565b916064356004811015610217576102a09061026a613107565b835f52600460205261028c60018060a01b03600360405f200154163314612f36565b835f526004602052600360405f2001612f9e565b805f5260076020526102e260405f20604051906102bc82612a59565b8382528460208301523360408301524260608301528560808301525f60a0830152612d34565b5f5160206138495f395f51905f52604051602081528061030733966020830190612b50565b0390a4005b34610217576020366003190112610217576004355f52600a60205261035e60405f2060ff8154169061037460018201549160ff600361034d60028401612ab0565b920154169260405195868096612b74565b6020850152608060408501526080840190612b50565b90151560608301520390f35b34610217576060366003190112610217576004356001600160401b038111610217576103b0903690600401612caa565b906024356001600160401b038111610217576103d0903690600401612caa565b6044356001600160401b038111610217576103ef903690600401612caa565b9290946103fa612fc2565b6104026131c0565b61040a613663565b82811480610527575b156104d7575f5b818110610428576001600255005b610433818388612f8e565b355f52600460205260405f20541561044e575b60010161041a565b610459818388612f8e565b3590848110156104c3578060051b840135601e19853603018112156102175784018035906001600160401b03821161021757602001908036038213610217576001936104b66104bc936104ad868c8f612f8e565b35933691612bfe565b90613204565b9050610446565b634e487b7160e01b5f52603260045260245ffd5b60405162461bcd60e51b815260206004820152602260248201527f4c6f6e67697475642064652061727265676c6f7320696e636f6e73697374656e604482015261746560f01b6064820152608490fd5b50838114610413565b346102175760203660031901126102175760043561054c613107565b6105546131c0565b805f52600460205261057660018060a01b03600360405f200154163314612f36565b805f52600460205260ff600360405f20015460a01c1660058110156106905760010361065a575f818152600460209081526040808320600301805460ff60a01b1916600160a21b179055338352600b90915290205490816105d357005b604051916105e2608084612a8f565b604383527f5265746f726e6f20416e746963697061646f3a20456c2065717569706f20766160208401527f206465207675656c74612061206261736520616e7465732064656c206369657260408401526239329760e91b6060840152805f5260076020526102e260405f20604051906102bc82612a59565b60405162461bcd60e51b815260206004820152600e60248201526d4e6f206573746120656e2075736f60901b6044820152606490fd5b634e487b7160e01b5f52602160045260245ffd5b34610217576106b236612c6a565b92906106bc612fc2565b6106c46131c0565b6106cc613663565b815f52600460205260ff600360405f20015460a01c16600581101561069057600403610892576107086040519361070285612a74565b84612f76565b60208301908152604083019384526060830191600183525f52600a60205260405f20925160058110156106905760ff801985541691161783555160018301556002820192519283516001600160401b03811161087e576107688254612a21565b601f811161083b575b506020601f82116001146107d3578160039493926107a8926107c1985f926107c8575b50508160011b915f199060031b1c19161790565b90555b51151591019060ff801983541691151516179055565b6001600255005b015190508880610794565b601f19821695835f52815f20965f5b818110610823575096600192849260039796956107c19a1061080c575b505050811b0190556107ab565b01515f1983881b60f8161c191690558780806107ff565b838301518955600190980197602093840193016107e2565b818111156107715761087090835f5260205f2090601f840160051c9060208510610876575b601f82910160051c039101612d19565b85610771565b5f9150610860565b634e487b7160e01b5f52604160045260245ffd5b60405162461bcd60e51b81526020600482015260126024820152714e6f206573746120656e207265746f726e6f60701b6044820152606490fd5b34610217576060366003190112610217576024356004356044356001600160a01b0381169081900361021757610900613039565b610908613663565b6109106131c0565b815f52600660205261092b60ff600660405f20015416612cda565b825f52600460205260ff600360405f20015460a01c16600581101561069057610beb575f8181527f076b16d7b6d895523585ddb38ef9c6438a6feac6f1c5e100f1239f95ff4b172a602052604090205460ff1615610ba657805f52600b60205260405f2054158015610b91575b15610b38575f8381526004602090815260408083206003810180546001600160a81b0319168617600160a01b17905542600691820155858452909152902060070180549091600160401b82101561087e57600182018084558210156104c357846020927f45c6504610ce381c3bf12be4be1022b9cf010fd050104cbb2c9ee88939ae5c2c945f52835f200155805f52600b82528360405f2055805f52600c825260405f20610a468154612f28565b9055845f5260048252610b2a82610aee600d610a67600160405f2001612ab0565b855f5260058452603784610a80600160405f2001612ab0565b6040519687947f417369676e6163696f6e206465205265637572736f3a20000000000000000000828701528051918291018587015e8401906c01032b73a3932b3b0b23790309609d1b84830152805192839101604483015e01015f838201520301601f198101835282612a8f565b855f526007845260405f2060405191610b0683612a59565b878352888684015284604084015242606084015260808301525f60a0830152612d34565b604051908152a36001600255005b60405162461bcd60e51b815260206004820152602b60248201527f4272696761646973746120617369676e61646f2061206f74726f20696e63696460448201526a656e74652061637469766f60a81b6064820152608490fd5b50805f52600b6020528160405f205414610998565b60405162461bcd60e51b815260206004820152601b60248201527f44657374696e61746172696f206e6f206573206f70657261646f7200000000006044820152606490fd5b60405162461bcd60e51b8152602060048201526014602482015273496e73756d6f206e6f20646973706f6e69626c6560601b6044820152606490fd5b34610217575f3660031901126102175760206040517f1c33b934193907dc14a35370982c68e37544b8f15b0b2800284cda811d8d84568152f35b3461021757604036600319011261021757610ca3600435610c806129de565b90610c9e610c99825f525f602052600160405f20015490565b61317e565b6135e3565b005b34610217576020366003190112610217576004355f52600660205260405f20805460018060a01b03600183015416916002810154610d246003830154610ced60048501612ab0565b9060ff600660058701549601541693604051978897885260208801526040870152606086015260e0608086015260e0850190612b50565b9160a0840152151560c08301520390f35b3461021757610d4336612c6a565b50505050608460405162461bcd60e51b815260206004820152603e60248201527f55736520656c20666c756a6f2064652048616e647368616b653a20726567697360448201527f7472617241756469746f726961202b206669726d61724465736c696e646500006064820152fd5b34610217575f3660031901126102175760206040515f8152f35b34610217576020366003190112610217576001600160a01b03610dec6129c8565b165f90815260056020526040902080546001600160a01b0316610e1160018301612ab0565b9161037460ff6003610e2560028501612ab0565b9301541691610e466040519586958652608060208701526080860190612b50565b908482036040860152612b50565b34610217576020366003190112610217576004355f52600760205260405f208054906001600160401b03821161087e5760208260051b0191610e996040519384612a8f565b8083526020830180925f5260205f205f915b838310610f5c57848660405191829160208301906020845251809152604083019060408160051b85010192915f905b828210610ee957505050500390f35b919360019193955060208091603f19898203018552875190815181528282015183820152848060a01b0360408301511660408201526060820151606082015260a080610f44608085015160c0608086015260c0850190612b50565b93015115159101529601920192018594939192610eda565b60066020600192604051610f6f81612a59565b855481528486015483820152848060a01b03600287015416604082015260038601546060820152610fa260048701612ab0565b608082015260ff600587015416151560a0820152815201920192019190610eab565b34610217575f3660031901126102175760206040517ff0e27d98792a1f4388176184868b885d3f7997fa8a9a3b972f6b9007c69106588152f35b34610217576040366003190112610217576110176129de565b6004355f525f60205260405f209060018060a01b03165f52602052602060ff60405f2054166040519015158152f35b3461021757602036600319011261021757600435611062613107565b61106a6131c0565b611072613663565b805f52600460205261109460018060a01b03600360405f200154163314612f36565b805f52600a60205260ff600360405f20015416156114c457805f52600a60205260405f20604051906110c582612a74565b6110d360ff82541683612f76565b60018101546020830190815260ff60036110ef60028501612ab0565b936040860194855201541615156060840152835f52600460205260405f20335f52600b60205260405f2054916005820154801515806114b7575b611419575b5050835192600584101561069057600382019360ff855460a81c1691600483101561069057879260ff869316036113d4575b50505083516005811015610690576111789084612edd565b60018060a01b03835416926bffffffffffffffffffffffff60a01b81541690555f6006820155600442910155835f52600a6020525f600360408220828155826001820155600281016111ca8154612a21565b9081611390575b505001558061126e575b50805f52600c60205260405f2054611232575b505160058110156106905760207f126f2357217a57a127d57de8579b758d2dc7d17f1fc644303f7c0c2790abcc719161122a6040518092612b74565ba26001600255005b805f52600c60205260405f206112488154612f82565b9055805f52600c60205260405f20546111ee575f52600b6020525f6040812055826111ee565b835f52600460205283600160405f20019160405180937f41637461206465204465766f6c7563696f6e204669726d6164613a200000000060208301525f908054906112b882612a21565b916001811690811561136c575060011461132c575b5050906112e29103601f198101855284612a8f565b805f5260076020526112fe60405f20604051906102bc82612a59565b5f5160206138495f395f51905f52604051602081528061132333966020830190612b50565b0390a4836111db565b9091505f5260205f205f905b82821061134f5750508101603c016112e2896112cd565b8054603c8389010152899550869350602090910190600101611338565b90506112e2949350603c92915060ff191682840152801515028201019091896112cd565b81601f8693116001146113a75750555b87806111d1565b818352602083206113c491601f0160051c84190190600101612d19565b80825281602081209155556113a0565b61140e7f4ba644195ddad15d5480bbdf892fd3a68317084d3e4a49d17a0120c2f0d0fa749151604051918291602083526020830190612b50565b0390a3848287611160565b6006830154804203914283116114a3578083029283041490421417156114a357610e109004908051916078810291818304607814821517156114a3578893606487940410611469575b505061112e565b7f9460118c07ceacdad770843a755ebf21b9b6188fe176613728061007f600cbcd916040915182519182526020820152a384828780611462565b634e487b7160e01b5f52601160045260245ffd5b5060068301541515611129565b60405162461bcd60e51b815260206004820152601a60248201527f4e6f206861792061756469746f7269612070656e6469656e74650000000000006044820152606490fd5b34610217575f366003190112610217576115216130b0565b6115296131c0565b600160ff19815416176001557f62e78cea01bee320cd4e420270b5ea74000d11b0c9f74754ebdbfc544b05a2586020604051338152a1005b34610217576020366003190112610217576004356009548110156102175761158a602091612c52565b905460405160039290921b1c6001600160a01b03168152f35b34610217575f3660031901126102175760206040517facaade3b8ba30639994a37216e3f69a43c82aee06bd093696f45c6386815da218152f35b34610217576040366003190112610217576004356001600160401b0381116102175761160d903690600401612c34565b60243590611619613039565b6116216131c0565b6003549161162e83612f28565b6003556020906040516116418382612a8f565b5f81525f36813760405161010081018181106001600160401b0382111761087e57604090815286825233858301908152428383019081525f60608501818152608086018a815260a08701898152600160c0890181815260e08a019a8b528e865260068d529790942097518855945192870180546001600160a01b0319166001600160a01b039490941693909317909255915160028601559051600385015551805160048501916001600160401b03821161087e576116ff8354612a21565b601f811161189b575b508890601f831160011461182f57826117619593600798979593611740935f926118245750508160011b915f199060031b1c19161790565b90555b516005840155511515600683019060ff801983541691151516179055565b019051908151916001600160401b03831161087e57600160401b831161087e57849082548484558085106117f8575b5001905f52835f205f5b8381106117e657877f0a21e54b25e00ab323df8e4bd0d986ce1c742f1493372abb6fe4cdbd58a653a36117dd898989604051938493604085526040850190612b50565b918301520390a2005b8251828201559185019160010161179a565b835f528480845f20019103905f5b828110611814575050611790565b5f81830155889450600101611806565b015190508e80610794565b90601f19831691845f528a5f20925f5b8c828210611885575050926001928592611761989660079b9a98961061186d575b505050811b019055611743565b01515f1960f88460031b161c191690558d8080611860565b600185968293968601518155019501930161183f565b82811115611708576118cd90845f528a5f2090601f850160051c908c861061087657601f82910160051c039101612d19565b8b611708565b34610217575f3660031901126102175760206040517f59a1c48e5837ad7a7f3dcedcbe129bf3249ec4fbf651fd4f5e2600ead39fe2f58152f35b34610217575f366003190112610217576040518060206009549283815201809260095f527f6e1540171b6c0c960b71a7020d9f60077f6af931a8bbf590da0223dacf75c7af905f5b8181106119b6575050508161196b910382612a8f565b604051918291602083019060208452518091526040830191905f5b818110611994575050500390f35b82516001600160a01b0316845285945060209384019390920191600101611986565b82546001600160a01b0316845260209093019260019283019201611955565b34610217575f36600319011261021757602060ff600154166040519015158152f35b34610217575f5160206138495f395f51905f525f610307611a1736612bb0565b611a249592939195613039565b611a2c6131c0565b8385526006602052611a4760ff600660408820015416612cda565b8385526007602052611a936040862060405190611a6382612a59565b868252876020830152336040830152426060830152611a8336858b612bfe565b60808301528760a0830152612d34565b604051918291339783612f01565b3461021757608036600319011261021757611aba6129c8565b6024356001600160401b03811161021757611ad9903690600401612c34565b6044356001600160401b03811161021757611af8903690600401612c34565b60643592611b046131c0565b335f9081527fad3228b676f7d3cd4284a5443f17f1962b36e491b30a40b2405849e597ba5fb5602052604090205460ff168015611ef0575b15611e9d576001600160a01b039081165f8181526005602052604090205490939116611e685760405191611b6f83612a74565b838352602080840192835260408085019283526001606086018181525f888152600590945291909220945185546001600160a01b0319166001600160a01b03919091161785559251805191850191906001600160401b03821161087e57611bd68354612a21565b601f8111611e2e575b50602090601f8311600114611dcb57611c0e92915f9183611dc05750508160011b915f199060031b1c19161790565b90555b51805160028401916001600160401b03821161087e57611c318354612a21565b601f8111611d86575b50602090601f8311600114611d1d5782611c72969593600395936107a8935f92611d125750508160011b915f199060031b1c19161790565b600954600160401b81101561087e57806001611c919201600955612c52565b81549060031b9083821b9160018060a01b03901b1916179055815f525f60205260405f20815f5260205260ff60405f20541615611cca57005b815f525f60205260405f20815f5260205260405f20600160ff1982541617905533917f2f8788117e7eff1d82e926ec794901d17c78024a50270940304540a733656f0d5f80a4005b015190508a80610794565b90601f19831691845f52815f20925f5b818110611d6e5750926001928592611c729998966003989610611d5757505050811b0190556107ab565b01515f1983881b60f8161c191690558980806107ff565b92936020600181928786015181550195019301611d2d565b82811115611c3a57611dba90845f5260205f2090601f850160051c906020861061087657601f82910160051c039101612d19565b87611c3a565b015190508980610794565b90601f19831691845f52815f20925f5b818110611e165750908460019594939210611dfe575b505050811b019055611c11565b01515f1960f88460031b161c19169055888080611df1565b92936020600181928786015181550195019301611ddb565b82811115611bdf57611e6290845f5260205f2090601f850160051c906020861061087657601f82910160051c039101612d19565b88611bdf565b60405162461bcd60e51b815260206004820152600d60248201526c5961207265676973747261646f60981b6044820152606490fd5b60405162461bcd60e51b815260206004820152602560248201527f4e6f206175746f72697a61646f207061726120726567697374726172207065726044820152641cdbdb985b60da1b6064820152608490fd5b50335f9081527f47269a026ebf0bd254cb25d8cf016769c6b577db8bf1cd82b8ad5d349aee4a01602052604090205460ff16611b3c565b34610217575f36600319011261021757611f3f6130b0565b60015460ff811615611f7e5760ff19166001557f5db9ee0a495bf2e6ff9c91a7834c1ba4fdd244a5e8aa4e537bd38aeae4b073aa6020604051338152a1005b60405162461bcd60e51b815260206004820152601460248201527314185d5cd8589b194e881b9bdd081c185d5cd95960621b6044820152606490fd5b3461021757604036600319011261021757611fd36129de565b336001600160a01b03821603611fef57610ca3906004356135e3565b60405162461bcd60e51b815260206004820152602f60248201527f416363657373436f6e74726f6c3a2063616e206f6e6c792072656e6f756e636560448201526e103937b632b9903337b91039b2b63360891b6064820152608490fd5b346102175761205a36612bb0565b335f9081527f0d2d6a5d08cb5d871289c0a3ca855d9da72909a111c24cce2d5c2b34a20daa5460205260409020549192909160ff16156121915761209c6131c0565b805f52600660205260ff600660405f20015416612155575f5160206138495f395f51905f526103075f938385526007602052611a9360408620604051907f5045524954414a452046494e414c2041554449544f5249413a2000000000000060208301528389603a840137612123603a838681018b838201520301601f198101845283612a8f565b6040519161213083612a59565b87835288602084015233604084015242606084015260808301528760a0830152612d34565b60405162461bcd60e51b8152602060048201526014602482015273496e636964656e74652061756e2061637469766f60601b6044820152606490fd5b612262602061224260116121a4336136c8565b6037846121d07f59a1c48e5837ad7a7f3dcedcbe129bf3249ec4fbf651fd4f5e2600ead39fe2f56137af565b6040519687947f416363657373436f6e74726f6c3a206163636f756e7420000000000000000000828701528051918291018587015e8401907001034b99036b4b9b9b4b733903937b6329607d1b84830152805192839101604883015e01015f838201520301601f198101835282612a8f565b60405162461bcd60e51b8152602060048201529182916024830190612b50565b0390fd5b346102175761227436612b81565b905f52600760205260405f209081548110156102175761229391612b97565b5080546001820154916122ef60018060a01b0360028301541691600381015460ff60056122c260048501612ab0565b9301541693604051968796875260208701526040860152606085015260c0608085015260c0840190612b50565b90151560a08301520390f35b34610217576020366003190112610217576001600160a01b0361231c6129c8565b165f52600c602052602060405f2054604051908152f35b346102175760403660031901126102175760043561234f6129de565b90612368610c99825f525f602052600160405f20015490565b5f818152602081815260408083206001600160a01b038616845290915290205460ff161561239257005b5f818152602081815260408083206001600160a01b0395909516808452949091528120805460ff19166001179055339291907f2f8788117e7eff1d82e926ec794901d17c78024a50270940304540a733656f0d9080a4005b3461021757602036600319011261021757600435612406613039565b61240e6131c0565b805f52600660205260ff600660405f2001541615612521575f818152600660208181526040808420928301805460ff19169055426003840155516007909201805480845290845281842092938492830191905b81811061250857505061247692500382612a8f565b5f5b81518110156124e15760208160051b8301015190815f52600460205260ff600360405f20015460a01c169160058310156106905760018093146124bd575b5001612478565b5f526004602052600360405f20018260a21b60ff60a01b19825416179055846124b6565b827fccb7696195025f4e6e7f9114baab03db051fc97ddb2c6b9d09111341ea52e2d75f80a2005b8454835260019485019486945060209093019201612461565b60405162461bcd60e51b815260206004820152600a6024820152695961206365727261646f60b01b6044820152606490fd5b3461021757602036600319011261021757602061257d6004355f525f602052600160405f20015490565b604051908152f35b34610217575f366003190112610217576020600354604051908152f35b34610217576125b036612b81565b6125b86131c0565b335f9081527f649b62ee4f6ab022f576b4a5f06ee4fd991a1bad6c308d2cf882760af7007187602052604090205460ff1680156127a7575b1561277257815f52600660205261261060ff600660405f20015416612cda565b600181101580612767575b15612730575f8281526006602090815260408083206005018054908590556007835292207f93ca5454d6f0f4848f0ec56e9678aaad69fb6cef60fb00e37b4680d24205e92a9360609392909161271c91906126eb600461267a87613476565b603b8561268689613476565b6040519788947f43616d62696f206465204e6976656c2064652052696573676f3a200000000000828701528051918291018587015e84019063010169f160e51b84830152805192839101603f83015e01015f838201520301601f198101845283612a8f565b604051916126f883612a59565b8883525f6020840152336040840152428784015260808301525f60a0830152612d34565b6040519182526020820152336040820152a2005b60405162461bcd60e51b815260206004820152600f60248201526e52696573676f20696e76616c69646f60881b6044820152606490fd5b50600581111561261b565b60405162461bcd60e51b815260206004820152600d60248201526c4e6f206175746f72697a61646f60981b6044820152606490fd5b50335f9081527f47269a026ebf0bd254cb25d8cf016769c6b577db8bf1cd82b8ad5d349aee4a01602052604090205460ff166125f0565b34610217576020366003190112610217576004355f52600460205260405f2080549061280c60018201612ab0565b60018060a01b036002830154169060038301549260ff8460a81c169361287f6004830154916128586006600586015495015495604051998a5261012060208b01526101208a0190612b50565b60408901969096526001600160a01b0381166060890152608088019060a01c60ff16612b74565b600485101561069057859460a086015260c085015260e08401526101008301520390f35b34610217576060366003190112610217576024356001600160401b038111610217576128f66128d9610ca39236906004016129f4565b91906128e3612fc2565b6128eb6131c0565b604435923691612bfe565b600435613204565b34610217575f3660031901126102175760206040517f731fe6f22e48c8ad24c7515b4379705d9f8883dd221815024b35c6580536cb718152f35b34610217576020366003190112610217576001600160a01b036129596129c8565b165f526008602052602060ff60405f2054166040519015158152f35b34610217576020366003190112610217576004359063ffffffff60e01b821680920361021757602091637965db0b60e01b81149081156129b7575b5015158152f35b6301ffc9a760e01b149050836129b0565b600435906001600160a01b038216820361021757565b602435906001600160a01b038216820361021757565b9181601f84011215610217578235916001600160401b038311610217576020838186019501011161021757565b90600182811c92168015612a4f575b6020831014612a3b57565b634e487b7160e01b5f52602260045260245ffd5b91607f1691612a30565b60c081019081106001600160401b0382111761087e57604052565b608081019081106001600160401b0382111761087e57604052565b90601f801991011681019081106001600160401b0382111761087e57604052565b9060405191825f825492612ac384612a21565b8084529360018116908115612b2e5750600114612aea575b50612ae892500383612a8f565b565b90505f9291925260205f20905f915b818310612b12575050906020612ae8928201015f612adb565b6020919350806001915483858901015201910190918492612af9565b905060209250612ae894915060ff191682840152151560051b8201015f612adb565b805180835260209291819084018484015e5f828201840152601f01601f1916010190565b9060058210156106905752565b6040906003190112610217576004359060243590565b80548210156104c3575f52600660205f20910201905f90565b9060406003198301126102175760043591602435906001600160401b03821161021757612bdf916004016129f4565b9091565b6001600160401b03811161087e57601f01601f191660200190565b929192612c0a82612be3565b91612c186040519384612a8f565b829481845281830111610217578281602093845f960137010152565b9080601f8301121561021757816020612c4f93359101612bfe565b90565b6009548110156104c35760095f5260205f2001905f90565b90608060031983011261021757600435916024356005811015610217579160443591606435906001600160401b03821161021757612c4f91600401612c34565b9181601f84011215610217578235916001600160401b038311610217576020808501948460051b01011161021757565b15612ce157565b60405162461bcd60e51b815260206004820152601060248201526f4576656e746f206e6f2061637469766f60801b6044820152606490fd5b5f5b828110612d2757505050565b5f82820155600101612d1b565b8054600160401b81101561087e57612d5191600182018155612b97565b919091612eca57805182556020810151600183015560408101516002830180546001600160a01b0319166001600160a01b0392909216919091179055606081015160038301556080810151805160048401916001600160401b03821161087e57612dbb8354612a21565b601f8111612e90575b50602090601f8311600114612e235792612dfe8360a094612ae89897946005975f92612e185750508160011b915f199060031b1c19161790565b90555b0151151591019060ff801983541691151516179055565b015190505f80610794565b90601f19831691845f52815f20925f5b818110612e78575093612ae8979693600596936001938360a09810612e60575b505050811b019055612e01565b01515f1960f88460031b161c191690555f8080612e53565b92936020600181928786015181550195019301612e33565b82811115612dc457612ec490845f5260205f2090601f850160051c906020861061087657601f82910160051c039101612d19565b5f612dc4565b634e487b7160e01b5f525f60045260245ffd5b90600581101561069057815460ff60a01b191660a09190911b60ff60a01b16179055565b90918060409360208452816020850152848401375f828201840152601f01601f1916010190565b5f1981146114a35760010190565b15612f3d57565b60405162461bcd60e51b81526020600482015260116024820152704e6f20657320656c20637573746f64696f60781b6044820152606490fd5b60058210156106905752565b80156114a3575f190190565b91908110156104c35760051b0190565b90600481101561069057815460ff60a81b191660a89190911b60ff60a81b16179055565b335f9081527f47269a026ebf0bd254cb25d8cf016769c6b577db8bf1cd82b8ad5d349aee4a01602052604090205460ff1615612ffa57565b6122626020612242601161300d336136c8565b6037846121d07f731fe6f22e48c8ad24c7515b4379705d9f8883dd221815024b35c6580536cb716137af565b335f9081527f649b62ee4f6ab022f576b4a5f06ee4fd991a1bad6c308d2cf882760af7007187602052604090205460ff161561307157565b61226260206122426011613084336136c8565b6037846121d07f1c33b934193907dc14a35370982c68e37544b8f15b0b2800284cda811d8d84566137af565b335f9081527fad3228b676f7d3cd4284a5443f17f1962b36e491b30a40b2405849e597ba5fb5602052604090205460ff16156130e857565b612262602061224260116130fb336136c8565b6037846121d05f6137af565b335f9081527f076b16d7b6d895523585ddb38ef9c6438a6feac6f1c5e100f1239f95ff4b172a602052604090205460ff161561313f57565b61226260206122426011613152336136c8565b6037846121d07ff0e27d98792a1f4388176184868b885d3f7997fa8a9a3b972f6b9007c69106586137af565b5f8181526020818152604080832033845290915290205460ff16156131a05750565b60206122426011612262936037846121d06131ba336136c8565b936137af565b60ff600154166131cc57565b60405162461bcd60e51b815260206004820152601060248201526f14185d5cd8589b194e881c185d5cd95960821b6044820152606490fd5b9190825f52600460205260405f2054613431576040519061012082018281106001600160401b0382111761087e57604052838252602082019181835260408101933285526060820193328552608083015f815260a08401905f825260c085019742895260e086019485526101008601935f85528a5f52600460205260405f20965187556001870190518051906001600160401b03821161087e576132a88354612a21565b601f81116133f7575b50602090601f8311600114613394576132e092915f9183612e185750508160011b915f199060031b1c19161790565b90555b516002860180546001600160a01b03199081166001600160a01b039384161790915597516003870180549099169116178755516005811015610690576133299087612edd565b51916004831015610690577fdc6c6e42e4beb3fd43a594802a1828532a6f0d9b270f6a1ec09bc8dbe4ad837d9661336560069461338998612f9e565b51600485015551600584015551910155604051918291604083526040830190612b50565b3260208301520390a2565b90601f19831691845f52815f20925f5b8181106133df57509084600195949392106133c7575b505050811b0190556132e3565b01515f1960f88460031b161c191690555f80806133ba565b929360206001819287860151815501950193016133a4565b828111156132b15761342b90845f5260205f2090601f850160051c906020861061087657601f82910160051c039101612d19565b5f6132b1565b60405162461bcd60e51b815260206004820152601c60248201527f456c20696e73756d6f2079612065737461207265676973747261646f000000006044820152606490fd5b805f9172184f03e93ff9f4daa797ed6e38ed64bf6a1f0160401b8210156135c0575b806d04ee2d6d415b85acef8100000000600a9210156135a5575b662386f26fc10000811015613591575b6305f5e100811015613580575b612710811015613571575b6064811015613563575b1015613558575b600a602160018401936134fd85612be3565b9461350b6040519687612a8f565b80865261351a601f1991612be3565b013660208701378401015b5f1901916f181899199a1a9b1b9c1cb0b131b232b360811b8282061a835304801561355357600a9091613525565b505090565b6001909101906134eb565b6064600291049301926134e4565b612710600491049301926134da565b6305f5e100600891049301926134cf565b662386f26fc10000601091049301926134c2565b6d04ee2d6d415b85acef8100000000602091049301926134b2565b506040915072184f03e93ff9f4daa797ed6e38ed64bf6a1f0160401b8104613498565b5f818152602081815260408083206001600160a01b038616845290915290205460ff1661360e575050565b5f818152602081815260408083206001600160a01b0395909516808452949091528120805460ff19169055339291907ff6391f5c32d9c69d2a47ea670b442974b53935d1edc7fd64eb21e047a839171b9080a4565b60028054146136725760028055565b60405162461bcd60e51b815260206004820152601f60248201527f5265656e7472616e637947756172643a207265656e7472616e742063616c6c006044820152606490fd5b9081518110156104c3570160200190565b6136d2602a612be3565b906136e06040519283612a8f565b602a82526136ee602a612be3565b6020830190601f19013682378251156104c357603090538151600110156104c3576078602183015360295b6001811161376d57506137295790565b606460405162461bcd60e51b815260206004820152602060248201527f537472696e67733a20686578206c656e67746820696e73756666696369656e746044820152fd5b90600f81169060108210156104c3576137aa916f181899199a1a9b1b9c1cb0b131b232b360811b901a6137a084866136b7565b5360041c91612f82565b613719565b6137b96042612be3565b906137c76040519283612a8f565b604282526137d56042612be3565b6020830190601f19013682378251156104c357603090538151600110156104c3576078602183015360415b6001811161381057506137295790565b90600f81169060108210156104c357613843916f181899199a1a9b1b9c1cb0b131b232b360811b901a6137a084866136b7565b61380056fe743d3a1c7fc430da02b652bd11fe5d5ac31a74fefa0a1b84f81167a324eb5036a26469706673582212202a6edd00e36a56e79bd4136189df0379919e9d192b605a2696122e05f46796cc64736f6c63430008210033ad3228b676f7d3cd4284a5443f17f1962b36e491b30a40b2405849e597ba5fb5","linkReferences":{}},"methodIdentifiers":{"AUDITOR_ROLE()":"6e1d616e","BASE_OPERATIVA_ROLE()":"079a47db","CONSULTOR_ROLE()":"801d25ba","DEFAULT_ADMIN_ROLE()":"a217fddf","JEFE_ESCENA_ROLE()":"d5e49e98","OPERADOR_ROLE()":"9434ef34","abrirEventoIncendio(string,uint256)":"7cf1d61b","actualizarRiesgoIncendio(uint256,uint256)":"20f63985","asignarInsumo(uint256,bytes32,address)":"d8cb4278","auditoriasPendientes(bytes32)":"f5f119aa","basesAutorizadas(address)":"07735988","bitacoraEvento(uint256,uint256)":"308f72df","brigadistas(address)":"9cd12f22","cerrarIncidente(uint256)":"2b1c4235","contadorRecursos(address)":"2fa6b670","despliegueActual(address)":"fd358539","firmarDeslinde(bytes32)":"8b6ad2c6","getListaPersonal()":"676dd339","getRoleAdmin(bytes32)":"248a9ca3","grantRole(bytes32,address)":"2f2ff15d","hasRole(bytes32,address)":"91d14854","incendios(uint256)":"ccfbee66","iniciarRetorno(bytes32)":"ed59fb06","inventario(bytes32)":"1730e0d6","listaPersonal(uint256)":"812e9454","nextEventoID()":"2101bcfd","obtenerLogEvento(uint256)":"9c11ed41","pause()":"8456cb59","paused()":"5c975abb","registrarAuditoria(bytes32,uint8,uint256,string)":"db364cc0","registrarBitacoraTactica(uint256,string)":"4dc1fb2b","registrarHito(uint256,bytes32,string,uint8)":"fc5b8505","registrarInsumo(bytes32,string,uint256)":"12d81c2f","registrarInsumosBatch(bytes32[],string[],uint256[])":"f0fb65fd","registrarPersonal(address,string,string,bytes32)":"4b78e0da","registrarReporteAuditoria(uint256,string)":"33636f6e","renounceRole(bytes32,address)":"36568abe","retornarInsumo(bytes32,uint8,uint256,string)":"aeeffa1b","revokeRole(bytes32,address)":"d547741f","supportsInterface(bytes4)":"01ffc9a7","unpause()":"3f4ba83a"},"id":0}