{"abi":[{"type":"constructor","inputs":[],"stateMutability":"nonpayable"},{"type":"function","name":"AUDITOR_ROLE","inputs":[],"outputs":[{"name":"","type":"bytes32","internalType":"bytes32"}],"stateMutability":"view"},{"type":"function","name":"BASE_OPERATIVA_ROLE","inputs":[],"outputs":[{"name":"","type":"bytes32","internalType":"bytes32"}],"stateMutability":"view"},{"type":"function","name":"CONSULTOR_ROLE","inputs":[],"outputs":[{"name":"","type":"bytes32","internalType":"bytes32"}],"stateMutability":"view"},{"type":"function","name":"DEFAULT_ADMIN_ROLE","inputs":[],"outputs":[{"name":"","type":"bytes32","internalType":"bytes32"}],"stateMutability":"view"},{"type":"function","name":"JEFE_ESCENA_ROLE","inputs":[],"outputs":[{"name":"","type":"bytes32","internalType":"bytes32"}],"stateMutability":"view"},{"type":"function","name":"OPERADOR_ROLE","inputs":[],"outputs":[{"name":"","type":"bytes32","internalType":"bytes32"}],"stateMutability":"view"},{"type":"function","name":"abrirEventoIncendio","inputs":[{"name":"_coordenadas","type":"string","internalType":"string"},{"name":"_riesgo","type":"uint256","internalType":"uint256"}],"outputs":[],"stateMutability":"nonpayable"},{"type":"function","name":"asignarInsumo","inputs":[{"name":"_eventoID","type":"uint256","internalType":"uint256"},{"name":"_codigo","type":"bytes32","internalType":"bytes32"},{"name":"_operador","type":"address","internalType":"address"}],"outputs":[],"stateMutability":"nonpayable"},{"type":"function","name":"basesAutorizadas","inputs":[{"name":"","type":"address","internalType":"address"}],"outputs":[{"name":"","type":"bool","internalType":"bool"}],"stateMutability":"view"},{"type":"function","name":"bitacoraEvento","inputs":[{"name":"","type":"uint256","internalType":"uint256"},{"name":"","type":"uint256","internalType":"uint256"}],"outputs":[{"name":"eventoID","type":"uint256","internalType":"uint256"},{"name":"codigoInsumo","type":"bytes32","internalType":"bytes32"},{"name":"operador","type":"address","internalType":"address"},{"name":"timestamp","type":"uint256","internalType":"uint256"},{"name":"detalles","type":"string","internalType":"string"},{"name":"esDiscrepancia","type":"bool","internalType":"bool"}],"stateMutability":"view"},{"type":"function","name":"brigadistas","inputs":[{"name":"","type":"address","internalType":"address"}],"outputs":[{"name":"billetera","type":"address","internalType":"address"},{"name":"nombre","type":"string","internalType":"string"},{"name":"especialidad","type":"string","internalType":"string"},{"name":"estaActivo","type":"bool","internalType":"bool"}],"stateMutability":"view"},{"type":"function","name":"cerrarIncidente","inputs":[{"name":"_eventoID","type":"uint256","internalType":"uint256"}],"outputs":[],"stateMutability":"nonpayable"},{"type":"function","name":"getListaPersonal","inputs":[],"outputs":[{"name":"","type":"address[]","internalType":"address[]"}],"stateMutability":"view"},{"type":"function","name":"getRoleAdmin","inputs":[{"name":"role","type":"bytes32","internalType":"bytes32"}],"outputs":[{"name":"","type":"bytes32","internalType":"bytes32"}],"stateMutability":"view"},{"type":"function","name":"grantRole","inputs":[{"name":"role","type":"bytes32","internalType":"bytes32"},{"name":"account","type":"address","internalType":"address"}],"outputs":[],"stateMutability":"nonpayable"},{"type":"function","name":"hasRole","inputs":[{"name":"role","type":"bytes32","internalType":"bytes32"},{"name":"account","type":"address","internalType":"address"}],"outputs":[{"name":"","type":"bool","internalType":"bool"}],"stateMutability":"view"},{"type":"function","name":"incendios","inputs":[{"name":"","type":"uint256","internalType":"uint256"}],"outputs":[{"name":"eventoID","type":"uint256","internalType":"uint256"},{"name":"jefeDeEscena","type":"address","internalType":"address"},{"name":"timestampInicio","type":"uint256","internalType":"uint256"},{"name":"timestampFin","type":"uint256","internalType":"uint256"},{"name":"coordenadas","type":"string","internalType":"string"},{"name":"riesgo","type":"uint256","internalType":"uint256"},{"name":"activo","type":"bool","internalType":"bool"}],"stateMutability":"view"},{"type":"function","name":"inventario","inputs":[{"name":"","type":"bytes32","internalType":"bytes32"}],"outputs":[{"name":"codigoInventario","type":"bytes32","internalType":"bytes32"},{"name":"descripcion","type":"string","internalType":"string"},{"name":"basePropietaria","type":"address","internalType":"address"},{"name":"custodioActual","type":"address","internalType":"address"},{"name":"estado","type":"uint8","internalType":"enum TrazabilidadLogistica.EstadoInsumo"},{"name":"estadoReportadoF2","type":"uint8","internalType":"enum TrazabilidadLogistica.EstadoReportado"},{"name":"ultimoMantenimiento","type":"uint256","internalType":"uint256"},{"name":"consumoNominal","type":"uint256","internalType":"uint256"},{"name":"inicioUso","type":"uint256","internalType":"uint256"}],"stateMutability":"view"},{"type":"function","name":"listaPersonal","inputs":[{"name":"","type":"uint256","internalType":"uint256"}],"outputs":[{"name":"","type":"address","internalType":"address"}],"stateMutability":"view"},{"type":"function","name":"nextEventoID","inputs":[],"outputs":[{"name":"","type":"uint256","internalType":"uint256"}],"stateMutability":"view"},{"type":"function","name":"obtenerLogEvento","inputs":[{"name":"_eventoID","type":"uint256","internalType":"uint256"}],"outputs":[{"name":"","type":"tuple[]","internalType":"struct TrazabilidadLogistica.LogOperativo[]","components":[{"name":"eventoID","type":"uint256","internalType":"uint256"},{"name":"codigoInsumo","type":"bytes32","internalType":"bytes32"},{"name":"operador","type":"address","internalType":"address"},{"name":"timestamp","type":"uint256","internalType":"uint256"},{"name":"detalles","type":"string","internalType":"string"},{"name":"esDiscrepancia","type":"bool","internalType":"bool"}]}],"stateMutability":"view"},{"type":"function","name":"pause","inputs":[],"outputs":[],"stateMutability":"nonpayable"},{"type":"function","name":"paused","inputs":[],"outputs":[{"name":"","type":"bool","internalType":"bool"}],"stateMutability":"view"},{"type":"function","name":"registrarBitacoraTactica","inputs":[{"name":"_eventoID","type":"uint256","internalType":"uint256"},{"name":"_detalles","type":"string","internalType":"string"}],"outputs":[],"stateMutability":"nonpayable"},{"type":"function","name":"registrarHito","inputs":[{"name":"_eventoID","type":"uint256","internalType":"uint256"},{"name":"_codigo","type":"bytes32","internalType":"bytes32"},{"name":"_detalles","type":"string","internalType":"string"},{"name":"_nuevoEstadoProvisional","type":"uint8","internalType":"enum TrazabilidadLogistica.EstadoReportado"}],"outputs":[],"stateMutability":"nonpayable"},{"type":"function","name":"registrarInsumo","inputs":[{"name":"codigo","type":"bytes32","internalType":"bytes32"},{"name":"descripcion","type":"string","internalType":"string"},{"name":"consumoNominal","type":"uint256","internalType":"uint256"}],"outputs":[],"stateMutability":"nonpayable"},{"type":"function","name":"registrarInsumosBatch","inputs":[{"name":"codigos","type":"bytes32[]","internalType":"bytes32[]"},{"name":"descripciones","type":"string[]","internalType":"string[]"},{"name":"consumos","type":"uint256[]","internalType":"uint256[]"}],"outputs":[],"stateMutability":"nonpayable"},{"type":"function","name":"registrarPersonal","inputs":[{"name":"_billetera","type":"address","internalType":"address"},{"name":"_nombre","type":"string","internalType":"string"},{"name":"_especialidad","type":"string","internalType":"string"},{"name":"_role","type":"bytes32","internalType":"bytes32"}],"outputs":[],"stateMutability":"nonpayable"},{"type":"function","name":"renounceRole","inputs":[{"name":"role","type":"bytes32","internalType":"bytes32"},{"name":"account","type":"address","internalType":"address"}],"outputs":[],"stateMutability":"nonpayable"},{"type":"function","name":"retornarInsumo","inputs":[{"name":"_codigo","type":"bytes32","internalType":"bytes32"},{"name":"_estadoFinal","type":"uint8","internalType":"enum TrazabilidadLogistica.EstadoInsumo"},{"name":"_consumoReal","type":"uint256","internalType":"uint256"},{"name":"_motivoDiscrepancia","type":"string","internalType":"string"}],"outputs":[],"stateMutability":"nonpayable"},{"type":"function","name":"revokeRole","inputs":[{"name":"role","type":"bytes32","internalType":"bytes32"},{"name":"account","type":"address","internalType":"address"}],"outputs":[],"stateMutability":"nonpayable"},{"type":"function","name":"supportsInterface","inputs":[{"name":"interfaceId","type":"bytes4","internalType":"bytes4"}],"outputs":[{"name":"","type":"bool","internalType":"bool"}],"stateMutability":"view"},{"type":"function","name":"unpause","inputs":[],"outputs":[],"stateMutability":"nonpayable"},{"type":"event","name":"AlertaConsumo","inputs":[{"name":"eventoID","type":"uint256","indexed":true,"internalType":"uint256"},{"name":"codigo","type":"bytes32","indexed":true,"internalType":"bytes32"},{"name":"esperado","type":"uint256","indexed":false,"internalType":"uint256"},{"name":"real","type":"uint256","indexed":false,"internalType":"uint256"}],"anonymous":false},{"type":"event","name":"DiscrepanciaRegistrada","inputs":[{"name":"eventoID","type":"uint256","indexed":true,"internalType":"uint256"},{"name":"codigo","type":"bytes32","indexed":true,"internalType":"bytes32"},{"name":"motivo","type":"string","indexed":false,"internalType":"string"}],"anonymous":false},{"type":"event","name":"HitoRegistrado","inputs":[{"name":"eventoID","type":"uint256","indexed":true,"internalType":"uint256"},{"name":"codigo","type":"bytes32","indexed":true,"internalType":"bytes32"},{"name":"detalles","type":"string","indexed":false,"internalType":"string"}],"anonymous":false},{"type":"event","name":"IncendioCerrado","inputs":[{"name":"eventoID","type":"uint256","indexed":true,"internalType":"uint256"}],"anonymous":false},{"type":"event","name":"IncendioIniciado","inputs":[{"name":"eventoID","type":"uint256","indexed":true,"internalType":"uint256"},{"name":"coordenadas","type":"string","indexed":false,"internalType":"string"},{"name":"riesgo","type":"uint256","indexed":false,"internalType":"uint256"}],"anonymous":false},{"type":"event","name":"InsumoAsignado","inputs":[{"name":"eventoID","type":"uint256","indexed":true,"internalType":"uint256"},{"name":"codigo","type":"bytes32","indexed":true,"internalType":"bytes32"},{"name":"operador","type":"address","indexed":false,"internalType":"address"}],"anonymous":false},{"type":"event","name":"InsumoRegistrado","inputs":[{"name":"codigo","type":"bytes32","indexed":true,"internalType":"bytes32"},{"name":"descripcion","type":"string","indexed":false,"internalType":"string"},{"name":"base","type":"address","indexed":false,"internalType":"address"}],"anonymous":false},{"type":"event","name":"InsumoRetornado","inputs":[{"name":"codigo","type":"bytes32","indexed":true,"internalType":"bytes32"},{"name":"estadoFinal","type":"uint8","indexed":false,"internalType":"enum TrazabilidadLogistica.EstadoInsumo"}],"anonymous":false},{"type":"event","name":"Paused","inputs":[{"name":"account","type":"address","indexed":false,"internalType":"address"}],"anonymous":false},{"type":"event","name":"RoleAdminChanged","inputs":[{"name":"role","type":"bytes32","indexed":true,"internalType":"bytes32"},{"name":"previousAdminRole","type":"bytes32","indexed":true,"internalType":"bytes32"},{"name":"newAdminRole","type":"bytes32","indexed":true,"internalType":"bytes32"}],"anonymous":false},{"type":"event","name":"RoleGranted","inputs":[{"name":"role","type":"bytes32","indexed":true,"internalType":"bytes32"},{"name":"account","type":"address","indexed":true,"internalType":"address"},{"name":"sender","type":"address","indexed":true,"internalType":"address"}],"anonymous":false},{"type":"event","name":"RoleRevoked","inputs":[{"name":"role","type":"bytes32","indexed":true,"internalType":"bytes32"},{"name":"account","type":"address","indexed":true,"internalType":"address"},{"name":"sender","type":"address","indexed":true,"internalType":"address"}],"anonymous":false},{"type":"event","name":"Unpaused","inputs":[{"name":"account","type":"address","indexed":false,"internalType":"address"}],"anonymous":false}],"bytecode":{"object":"0x60806040526001600355348015610014575f5ffd5b505f60015f6101000a81548160ff02191690831515021790555060016002819055506100485f5f1b3361004d60201b60201c565b6101b1565b61005d828261006160201b60201c565b5050565b610071828261014760201b60201c565b6101435760015f5f8481526020019081526020015f205f015f8373ffffffffffffffffffffffffffffffffffffffff1673ffffffffffffffffffffffffffffffffffffffff1681526020019081526020015f205f6101000a81548160ff0219169083151502179055506100e86101aa60201b60201c565b73ffffffffffffffffffffffffffffffffffffffff168173ffffffffffffffffffffffffffffffffffffffff16837f2f8788117e7eff1d82e926ec794901d17c78024a50270940304540a733656f0d60405160405180910390a45b5050565b5f5f5f8481526020019081526020015f205f015f8373ffffffffffffffffffffffffffffffffffffffff1673ffffffffffffffffffffffffffffffffffffffff1681526020019081526020015f205f9054906101000a900460ff16905092915050565b5f33905090565b614901806101be5f395ff3fe608060405234801561000f575f5ffd5b50600436106101f9575f3560e01c80636e1d616e116101185780639cd12f22116100ab578063d547741f1161007a578063d547741f146105d7578063d5e49e98146105f3578063d8cb427814610611578063f0fb65fd1461062d578063fc5b850514610649576101f9565b80639cd12f2214610534578063a217fddf14610567578063aeeffa1b14610585578063ccfbee66146105a1576101f9565b80638456cb59116100e75780638456cb59146104ac57806391d14854146104b65780639434ef34146104e65780639c11ed4114610504576101f9565b80636e1d616e146104245780637cf1d61b14610442578063801d25ba1461045e578063812e94541461047c576101f9565b80632f2ff15d116101905780634b78e0da1161015f5780634b78e0da146103b05780634dc1fb2b146103cc5780635c975abb146103e8578063676dd33914610406576101f9565b80632f2ff15d14610339578063308f72df1461035557806336568abe1461038a5780633f4ba83a146103a6576101f9565b80631730e0d6116101cc5780631730e0d6146102975780632101bcfd146102cf578063248a9ca3146102ed5780632b1c42351461031d576101f9565b806301ffc9a7146101fd578063077359881461022d578063079a47db1461025d57806312d81c2f1461027b575b5f5ffd5b61021760048036038101906102129190612c61565b610665565b6040516102249190612ca6565b60405180910390f35b61024760048036038101906102429190612d19565b6106de565b6040516102549190612ca6565b60405180910390f35b6102656106fb565b6040516102729190612d5c565b60405180910390f35b61029560048036038101906102909190612e33565b61071f565b005b6102b160048036038101906102ac9190612ea4565b6107a6565b6040516102c699989796959493929190613016565b60405180910390f35b6102d76108ce565b6040516102e491906130a8565b60405180910390f35b61030760048036038101906103029190612ea4565b6108d4565b6040516103149190612d5c565b60405180910390f35b610337600480360381019061033291906130c1565b6108f0565b005b610353600480360381019061034e91906130ec565b6109ef565b005b61036f600480360381019061036a919061312a565b610a10565b60405161038196959493929190613168565b60405180910390f35b6103a4600480360381019061039f91906130ec565b610b13565b005b6103ae610b96565b005b6103ca60048036038101906103c591906132f6565b610bad565b005b6103e660048036038101906103e19190613392565b610e76565b005b6103f06110a5565b6040516103fd9190612ca6565b60405180910390f35b61040e6110ba565b60405161041b91906134a6565b60405180910390f35b61042c611145565b6040516104399190612d5c565b60405180910390f35b61045c600480360381019061045791906134c6565b611169565b005b6104666112f5565b6040516104739190612d5c565b60405180910390f35b610496600480360381019061049191906130c1565b611319565b6040516104a39190613520565b60405180910390f35b6104b4611354565b005b6104d060048036038101906104cb91906130ec565b61136b565b6040516104dd9190612ca6565b60405180910390f35b6104ee6113ce565b6040516104fb9190612d5c565b60405180910390f35b61051e600480360381019061051991906130c1565b6113f2565b60405161052b91906136ef565b60405180910390f35b61054e60048036038101906105499190612d19565b61157b565b60405161055e949392919061370f565b60405180910390f35b61056f6116de565b60405161057c9190612d5c565b60405180910390f35b61059f600480360381019061059a9190613783565b6116e4565b005b6105bb60048036038101906105b691906130c1565b6119d2565b6040516105ce9796959493929190613803565b60405180910390f35b6105f160048036038101906105ec91906130ec565b611ac1565b005b6105fb611ae2565b6040516106089190612d5c565b60405180910390f35b61062b60048036038101906106269190613877565b611b06565b005b610647600480360381019061064291906139c6565b611ec9565b005b610663600480360381019061065e9190613a99565b612064565b005b5f7f7965db0b000000000000000000000000000000000000000000000000000000007bffffffffffffffffffffffffffffffffffffffffffffffffffffffff1916827bffffffffffffffffffffffffffffffffffffffffffffffffffffffff191614806106d757506106d6826122c0565b5b9050919050565b6008602052805f5260405f205f915054906101000a900460ff1681565b7f731fe6f22e48c8ad24c7515b4379705d9f8883dd221815024b35c6580536cb7181565b7f731fe6f22e48c8ad24c7515b4379705d9f8883dd221815024b35c6580536cb7161074981612329565b61075161233d565b61079f8585858080601f0160208091040260200160405190810160405280939291908181526020018383808284375f81840152601f19601f8201169050808301925050505050505084612387565b5050505050565b6004602052805f5260405f205f91509050805f0154908060010180546107cb90613b46565b80601f01602080910402602001604051908101604052809291908181526020018280546107f790613b46565b80156108425780601f1061081957610100808354040283529160200191610842565b820191905f5260205f20905b81548152906001019060200180831161082557829003601f168201915b505050505090806002015f9054906101000a900473ffffffffffffffffffffffffffffffffffffffff1690806003015f9054906101000a900473ffffffffffffffffffffffffffffffffffffffff16908060030160149054906101000a900460ff16908060030160159054906101000a900460ff16908060040154908060050154908060060154905089565b60035481565b5f5f5f8381526020019081526020015f20600101549050919050565b7f1c33b934193907dc14a35370982c68e37544b8f15b0b2800284cda811d8d845661091a81612329565b60065f8381526020019081526020015f206006015f9054906101000a900460ff1661097a576040517f08c379a000000000000000000000000000000000000000000000000000000000815260040161097190613bc0565b60405180910390fd5b5f60065f8481526020019081526020015f206006015f6101000a81548160ff0219169083151502179055504260065f8481526020019081526020015f2060030181905550817fccb7696195025f4e6e7f9114baab03db051fc97ddb2c6b9d09111341ea52e2d760405160405180910390a25050565b6109f8826108d4565b610a0181612329565b610a0b83836125ea565b505050565b6007602052815f5260405f208181548110610a29575f80fd5b905f5260205f2090600602015f9150915050805f015490806001015490806002015f9054906101000a900473ffffffffffffffffffffffffffffffffffffffff1690806003015490806004018054610a8090613b46565b80601f0160208091040260200160405190810160405280929190818152602001828054610aac90613b46565b8015610af75780601f10610ace57610100808354040283529160200191610af7565b820191905f5260205f20905b815481529060010190602001808311610ada57829003601f168201915b505050505090806005015f9054906101000a900460ff16905086565b610b1b6126c4565b73ffffffffffffffffffffffffffffffffffffffff168173ffffffffffffffffffffffffffffffffffffffff1614610b88576040517f08c379a0000000000000000000000000000000000000000000000000000000008152600401610b7f90613c4e565b60405180910390fd5b610b9282826126cb565b5050565b5f5f1b610ba281612329565b610baa6127a5565b50565b610bb561233d565b610bc15f5f1b3361136b565b80610bf25750610bf17f731fe6f22e48c8ad24c7515b4379705d9f8883dd221815024b35c6580536cb713361136b565b5b610c31576040517f08c379a0000000000000000000000000000000000000000000000000000000008152600401610c2890613cdc565b60405180910390fd5b5f73ffffffffffffffffffffffffffffffffffffffff1660055f8673ffffffffffffffffffffffffffffffffffffffff1673ffffffffffffffffffffffffffffffffffffffff1681526020019081526020015f205f015f9054906101000a900473ffffffffffffffffffffffffffffffffffffffff1673ffffffffffffffffffffffffffffffffffffffff1614610cfd576040517f08c379a0000000000000000000000000000000000000000000000000000000008152600401610cf490613d44565b60405180910390fd5b60405180608001604052808573ffffffffffffffffffffffffffffffffffffffff1681526020018481526020018381526020016001151581525060055f8673ffffffffffffffffffffffffffffffffffffffff1673ffffffffffffffffffffffffffffffffffffffff1681526020019081526020015f205f820151815f015f6101000a81548173ffffffffffffffffffffffffffffffffffffffff021916908373ffffffffffffffffffffffffffffffffffffffff1602179055506020820151816001019081610dcd9190613f13565b506040820151816002019081610de39190613f13565b506060820151816003015f6101000a81548160ff021916908315150217905550905050600984908060018154018082558091505060019003905f5260205f20015f9091909190916101000a81548173ffffffffffffffffffffffffffffffffffffffff021916908373ffffffffffffffffffffffffffffffffffffffff160217905550610e708185612806565b50505050565b7f1c33b934193907dc14a35370982c68e37544b8f15b0b2800284cda811d8d8456610ea081612329565b610ea861233d565b60065f8581526020019081526020015f206006015f9054906101000a900460ff16610f08576040517f08c379a0000000000000000000000000000000000000000000000000000000008152600401610eff9061402c565b60405180910390fd5b60075f8581526020019081526020015f206040518060c001604052808681526020015f5f1b81526020013373ffffffffffffffffffffffffffffffffffffffff16815260200142815260200185858080601f0160208091040260200160405190810160405280939291908181526020018383808284375f81840152601f19601f8201169050808301925050505050505081526020015f1515815250908060018154018082558091505060019003905f5260205f2090600602015f909190919091505f820151815f0155602082015181600101556040820151816002015f6101000a81548173ffffffffffffffffffffffffffffffffffffffff021916908373ffffffffffffffffffffffffffffffffffffffff1602179055506060820151816003015560808201518160040190816110409190613f13565b5060a0820151816005015f6101000a81548160ff02191690831515021790555050505f5f1b847f9411c1cd33a2ce86a586acaacc052235ed9bc501acc5510a0e0157db9a3ce0ba8585604051611097929190614076565b60405180910390a350505050565b5f60015f9054906101000a900460ff16905090565b6060600980548060200260200160405190810160405280929190818152602001828054801561113b57602002820191905f5260205f20905b815f9054906101000a900473ffffffffffffffffffffffffffffffffffffffff1673ffffffffffffffffffffffffffffffffffffffff16815260200190600101908083116110f2575b5050505050905090565b7f59a1c48e5837ad7a7f3dcedcbe129bf3249ec4fbf651fd4f5e2600ead39fe2f581565b7f1c33b934193907dc14a35370982c68e37544b8f15b0b2800284cda811d8d845661119381612329565b61119b61233d565b5f60035f8154809291906111ae906140c5565b9190505590506040518060e001604052808281526020013373ffffffffffffffffffffffffffffffffffffffff1681526020014281526020015f81526020018581526020018481526020016001151581525060065f8381526020019081526020015f205f820151815f01556020820151816001015f6101000a81548173ffffffffffffffffffffffffffffffffffffffff021916908373ffffffffffffffffffffffffffffffffffffffff160217905550604082015181600201556060820151816003015560808201518160040190816112889190613f13565b5060a0820151816005015560c0820151816006015f6101000a81548160ff021916908315150217905550905050807f0a21e54b25e00ab323df8e4bd0d986ce1c742f1493372abb6fe4cdbd58a653a385856040516112e792919061410c565b60405180910390a250505050565b7facaade3b8ba30639994a37216e3f69a43c82aee06bd093696f45c6386815da2181565b60098181548110611328575f80fd5b905f5260205f20015f915054906101000a900473ffffffffffffffffffffffffffffffffffffffff1681565b5f5f1b61136081612329565b611368612814565b50565b5f5f5f8481526020019081526020015f205f015f8373ffffffffffffffffffffffffffffffffffffffff1673ffffffffffffffffffffffffffffffffffffffff1681526020019081526020015f205f9054906101000a900460ff16905092915050565b7ff0e27d98792a1f4388176184868b885d3f7997fa8a9a3b972f6b9007c691065881565b606060075f8381526020019081526020015f20805480602002602001604051908101604052809291908181526020015f905b82821015611570578382905f5260205f2090600602016040518060c00160405290815f820154815260200160018201548152602001600282015f9054906101000a900473ffffffffffffffffffffffffffffffffffffffff1673ffffffffffffffffffffffffffffffffffffffff1673ffffffffffffffffffffffffffffffffffffffff168152602001600382015481526020016004820180546114c790613b46565b80601f01602080910402602001604051908101604052809291908181526020018280546114f390613b46565b801561153e5780601f106115155761010080835404028352916020019161153e565b820191905f5260205f20905b81548152906001019060200180831161152157829003601f168201915b50505050508152602001600582015f9054906101000a900460ff16151515158152505081526020019060010190611424565b505050509050919050565b6005602052805f5260405f205f91509050805f015f9054906101000a900473ffffffffffffffffffffffffffffffffffffffff16908060010180546115bf90613b46565b80601f01602080910402602001604051908101604052809291908181526020018280546115eb90613b46565b80156116365780601f1061160d57610100808354040283529160200191611636565b820191905f5260205f20905b81548152906001019060200180831161161957829003601f168201915b50505050509080600201805461164b90613b46565b80601f016020809104026020016040519081016040528092919081815260200182805461167790613b46565b80156116c25780601f10611699576101008083540402835291602001916116c2565b820191905f5260205f20905b8154815290600101906020018083116116a557829003601f168201915b505050505090806003015f9054906101000a900460ff16905084565b5f5f1b81565b7f731fe6f22e48c8ad24c7515b4379705d9f8883dd221815024b35c6580536cb7161170e81612329565b611716612875565b5f60045f8781526020019081526020015f2090506001600481111561173e5761173d612f4e565b5b8160030160149054906101000a900460ff16600481111561176257611761612f4e565b5b14806117a2575060048081111561177c5761177b612f4e565b5b8160030160149054906101000a900460ff1660048111156117a05761179f612f4e565b5b145b6117e1576040517f08c379a00000000000000000000000000000000000000000000000000000000081526004016117d890614184565b60405180910390fd5b5f81600501541180156117f757505f8160060154115b1561188e575f81600601544261180d91906141a2565b90505f610e1083600501548361182391906141d5565b61182d9190614243565b9050606460788261183e91906141d5565b6118489190614243565b86111561188b57875f7f9460118c07ceacdad770843a755ebf21b9b6188fe176613728061007f600cbcd8389604051611882929190614273565b60405180910390a35b50505b8060030160159054906101000a900460ff1660038111156118b2576118b1612f4e565b5b60ff168560048111156118c8576118c7612f4e565b5b60ff161461190a57855f7f4ba644195ddad15d5480bbdf892fd3a68317084d3e4a49d17a0120c2f0d0fa7485604051611901919061429a565b60405180910390a35b848160030160146101000a81548160ff0219169083600481111561193157611930612f4e565b5b02179055505f816003015f6101000a81548173ffffffffffffffffffffffffffffffffffffffff021916908373ffffffffffffffffffffffffffffffffffffffff1602179055505f8160060181905550428160040181905550857f126f2357217a57a127d57de8579b758d2dc7d17f1fc644303f7c0c2790abcc71866040516119ba91906142ba565b60405180910390a2506119cb6128c2565b5050505050565b6006602052805f5260405f205f91509050805f015490806001015f9054906101000a900473ffffffffffffffffffffffffffffffffffffffff1690806002015490806003015490806004018054611a2890613b46565b80601f0160208091040260200160405190810160405280929190818152602001828054611a5490613b46565b8015611a9f5780601f10611a7657610100808354040283529160200191611a9f565b820191905f5260205f20905b815481529060010190602001808311611a8257829003601f168201915b505050505090806005015490806006015f9054906101000a900460ff16905087565b611aca826108d4565b611ad381612329565b611add83836126cb565b505050565b7f1c33b934193907dc14a35370982c68e37544b8f15b0b2800284cda811d8d845681565b7f1c33b934193907dc14a35370982c68e37544b8f15b0b2800284cda811d8d8456611b3081612329565b611b38612875565b611b4061233d565b60065f8581526020019081526020015f206006015f9054906101000a900460ff16611ba0576040517f08c379a0000000000000000000000000000000000000000000000000000000008152600401611b979061402c565b60405180910390fd5b5f6004811115611bb357611bb2612f4e565b5b60045f8581526020019081526020015f2060030160149054906101000a900460ff166004811115611be757611be6612f4e565b5b14611c27576040517f08c379a0000000000000000000000000000000000000000000000000000000008152600401611c1e9061431d565b60405180910390fd5b611c517ff0e27d98792a1f4388176184868b885d3f7997fa8a9a3b972f6b9007c69106588361136b565b611c90576040517f08c379a0000000000000000000000000000000000000000000000000000000008152600401611c8790614385565b60405180910390fd5b600160045f8581526020019081526020015f2060030160146101000a81548160ff02191690836004811115611cc857611cc7612f4e565b5b02179055508160045f8581526020019081526020015f206003015f6101000a81548173ffffffffffffffffffffffffffffffffffffffff021916908373ffffffffffffffffffffffffffffffffffffffff1602179055504260045f8581526020019081526020015f206006018190555060075f8581526020019081526020015f206040518060c001604052808681526020018581526020018473ffffffffffffffffffffffffffffffffffffffff1681526020014281526020016040518060400160405280601681526020017f417369676e61646f206120636f6d62617469656e74650000000000000000000081525081526020015f1515815250908060018154018082558091505060019003905f5260205f2090600602015f909190919091505f820151815f0155602082015181600101556040820151816002015f6101000a81548173ffffffffffffffffffffffffffffffffffffffff021916908373ffffffffffffffffffffffffffffffffffffffff160217905550606082015181600301556080820151816004019081611e609190613f13565b5060a0820151816005015f6101000a81548160ff021916908315150217905550505082847f45c6504610ce381c3bf12be4be1022b9cf010fd050104cbb2c9ee88939ae5c2c84604051611eb39190613520565b60405180910390a3611ec36128c2565b50505050565b7f731fe6f22e48c8ad24c7515b4379705d9f8883dd221815024b35c6580536cb71611ef381612329565b611efb61233d565b611f03612875565b8484905087879050148015611f1d57508282905087879050145b611f5c576040517f08c379a0000000000000000000000000000000000000000000000000000000008152600401611f5390614413565b60405180910390fd5b5f5f90505b87879050811015612052575f5f1b60045f8a8a85818110611f8557611f84614431565b5b9050602002013581526020019081526020015f205f01540361204557612044888883818110611fb757611fb6614431565b5b90506020020135878784818110611fd157611fd0614431565b5b9050602002810190611fe3919061446a565b8080601f0160208091040260200160405190810160405280939291908181526020018383808284375f81840152601f19601f8201169050808301925050505050505086868581811061203857612037614431565b5b90506020020135612387565b5b8080600101915050611f61565b5061205b6128c2565b50505050505050565b7ff0e27d98792a1f4388176184868b885d3f7997fa8a9a3b972f6b9007c691065861208e81612329565b3373ffffffffffffffffffffffffffffffffffffffff1660045f8681526020019081526020015f206003015f9054906101000a900473ffffffffffffffffffffffffffffffffffffffff1673ffffffffffffffffffffffffffffffffffffffff161461212f576040517f08c379a000000000000000000000000000000000000000000000000000000000815260040161212690614516565b60405180910390fd5b8160045f8681526020019081526020015f2060030160156101000a81548160ff0219169083600381111561216657612165612f4e565b5b021790555060075f8681526020019081526020015f206040518060c001604052808781526020018681526020013373ffffffffffffffffffffffffffffffffffffffff1681526020014281526020018581526020015f1515815250908060018154018082558091505060019003905f5260205f2090600602015f909190919091505f820151815f0155602082015181600101556040820151816002015f6101000a81548173ffffffffffffffffffffffffffffffffffffffff021916908373ffffffffffffffffffffffffffffffffffffffff16021790555060608201518160030155608082015181600401908161225e9190613f13565b5060a0820151816005015f6101000a81548160ff021916908315150217905550505083857f9411c1cd33a2ce86a586acaacc052235ed9bc501acc5510a0e0157db9a3ce0ba856040516122b1919061429a565b60405180910390a35050505050565b5f7f01ffc9a7000000000000000000000000000000000000000000000000000000007bffffffffffffffffffffffffffffffffffffffffffffffffffffffff1916827bffffffffffffffffffffffffffffffffffffffffffffffffffffffff1916149050919050565b61233a816123356126c4565b6128cc565b50565b6123456110a5565b15612385576040517f08c379a000000000000000000000000000000000000000000000000000000000815260040161237c9061457e565b60405180910390fd5b565b5f5f1b60045f8581526020019081526020015f205f0154146123de576040517f08c379a00000000000000000000000000000000000000000000000000000000081526004016123d5906145e6565b60405180910390fd5b6040518061012001604052808481526020018381526020013273ffffffffffffffffffffffffffffffffffffffff1681526020013273ffffffffffffffffffffffffffffffffffffffff1681526020015f600481111561244157612440612f4e565b5b81526020015f600381111561245957612458612f4e565b5b81526020014281526020018281526020015f81525060045f8581526020019081526020015f205f820151815f0155602082015181600101908161249c9190613f13565b506040820151816002015f6101000a81548173ffffffffffffffffffffffffffffffffffffffff021916908373ffffffffffffffffffffffffffffffffffffffff1602179055506060820151816003015f6101000a81548173ffffffffffffffffffffffffffffffffffffffff021916908373ffffffffffffffffffffffffffffffffffffffff16021790555060808201518160030160146101000a81548160ff0219169083600481111561255457612553612f4e565b5b021790555060a08201518160030160156101000a81548160ff0219169083600381111561258457612583612f4e565b5b021790555060c0820151816004015560e082015181600501556101008201518160060155905050827fdc6c6e42e4beb3fd43a594802a1828532a6f0d9b270f6a1ec09bc8dbe4ad837d83326040516125dd929190614604565b60405180910390a2505050565b6125f4828261136b565b6126c05760015f5f8481526020019081526020015f205f015f8373ffffffffffffffffffffffffffffffffffffffff1673ffffffffffffffffffffffffffffffffffffffff1681526020019081526020015f205f6101000a81548160ff0219169083151502179055506126656126c4565b73ffffffffffffffffffffffffffffffffffffffff168173ffffffffffffffffffffffffffffffffffffffff16837f2f8788117e7eff1d82e926ec794901d17c78024a50270940304540a733656f0d60405160405180910390a45b5050565b5f33905090565b6126d5828261136b565b156127a1575f5f5f8481526020019081526020015f205f015f8373ffffffffffffffffffffffffffffffffffffffff1673ffffffffffffffffffffffffffffffffffffffff1681526020019081526020015f205f6101000a81548160ff0219169083151502179055506127466126c4565b73ffffffffffffffffffffffffffffffffffffffff168173ffffffffffffffffffffffffffffffffffffffff16837ff6391f5c32d9c69d2a47ea670b442974b53935d1edc7fd64eb21e047a839171b60405160405180910390a45b5050565b6127ad612950565b5f60015f6101000a81548160ff0219169083151502179055507f5db9ee0a495bf2e6ff9c91a7834c1ba4fdd244a5e8aa4e537bd38aeae4b073aa6127ef6126c4565b6040516127fc9190613520565b60405180910390a1565b61281082826125ea565b5050565b61281c61233d565b6001805f6101000a81548160ff0219169083151502179055507f62e78cea01bee320cd4e420270b5ea74000d11b0c9f74754ebdbfc544b05a25861285e6126c4565b60405161286b9190613520565b60405180910390a1565b60028054036128b9576040517f08c379a00000000000000000000000000000000000000000000000000000000081526004016128b09061467c565b60405180910390fd5b60028081905550565b6001600281905550565b6128d6828261136b565b61294c576128e381612999565b6128f0835f1c60206129c6565b604051602001612901929190614768565b6040516020818303038152906040526040517f08c379a0000000000000000000000000000000000000000000000000000000008152600401612943919061429a565b60405180910390fd5b5050565b6129586110a5565b612997576040517f08c379a000000000000000000000000000000000000000000000000000000000815260040161298e906147eb565b60405180910390fd5b565b60606129bf8273ffffffffffffffffffffffffffffffffffffffff16601460ff166129c6565b9050919050565b60605f60028360026129d891906141d5565b6129e29190614809565b67ffffffffffffffff8111156129fb576129fa6131d2565b5b6040519080825280601f01601f191660200182016040528015612a2d5781602001600182028036833780820191505090505b5090507f3000000000000000000000000000000000000000000000000000000000000000815f81518110612a6457612a63614431565b5b60200101907effffffffffffffffffffffffffffffffffffffffffffffffffffffffffffff191690815f1a9053507f780000000000000000000000000000000000000000000000000000000000000081600181518110612ac757612ac6614431565b5b60200101907effffffffffffffffffffffffffffffffffffffffffffffffffffffffffffff191690815f1a9053505f6001846002612b0591906141d5565b612b0f9190614809565b90505b6001811115612bae577f3031323334353637383961626364656600000000000000000000000000000000600f861660108110612b5157612b50614431565b5b1a60f81b828281518110612b6857612b67614431565b5b60200101907effffffffffffffffffffffffffffffffffffffffffffffffffffffffffffff191690815f1a905350600485901c945080612ba79061483c565b9050612b12565b505f8414612bf1576040517f08c379a0000000000000000000000000000000000000000000000000000000008152600401612be8906148ad565b60405180910390fd5b8091505092915050565b5f604051905090565b5f5ffd5b5f5ffd5b5f7fffffffff0000000000000000000000000000000000000000000000000000000082169050919050565b612c4081612c0c565b8114612c4a575f5ffd5b50565b5f81359050612c5b81612c37565b92915050565b5f60208284031215612c7657612c75612c04565b5b5f612c8384828501612c4d565b91505092915050565b5f8115159050919050565b612ca081612c8c565b82525050565b5f602082019050612cb95f830184612c97565b92915050565b5f73ffffffffffffffffffffffffffffffffffffffff82169050919050565b5f612ce882612cbf565b9050919050565b612cf881612cde565b8114612d02575f5ffd5b50565b5f81359050612d1381612cef565b92915050565b5f60208284031215612d2e57612d2d612c04565b5b5f612d3b84828501612d05565b91505092915050565b5f819050919050565b612d5681612d44565b82525050565b5f602082019050612d6f5f830184612d4d565b92915050565b612d7e81612d44565b8114612d88575f5ffd5b50565b5f81359050612d9981612d75565b92915050565b5f5ffd5b5f5ffd5b5f5ffd5b5f5f83601f840112612dc057612dbf612d9f565b5b8235905067ffffffffffffffff811115612ddd57612ddc612da3565b5b602083019150836001820283011115612df957612df8612da7565b5b9250929050565b5f819050919050565b612e1281612e00565b8114612e1c575f5ffd5b50565b5f81359050612e2d81612e09565b92915050565b5f5f5f5f60608587031215612e4b57612e4a612c04565b5b5f612e5887828801612d8b565b945050602085013567ffffffffffffffff811115612e7957612e78612c08565b5b612e8587828801612dab565b93509350506040612e9887828801612e1f565b91505092959194509250565b5f60208284031215612eb957612eb8612c04565b5b5f612ec684828501612d8b565b91505092915050565b5f81519050919050565b5f82825260208201905092915050565b8281835e5f83830152505050565b5f601f19601f8301169050919050565b5f612f1182612ecf565b612f1b8185612ed9565b9350612f2b818560208601612ee9565b612f3481612ef7565b840191505092915050565b612f4881612cde565b82525050565b7f4e487b71000000000000000000000000000000000000000000000000000000005f52602160045260245ffd5b60058110612f8c57612f8b612f4e565b5b50565b5f819050612f9c82612f7b565b919050565b5f612fab82612f8f565b9050919050565b612fbb81612fa1565b82525050565b60048110612fd257612fd1612f4e565b5b50565b5f819050612fe282612fc1565b919050565b5f612ff182612fd5565b9050919050565b61300181612fe7565b82525050565b61301081612e00565b82525050565b5f6101208201905061302a5f83018c612d4d565b818103602083015261303c818b612f07565b905061304b604083018a612f3f565b6130586060830189612f3f565b6130656080830188612fb2565b61307260a0830187612ff8565b61307f60c0830186613007565b61308c60e0830185613007565b61309a610100830184613007565b9a9950505050505050505050565b5f6020820190506130bb5f830184613007565b92915050565b5f602082840312156130d6576130d5612c04565b5b5f6130e384828501612e1f565b91505092915050565b5f5f6040838503121561310257613101612c04565b5b5f61310f85828601612d8b565b925050602061312085828601612d05565b9150509250929050565b5f5f604083850312156131405761313f612c04565b5b5f61314d85828601612e1f565b925050602061315e85828601612e1f565b9150509250929050565b5f60c08201905061317b5f830189613007565b6131886020830188612d4d565b6131956040830187612f3f565b6131a26060830186613007565b81810360808301526131b48185612f07565b90506131c360a0830184612c97565b979650505050505050565b5f5ffd5b7f4e487b71000000000000000000000000000000000000000000000000000000005f52604160045260245ffd5b61320882612ef7565b810181811067ffffffffffffffff82111715613227576132266131d2565b5b80604052505050565b5f613239612bfb565b905061324582826131ff565b919050565b5f67ffffffffffffffff821115613264576132636131d2565b5b61326d82612ef7565b9050602081019050919050565b828183375f83830152505050565b5f61329a6132958461324a565b613230565b9050828152602081018484840111156132b6576132b56131ce565b5b6132c184828561327a565b509392505050565b5f82601f8301126132dd576132dc612d9f565b5b81356132ed848260208601613288565b91505092915050565b5f5f5f5f6080858703121561330e5761330d612c04565b5b5f61331b87828801612d05565b945050602085013567ffffffffffffffff81111561333c5761333b612c08565b5b613348878288016132c9565b935050604085013567ffffffffffffffff81111561336957613368612c08565b5b613375878288016132c9565b925050606061338687828801612d8b565b91505092959194509250565b5f5f5f604084860312156133a9576133a8612c04565b5b5f6133b686828701612e1f565b935050602084013567ffffffffffffffff8111156133d7576133d6612c08565b5b6133e386828701612dab565b92509250509250925092565b5f81519050919050565b5f82825260208201905092915050565b5f819050602082019050919050565b61342181612cde565b82525050565b5f6134328383613418565b60208301905092915050565b5f602082019050919050565b5f613454826133ef565b61345e81856133f9565b935061346983613409565b805f5b838110156134995781516134808882613427565b975061348b8361343e565b92505060018101905061346c565b5085935050505092915050565b5f6020820190508181035f8301526134be818461344a565b905092915050565b5f5f604083850312156134dc576134db612c04565b5b5f83013567ffffffffffffffff8111156134f9576134f8612c08565b5b613505858286016132c9565b925050602061351685828601612e1f565b9150509250929050565b5f6020820190506135335f830184612f3f565b92915050565b5f81519050919050565b5f82825260208201905092915050565b5f819050602082019050919050565b61356b81612e00565b82525050565b61357a81612d44565b82525050565b5f82825260208201905092915050565b5f61359a82612ecf565b6135a48185613580565b93506135b4818560208601612ee9565b6135bd81612ef7565b840191505092915050565b6135d181612c8c565b82525050565b5f60c083015f8301516135ec5f860182613562565b5060208301516135ff6020860182613571565b5060408301516136126040860182613418565b5060608301516136256060860182613562565b506080830151848203608086015261363d8282613590565b91505060a083015161365260a08601826135c8565b508091505092915050565b5f61366883836135d7565b905092915050565b5f602082019050919050565b5f61368682613539565b6136908185613543565b9350836020820285016136a285613553565b805f5b858110156136dd57848403895281516136be858261365d565b94506136c983613670565b925060208a019950506001810190506136a5565b50829750879550505050505092915050565b5f6020820190508181035f830152613707818461367c565b905092915050565b5f6080820190506137225f830187612f3f565b81810360208301526137348186612f07565b905081810360408301526137488185612f07565b90506137576060830184612c97565b95945050505050565b6005811061376c575f5ffd5b50565b5f8135905061377d81613760565b92915050565b5f5f5f5f6080858703121561379b5761379a612c04565b5b5f6137a887828801612d8b565b94505060206137b98782880161376f565b93505060406137ca87828801612e1f565b925050606085013567ffffffffffffffff8111156137eb576137ea612c08565b5b6137f7878288016132c9565b91505092959194509250565b5f60e0820190506138165f83018a613007565b6138236020830189612f3f565b6138306040830188613007565b61383d6060830187613007565b818103608083015261384f8186612f07565b905061385e60a0830185613007565b61386b60c0830184612c97565b98975050505050505050565b5f5f5f6060848603121561388e5761388d612c04565b5b5f61389b86828701612e1f565b93505060206138ac86828701612d8b565b92505060406138bd86828701612d05565b9150509250925092565b5f5f83601f8401126138dc576138db612d9f565b5b8235905067ffffffffffffffff8111156138f9576138f8612da3565b5b60208301915083602082028301111561391557613914612da7565b5b9250929050565b5f5f83601f84011261393157613930612d9f565b5b8235905067ffffffffffffffff81111561394e5761394d612da3565b5b60208301915083602082028301111561396a57613969612da7565b5b9250929050565b5f5f83601f84011261398657613985612d9f565b5b8235905067ffffffffffffffff8111156139a3576139a2612da3565b5b6020830191508360208202830111156139bf576139be612da7565b5b9250929050565b5f5f5f5f5f5f606087890312156139e0576139df612c04565b5b5f87013567ffffffffffffffff8111156139fd576139fc612c08565b5b613a0989828a016138c7565b9650965050602087013567ffffffffffffffff811115613a2c57613a2b612c08565b5b613a3889828a0161391c565b9450945050604087013567ffffffffffffffff811115613a5b57613a5a612c08565b5b613a6789828a01613971565b92509250509295509295509295565b60048110613a82575f5ffd5b50565b5f81359050613a9381613a76565b92915050565b5f5f5f5f60808587031215613ab157613ab0612c04565b5b5f613abe87828801612e1f565b9450506020613acf87828801612d8b565b935050604085013567ffffffffffffffff811115613af057613aef612c08565b5b613afc878288016132c9565b9250506060613b0d87828801613a85565b91505092959194509250565b7f4e487b71000000000000000000000000000000000000000000000000000000005f52602260045260245ffd5b5f6002820490506001821680613b5d57607f821691505b602082108103613b7057613b6f613b19565b5b50919050565b7f5961206365727261646f000000000000000000000000000000000000000000005f82015250565b5f613baa600a83612ed9565b9150613bb582613b76565b602082019050919050565b5f6020820190508181035f830152613bd781613b9e565b9050919050565b7f416363657373436f6e74726f6c3a2063616e206f6e6c792072656e6f756e63655f8201527f20726f6c657320666f722073656c660000000000000000000000000000000000602082015250565b5f613c38602f83612ed9565b9150613c4382613bde565b604082019050919050565b5f6020820190508181035f830152613c6581613c2c565b9050919050565b7f4e6f206175746f72697a61646f207061726120726567697374726172207065725f8201527f736f6e616c000000000000000000000000000000000000000000000000000000602082015250565b5f613cc6602583612ed9565b9150613cd182613c6c565b604082019050919050565b5f6020820190508181035f830152613cf381613cba565b9050919050565b7f5961207265676973747261646f000000000000000000000000000000000000005f82015250565b5f613d2e600d83612ed9565b9150613d3982613cfa565b602082019050919050565b5f6020820190508181035f830152613d5b81613d22565b9050919050565b5f819050815f5260205f209050919050565b5f6020601f8301049050919050565b5f82821b905092915050565b5f60088302613dbe7fffffffffffffffffffffffffffffffffffffffffffffffffffffffffffffffff82613d83565b613dc88683613d83565b95508019841693508086168417925050509392505050565b5f819050919050565b5f613e03613dfe613df984612e00565b613de0565b612e00565b9050919050565b5f819050919050565b613e1c83613de9565b613e30613e2882613e0a565b848454613d8f565b825550505050565b5f5f905090565b613e47613e38565b613e52818484613e13565b505050565b5f5b82811015613e7857613e6d5f828401613e3f565b600181019050613e59565b505050565b601f821115613ecb5782821115613eca57613e9781613d62565b613ea083613d74565b613ea985613d74565b6020861015613eb6575f90505b808301613ec582840382613e57565b505050505b5b505050565b5f82821c905092915050565b5f613eeb5f1984600802613ed0565b1980831691505092915050565b5f613f038383613edc565b9150826002028217905092915050565b613f1c82612ecf565b67ffffffffffffffff811115613f3557613f346131d2565b5b613f3f8254613b46565b613f4a828285613e7d565b5f60209050601f831160018114613f7b575f8415613f69578287015190505b613f738582613ef8565b865550613fda565b601f198416613f8986613d62565b5f5b82811015613fb057848901518255600182019150602085019450602081019050613f8b565b86831015613fcd5784890151613fc9601f891682613edc565b8355505b6001600288020188555050505b505050505050565b7f4576656e746f206e6f2061637469766f000000000000000000000000000000005f82015250565b5f614016601083612ed9565b915061402182613fe2565b602082019050919050565b5f6020820190508181035f8301526140438161400a565b9050919050565b5f6140558385612ed9565b935061406283858461327a565b61406b83612ef7565b840190509392505050565b5f6020820190508181035f83015261408f81848661404a565b90509392505050565b7f4e487b71000000000000000000000000000000000000000000000000000000005f52601160045260245ffd5b5f6140cf82612e00565b91507fffffffffffffffffffffffffffffffffffffffffffffffffffffffffffffffff820361410157614100614098565b5b600182019050919050565b5f6040820190508181035f8301526141248185612f07565b90506141336020830184613007565b9392505050565b7f4e6f2065737461626120656e2075736f000000000000000000000000000000005f82015250565b5f61416e601083612ed9565b91506141798261413a565b602082019050919050565b5f6020820190508181035f83015261419b81614162565b9050919050565b5f6141ac82612e00565b91506141b783612e00565b92508282039050818111156141cf576141ce614098565b5b92915050565b5f6141df82612e00565b91506141ea83612e00565b92508282026141f881612e00565b9150828204841483151761420f5761420e614098565b5b5092915050565b7f4e487b71000000000000000000000000000000000000000000000000000000005f52601260045260245ffd5b5f61424d82612e00565b915061425883612e00565b92508261426857614267614216565b5b828204905092915050565b5f6040820190506142865f830185613007565b6142936020830184613007565b9392505050565b5f6020820190508181035f8301526142b28184612f07565b905092915050565b5f6020820190506142cd5f830184612fb2565b92915050565b7f496e73756d6f206e6f20646973706f6e69626c650000000000000000000000005f82015250565b5f614307601483612ed9565b9150614312826142d3565b602082019050919050565b5f6020820190508181035f830152614334816142fb565b9050919050565b7f44657374696e61746172696f206e6f206573206f70657261646f7200000000005f82015250565b5f61436f601b83612ed9565b915061437a8261433b565b602082019050919050565b5f6020820190508181035f83015261439c81614363565b9050919050565b7f4c6f6e67697475642064652061727265676c6f7320696e636f6e73697374656e5f8201527f7465000000000000000000000000000000000000000000000000000000000000602082015250565b5f6143fd602283612ed9565b9150614408826143a3565b604082019050919050565b5f6020820190508181035f83015261442a816143f1565b9050919050565b7f4e487b71000000000000000000000000000000000000000000000000000000005f52603260045260245ffd5b5f5ffd5b5f5ffd5b5f5ffd5b5f5f833560016020038436030381126144865761448561445e565b5b80840192508235915067ffffffffffffffff8211156144a8576144a7614462565b5b6020830192506001820236038313156144c4576144c3614466565b5b509250929050565b7f4e6f20657320656c20637573746f64696f0000000000000000000000000000005f82015250565b5f614500601183612ed9565b915061450b826144cc565b602082019050919050565b5f6020820190508181035f83015261452d816144f4565b9050919050565b7f5061757361626c653a20706175736564000000000000000000000000000000005f82015250565b5f614568601083612ed9565b915061457382614534565b602082019050919050565b5f6020820190508181035f8301526145958161455c565b9050919050565b7f456c20696e73756d6f2079612065737461207265676973747261646f000000005f82015250565b5f6145d0601c83612ed9565b91506145db8261459c565b602082019050919050565b5f6020820190508181035f8301526145fd816145c4565b9050919050565b5f6040820190508181035f83015261461c8185612f07565b905061462b6020830184612f3f565b9392505050565b7f5265656e7472616e637947756172643a207265656e7472616e742063616c6c005f82015250565b5f614666601f83612ed9565b915061467182614632565b602082019050919050565b5f6020820190508181035f8301526146938161465a565b9050919050565b5f81905092915050565b7f416363657373436f6e74726f6c3a206163636f756e74200000000000000000005f82015250565b5f6146d860178361469a565b91506146e3826146a4565b601782019050919050565b5f6146f882612ecf565b614702818561469a565b9350614712818560208601612ee9565b80840191505092915050565b7f206973206d697373696e6720726f6c65200000000000000000000000000000005f82015250565b5f61475260118361469a565b915061475d8261471e565b601182019050919050565b5f614772826146cc565b915061477e82856146ee565b915061478982614746565b915061479582846146ee565b91508190509392505050565b7f5061757361626c653a206e6f74207061757365640000000000000000000000005f82015250565b5f6147d5601483612ed9565b91506147e0826147a1565b602082019050919050565b5f6020820190508181035f830152614802816147c9565b9050919050565b5f61481382612e00565b915061481e83612e00565b925082820190508082111561483657614835614098565b5b92915050565b5f61484682612e00565b91505f820361485857614857614098565b5b600182039050919050565b7f537472696e67733a20686578206c656e67746820696e73756666696369656e745f82015250565b5f614897602083612ed9565b91506148a282614863565b602082019050919050565b5f6020820190508181035f8301526148c48161488b565b905091905056fea26469706673582212200d6b1c3a48f61123d17d1d1a807beb23a1beb6b769f23497674198979849e1d364736f6c63430008210033","linkReferences":{}},"methodIdentifiers":{"AUDITOR_ROLE()":"6e1d616e","BASE_OPERATIVA_ROLE()":"079a47db","CONSULTOR_ROLE()":"801d25ba","DEFAULT_ADMIN_ROLE()":"a217fddf","JEFE_ESCENA_ROLE()":"d5e49e98","OPERADOR_ROLE()":"9434ef34","abrirEventoIncendio(string,uint256)":"7cf1d61b","asignarInsumo(uint256,bytes32,address)":"d8cb4278","basesAutorizadas(address)":"07735988","bitacoraEvento(uint256,uint256)":"308f72df","brigadistas(address)":"9cd12f22","cerrarIncidente(uint256)":"2b1c4235","getListaPersonal()":"676dd339","getRoleAdmin(bytes32)":"248a9ca3","grantRole(bytes32,address)":"2f2ff15d","hasRole(bytes32,address)":"91d14854","incendios(uint256)":"ccfbee66","inventario(bytes32)":"1730e0d6","listaPersonal(uint256)":"812e9454","nextEventoID()":"2101bcfd","obtenerLogEvento(uint256)":"9c11ed41","pause()":"8456cb59","paused()":"5c975abb","registrarBitacoraTactica(uint256,string)":"4dc1fb2b","registrarHito(uint256,bytes32,string,uint8)":"fc5b8505","registrarInsumo(bytes32,string,uint256)":"12d81c2f","registrarInsumosBatch(bytes32[],string[],uint256[])":"f0fb65fd","registrarPersonal(address,string,string,bytes32)":"4b78e0da","renounceRole(bytes32,address)":"36568abe","retornarInsumo(bytes32,uint8,uint256,string)":"aeeffa1b","revokeRole(bytes32,address)":"d547741f","supportsInterface(bytes4)":"01ffc9a7","unpause()":"3f4ba83a"},"id":0}