{"abi":[{"type":"constructor","inputs":[],"stateMutability":"nonpayable"},{"type":"function","name":"AUDITOR_ROLE","inputs":[],"outputs":[{"name":"","type":"bytes32","internalType":"bytes32"}],"stateMutability":"view"},{"type":"function","name":"BASE_OPERATIVA_ROLE","inputs":[],"outputs":[{"name":"","type":"bytes32","internalType":"bytes32"}],"stateMutability":"view"},{"type":"function","name":"CONSULTOR_ROLE","inputs":[],"outputs":[{"name":"","type":"bytes32","internalType":"bytes32"}],"stateMutability":"view"},{"type":"function","name":"DEFAULT_ADMIN_ROLE","inputs":[],"outputs":[{"name":"","type":"bytes32","internalType":"bytes32"}],"stateMutability":"view"},{"type":"function","name":"JEFE_ESCENA_ROLE","inputs":[],"outputs":[{"name":"","type":"bytes32","internalType":"bytes32"}],"stateMutability":"view"},{"type":"function","name":"OPERADOR_ROLE","inputs":[],"outputs":[{"name":"","type":"bytes32","internalType":"bytes32"}],"stateMutability":"view"},{"type":"function","name":"abrirEventoIncendio","inputs":[{"name":"_coordenadas","type":"string","internalType":"string"},{"name":"_riesgo","type":"uint256","internalType":"uint256"}],"outputs":[],"stateMutability":"nonpayable"},{"type":"function","name":"actualizarRiesgoIncendio","inputs":[{"name":"_eventoID","type":"uint256","internalType":"uint256"},{"name":"_nuevoRiesgo","type":"uint256","internalType":"uint256"}],"outputs":[],"stateMutability":"nonpayable"},{"type":"function","name":"asignarInsumo","inputs":[{"name":"_eventoID","type":"uint256","internalType":"uint256"},{"name":"_codigo","type":"bytes32","internalType":"bytes32"},{"name":"_operador","type":"address","internalType":"address"}],"outputs":[],"stateMutability":"nonpayable"},{"type":"function","name":"auditoriasPendientes","inputs":[{"name":"","type":"bytes32","internalType":"bytes32"}],"outputs":[{"name":"estadoPropuesto","type":"uint8","internalType":"enum TrazabilidadLogistica.EstadoInsumo"},{"name":"consumoReal","type":"uint256","internalType":"uint256"},{"name":"motivo","type":"string","internalType":"string"},{"name":"activa","type":"bool","internalType":"bool"}],"stateMutability":"view"},{"type":"function","name":"basesAutorizadas","inputs":[{"name":"","type":"address","internalType":"address"}],"outputs":[{"name":"","type":"bool","internalType":"bool"}],"stateMutability":"view"},{"type":"function","name":"bitacoraEvento","inputs":[{"name":"","type":"uint256","internalType":"uint256"},{"name":"","type":"uint256","internalType":"uint256"}],"outputs":[{"name":"eventoID","type":"uint256","internalType":"uint256"},{"name":"codigoInsumo","type":"bytes32","internalType":"bytes32"},{"name":"operador","type":"address","internalType":"address"},{"name":"timestamp","type":"uint256","internalType":"uint256"},{"name":"detalles","type":"string","internalType":"string"},{"name":"esDiscrepancia","type":"bool","internalType":"bool"}],"stateMutability":"view"},{"type":"function","name":"brigadistas","inputs":[{"name":"","type":"address","internalType":"address"}],"outputs":[{"name":"billetera","type":"address","internalType":"address"},{"name":"nombre","type":"string","internalType":"string"},{"name":"especialidad","type":"string","internalType":"string"},{"name":"estaActivo","type":"bool","internalType":"bool"}],"stateMutability":"view"},{"type":"function","name":"cerrarIncidente","inputs":[{"name":"_eventoID","type":"uint256","internalType":"uint256"}],"outputs":[],"stateMutability":"nonpayable"},{"type":"function","name":"contadorRecursos","inputs":[{"name":"","type":"address","internalType":"address"}],"outputs":[{"name":"","type":"uint256","internalType":"uint256"}],"stateMutability":"view"},{"type":"function","name":"despliegueActual","inputs":[{"name":"","type":"address","internalType":"address"}],"outputs":[{"name":"","type":"uint256","internalType":"uint256"}],"stateMutability":"view"},{"type":"function","name":"firmarDeslinde","inputs":[{"name":"_codigo","type":"bytes32","internalType":"bytes32"}],"outputs":[],"stateMutability":"nonpayable"},{"type":"function","name":"getListaPersonal","inputs":[],"outputs":[{"name":"","type":"address[]","internalType":"address[]"}],"stateMutability":"view"},{"type":"function","name":"getRoleAdmin","inputs":[{"name":"role","type":"bytes32","internalType":"bytes32"}],"outputs":[{"name":"","type":"bytes32","internalType":"bytes32"}],"stateMutability":"view"},{"type":"function","name":"grantRole","inputs":[{"name":"role","type":"bytes32","internalType":"bytes32"},{"name":"account","type":"address","internalType":"address"}],"outputs":[],"stateMutability":"nonpayable"},{"type":"function","name":"hasRole","inputs":[{"name":"role","type":"bytes32","internalType":"bytes32"},{"name":"account","type":"address","internalType":"address"}],"outputs":[{"name":"","type":"bool","internalType":"bool"}],"stateMutability":"view"},{"type":"function","name":"incendios","inputs":[{"name":"","type":"uint256","internalType":"uint256"}],"outputs":[{"name":"eventoID","type":"uint256","internalType":"uint256"},{"name":"jefeDeEscena","type":"address","internalType":"address"},{"name":"timestampInicio","type":"uint256","internalType":"uint256"},{"name":"timestampFin","type":"uint256","internalType":"uint256"},{"name":"coordenadas","type":"string","internalType":"string"},{"name":"riesgo","type":"uint256","internalType":"uint256"},{"name":"activo","type":"bool","internalType":"bool"}],"stateMutability":"view"},{"type":"function","name":"iniciarRetorno","inputs":[{"name":"_codigo","type":"bytes32","internalType":"bytes32"}],"outputs":[],"stateMutability":"nonpayable"},{"type":"function","name":"inventario","inputs":[{"name":"","type":"bytes32","internalType":"bytes32"}],"outputs":[{"name":"codigoInventario","type":"bytes32","internalType":"bytes32"},{"name":"descripcion","type":"string","internalType":"string"},{"name":"basePropietaria","type":"address","internalType":"address"},{"name":"custodioActual","type":"address","internalType":"address"},{"name":"estado","type":"uint8","internalType":"enum TrazabilidadLogistica.EstadoInsumo"},{"name":"estadoReportadoF2","type":"uint8","internalType":"enum TrazabilidadLogistica.EstadoReportado"},{"name":"ultimoMantenimiento","type":"uint256","internalType":"uint256"},{"name":"consumoNominal","type":"uint256","internalType":"uint256"},{"name":"inicioUso","type":"uint256","internalType":"uint256"}],"stateMutability":"view"},{"type":"function","name":"listaPersonal","inputs":[{"name":"","type":"uint256","internalType":"uint256"}],"outputs":[{"name":"","type":"address","internalType":"address"}],"stateMutability":"view"},{"type":"function","name":"nextEventoID","inputs":[],"outputs":[{"name":"","type":"uint256","internalType":"uint256"}],"stateMutability":"view"},{"type":"function","name":"obtenerLogEvento","inputs":[{"name":"_eventoID","type":"uint256","internalType":"uint256"}],"outputs":[{"name":"","type":"tuple[]","internalType":"struct TrazabilidadLogistica.LogOperativo[]","components":[{"name":"eventoID","type":"uint256","internalType":"uint256"},{"name":"codigoInsumo","type":"bytes32","internalType":"bytes32"},{"name":"operador","type":"address","internalType":"address"},{"name":"timestamp","type":"uint256","internalType":"uint256"},{"name":"detalles","type":"string","internalType":"string"},{"name":"esDiscrepancia","type":"bool","internalType":"bool"}]}],"stateMutability":"view"},{"type":"function","name":"pause","inputs":[],"outputs":[],"stateMutability":"nonpayable"},{"type":"function","name":"paused","inputs":[],"outputs":[{"name":"","type":"bool","internalType":"bool"}],"stateMutability":"view"},{"type":"function","name":"registrarAuditoria","inputs":[{"name":"_codigo","type":"bytes32","internalType":"bytes32"},{"name":"_estadoPropuesto","type":"uint8","internalType":"enum TrazabilidadLogistica.EstadoInsumo"},{"name":"_consumoReal","type":"uint256","internalType":"uint256"},{"name":"_motivoDiscrepancia","type":"string","internalType":"string"}],"outputs":[],"stateMutability":"nonpayable"},{"type":"function","name":"registrarBitacoraTactica","inputs":[{"name":"_eventoID","type":"uint256","internalType":"uint256"},{"name":"_detalles","type":"string","internalType":"string"}],"outputs":[],"stateMutability":"nonpayable"},{"type":"function","name":"registrarHito","inputs":[{"name":"_eventoID","type":"uint256","internalType":"uint256"},{"name":"_codigo","type":"bytes32","internalType":"bytes32"},{"name":"_detalles","type":"string","internalType":"string"},{"name":"_nuevoEstadoProvisional","type":"uint8","internalType":"enum TrazabilidadLogistica.EstadoReportado"}],"outputs":[],"stateMutability":"nonpayable"},{"type":"function","name":"registrarInsumo","inputs":[{"name":"codigo","type":"bytes32","internalType":"bytes32"},{"name":"descripcion","type":"string","internalType":"string"},{"name":"consumoNominal","type":"uint256","internalType":"uint256"}],"outputs":[],"stateMutability":"nonpayable"},{"type":"function","name":"registrarInsumosBatch","inputs":[{"name":"codigos","type":"bytes32[]","internalType":"bytes32[]"},{"name":"descripciones","type":"string[]","internalType":"string[]"},{"name":"consumos","type":"uint256[]","internalType":"uint256[]"}],"outputs":[],"stateMutability":"nonpayable"},{"type":"function","name":"registrarPersonal","inputs":[{"name":"_billetera","type":"address","internalType":"address"},{"name":"_nombre","type":"string","internalType":"string"},{"name":"_especialidad","type":"string","internalType":"string"},{"name":"_role","type":"bytes32","internalType":"bytes32"}],"outputs":[],"stateMutability":"nonpayable"},{"type":"function","name":"renounceRole","inputs":[{"name":"role","type":"bytes32","internalType":"bytes32"},{"name":"account","type":"address","internalType":"address"}],"outputs":[],"stateMutability":"nonpayable"},{"type":"function","name":"retornarInsumo","inputs":[{"name":"","type":"bytes32","internalType":"bytes32"},{"name":"","type":"uint8","internalType":"enum TrazabilidadLogistica.EstadoInsumo"},{"name":"","type":"uint256","internalType":"uint256"},{"name":"","type":"string","internalType":"string"}],"outputs":[],"stateMutability":"pure"},{"type":"function","name":"revokeRole","inputs":[{"name":"role","type":"bytes32","internalType":"bytes32"},{"name":"account","type":"address","internalType":"address"}],"outputs":[],"stateMutability":"nonpayable"},{"type":"function","name":"supportsInterface","inputs":[{"name":"interfaceId","type":"bytes4","internalType":"bytes4"}],"outputs":[{"name":"","type":"bool","internalType":"bool"}],"stateMutability":"view"},{"type":"function","name":"unpause","inputs":[],"outputs":[],"stateMutability":"nonpayable"},{"type":"event","name":"AlertaConsumo","inputs":[{"name":"eventoID","type":"uint256","indexed":true,"internalType":"uint256"},{"name":"codigo","type":"bytes32","indexed":true,"internalType":"bytes32"},{"name":"esperado","type":"uint256","indexed":false,"internalType":"uint256"},{"name":"real","type":"uint256","indexed":false,"internalType":"uint256"}],"anonymous":false},{"type":"event","name":"DiscrepanciaRegistrada","inputs":[{"name":"eventoID","type":"uint256","indexed":true,"internalType":"uint256"},{"name":"codigo","type":"bytes32","indexed":true,"internalType":"bytes32"},{"name":"motivo","type":"string","indexed":false,"internalType":"string"}],"anonymous":false},{"type":"event","name":"HitoRegistrado","inputs":[{"name":"eventoID","type":"uint256","indexed":true,"internalType":"uint256"},{"name":"codigo","type":"bytes32","indexed":true,"internalType":"bytes32"},{"name":"operador","type":"address","indexed":true,"internalType":"address"},{"name":"detalles","type":"string","indexed":false,"internalType":"string"}],"anonymous":false},{"type":"event","name":"IncendioCerrado","inputs":[{"name":"eventoID","type":"uint256","indexed":true,"internalType":"uint256"}],"anonymous":false},{"type":"event","name":"IncendioIniciado","inputs":[{"name":"eventoID","type":"uint256","indexed":true,"internalType":"uint256"},{"name":"coordenadas","type":"string","indexed":false,"internalType":"string"},{"name":"riesgo","type":"uint256","indexed":false,"internalType":"uint256"}],"anonymous":false},{"type":"event","name":"InsumoAsignado","inputs":[{"name":"eventoID","type":"uint256","indexed":true,"internalType":"uint256"},{"name":"codigo","type":"bytes32","indexed":true,"internalType":"bytes32"},{"name":"operador","type":"address","indexed":false,"internalType":"address"}],"anonymous":false},{"type":"event","name":"InsumoRegistrado","inputs":[{"name":"codigo","type":"bytes32","indexed":true,"internalType":"bytes32"},{"name":"descripcion","type":"string","indexed":false,"internalType":"string"},{"name":"base","type":"address","indexed":false,"internalType":"address"}],"anonymous":false},{"type":"event","name":"InsumoRetornado","inputs":[{"name":"codigo","type":"bytes32","indexed":true,"internalType":"bytes32"},{"name":"estadoFinal","type":"uint8","indexed":false,"internalType":"enum TrazabilidadLogistica.EstadoInsumo"}],"anonymous":false},{"type":"event","name":"Paused","inputs":[{"name":"account","type":"address","indexed":false,"internalType":"address"}],"anonymous":false},{"type":"event","name":"RiesgoActualizado","inputs":[{"name":"eventoID","type":"uint256","indexed":true,"internalType":"uint256"},{"name":"viejoRiesgo","type":"uint256","indexed":false,"internalType":"uint256"},{"name":"nuevoRiesgo","type":"uint256","indexed":false,"internalType":"uint256"},{"name":"autor","type":"address","indexed":false,"internalType":"address"}],"anonymous":false},{"type":"event","name":"RoleAdminChanged","inputs":[{"name":"role","type":"bytes32","indexed":true,"internalType":"bytes32"},{"name":"previousAdminRole","type":"bytes32","indexed":true,"internalType":"bytes32"},{"name":"newAdminRole","type":"bytes32","indexed":true,"internalType":"bytes32"}],"anonymous":false},{"type":"event","name":"RoleGranted","inputs":[{"name":"role","type":"bytes32","indexed":true,"internalType":"bytes32"},{"name":"account","type":"address","indexed":true,"internalType":"address"},{"name":"sender","type":"address","indexed":true,"internalType":"address"}],"anonymous":false},{"type":"event","name":"RoleRevoked","inputs":[{"name":"role","type":"bytes32","indexed":true,"internalType":"bytes32"},{"name":"account","type":"address","indexed":true,"internalType":"address"},{"name":"sender","type":"address","indexed":true,"internalType":"address"}],"anonymous":false},{"type":"event","name":"Unpaused","inputs":[{"name":"account","type":"address","indexed":false,"internalType":"address"}],"anonymous":false}],"bytecode":{"object":"0x608060405234609b576001805460ff191681556002819055600355335f9081525f5160206137a85f395f51905f52602052604090205460ff1615604c575b60405161370890816100a08239f35b335f8181525f5160206137a85f395f51905f5260205260408120805460ff1916600117905581907f2f8788117e7eff1d82e926ec794901d17c78024a50270940304540a733656f0d8180a4603d565b5f80fdfe6080806040526004361015610012575f80fd5b5f3560e01c90816301ffc9a7146127c3575080630773598814612786578063079a47db1461274c57806312d81c2f146126f15780631730e0d61461262c57806320f63985146123f05780632101bcfd146123d3578063248a9ca3146123a15780632b1c4235146122385780632f2ff15d146121815780632fa6b67014612149578063308f72df146120b457806336568abe146120225780633f4ba83a14611f8f5780634b78e0da14611b095780634dc1fb2b14611a0a5780635c975abb146119e8578063676dd339146119205780636e1d616e146118e65780637cf1d61b146115f0578063801d25ba146115b6578063812e9454146115745780638456cb591461151c5780638b6ad2c61461104e57806391d14854146110065780639434ef3414610fcc5780639c11ed4114610e5c5780639cd12f2214610dd3578063a217fddf14610db9578063aeeffa1b14610d3d578063ccfbee6614610cad578063d547741f14610c69578063d5e49e9814610c2f578063d8cb4278146108d4578063db364cc0146106ac578063ed59fb0614610538578063f0fb65fd14610388578063f5f119aa14610314578063fc5b8505146102105763fd358539146101d4575f80fd5b3461020c57602036600319011261020c576001600160a01b036101f5612816565b165f52600b602052602060405f2054604051908152f35b5f80fd5b3461020c57608036600319011261020c576004356024356044356001600160401b03811161020c57610246903690600401612a4f565b91606435600481101561020c576102959061025f612f91565b835f52600460205261028160018060a01b03600360405f200154163314612d2a565b835f526004602052600360405f2001612d92565b805f5260076020526102d760405f20604051906102b1826128a7565b8382528460208301523360408301524260608301528560808301525f60a0830152612b4f565b7f743d3a1c7fc430da02b652bd11fe5d5ac31a74fefa0a1b84f81167a324eb5036604051602081528061030f3396602083019061299e565b0390a4005b3461020c57602036600319011261020c576004355f52600a60205261036660405f2060ff8154169061037c60018201549160ff6003610355600284016128fe565b9201541692604051958680966129c2565b602085015260806040850152608084019061299e565b90151560608301520390f35b3461020c57606036600319011261020c576004356001600160401b03811161020c576103b8903690600401612ac5565b906024356001600160401b03811161020c576103d8903690600401612ac5565b6044356001600160401b03811161020c576103f7903690600401612ac5565b929094610402612db6565b61040a61304a565b6104126134ed565b8281148061052f575b156104df575f5b818110610430576001600255005b61043b818388612d82565b355f52600460205260405f205415610456575b600101610422565b610461818388612d82565b3590848110156104cb578060051b840135601e198536030181121561020c5784018035906001600160401b03821161020c5760200190803603821361020c576001936104be6104c4936104b5868c8f612d82565b35933691612a19565b9061308e565b905061044e565b634e487b7160e01b5f52603260045260245ffd5b60405162461bcd60e51b815260206004820152602260248201527f4c6f6e67697475642064652061727265676c6f7320696e636f6e73697374656e604482015261746560f01b6064820152608490fd5b5083811461041b565b3461020c57602036600319011261020c57600435610554612f91565b61055c61304a565b805f52600460205261057e60018060a01b03600360405f200154163314612d2a565b805f52600460205260ff600360405f20015460a01c16600581101561069857600103610662575f818152600460209081526040808320600301805460ff60a01b1916600160a21b179055338352600b90915290205490816105db57005b604051916105ea6080846128dd565b604383527f5265746f726e6f20416e746963697061646f3a20456c2065717569706f20766160208401527f206465207675656c74612061206261736520616e7465732064656c206369657260408401526239329760e91b6060840152805f5260076020526102d760405f20604051906102b1826128a7565b60405162461bcd60e51b815260206004820152600e60248201526d4e6f206573746120656e2075736f60901b6044820152606490fd5b634e487b7160e01b5f52602160045260245ffd5b3461020c576106ba36612a85565b92906106c4612db6565b6106cc61304a565b6106d46134ed565b815f52600460205260ff600360405f20015460a01c1660058110156106985760040361089a576107106040519361070a856128c2565b84612d6a565b60208301908152604083019384526060830191600183525f52600a60205260405f20925160058110156106985760ff801985541691161783555160018301556002820192519283516001600160401b03811161088657610770825461286f565b601f8111610843575b506020601f82116001146107db578160039493926107b0926107c9985f926107d0575b50508160011b915f199060031b1c19161790565b90555b51151591019060ff801983541691151516179055565b6001600255005b01519050888061079c565b601f19821695835f52815f20965f5b81811061082b575096600192849260039796956107c99a10610814575b505050811b0190556107b3565b01515f1983881b60f8161c19169055878080610807565b838301518955600190980197602093840193016107ea565b818111156107795761087890835f5260205f2090601f840160051c906020851061087e575b601f82910160051c039101612b34565b85610779565b5f9150610868565b634e487b7160e01b5f52604160045260245ffd5b60405162461bcd60e51b81526020600482015260126024820152714e6f206573746120656e207265746f726e6f60701b6044820152606490fd5b3461020c57606036600319011261020c576024356004356044356001600160a01b0381169081900361020c57610908612ec3565b6109106134ed565b61091861304a565b815f52600660205261093360ff600660405f20015416612af5565b825f52600460205260ff600360405f20015460a01c16600581101561069857610bf3575f8181527f076b16d7b6d895523585ddb38ef9c6438a6feac6f1c5e100f1239f95ff4b172a602052604090205460ff1615610bae57805f52600b60205260405f2054158015610b99575b15610b40575f8381526004602090815260408083206003810180546001600160a81b0319168617600160a01b17905542600691820155858452909152902060070180549091600160401b82101561088657600182018084558210156104cb57846020927f45c6504610ce381c3bf12be4be1022b9cf010fd050104cbb2c9ee88939ae5c2c945f52835f200155805f52600b82528360405f2055805f52600c825260405f20610a4e8154612d1c565b9055845f5260048252610b3282610af6600d610a6f600160405f20016128fe565b855f5260058452603784610a88600160405f20016128fe565b6040519687947f417369676e6163696f6e206465205265637572736f3a20000000000000000000828701528051918291018587015e8401906c01032b73a3932b3b0b23790309609d1b84830152805192839101604483015e01015f838201520301601f1981018352826128dd565b855f526007845260405f2060405191610b0e836128a7565b878352888684015284604084015242606084015260808301525f60a0830152612b4f565b604051908152a36001600255005b60405162461bcd60e51b815260206004820152602b60248201527f4272696761646973746120617369676e61646f2061206f74726f20696e63696460448201526a656e74652061637469766f60a81b6064820152608490fd5b50805f52600b6020528160405f2054146109a0565b60405162461bcd60e51b815260206004820152601b60248201527f44657374696e61746172696f206e6f206573206f70657261646f7200000000006044820152606490fd5b60405162461bcd60e51b8152602060048201526014602482015273496e73756d6f206e6f20646973706f6e69626c6560601b6044820152606490fd5b3461020c575f36600319011261020c5760206040517f1c33b934193907dc14a35370982c68e37544b8f15b0b2800284cda811d8d84568152f35b3461020c57604036600319011261020c57610cab600435610c8861282c565b90610ca6610ca1825f525f602052600160405f20015490565b613008565b61346d565b005b3461020c57602036600319011261020c576004355f52600660205260405f20805460018060a01b03600183015416916002810154610d2c6003830154610cf5600485016128fe565b9060ff600660058701549601541693604051978897885260208801526040870152606086015260e0608086015260e085019061299e565b9160a0840152151560c08301520390f35b3461020c57610d4b36612a85565b50505050608460405162461bcd60e51b815260206004820152603e60248201527f55736520656c20666c756a6f2064652048616e647368616b653a20726567697360448201527f7472617241756469746f726961202b206669726d61724465736c696e646500006064820152fd5b3461020c575f36600319011261020c5760206040515f8152f35b3461020c57602036600319011261020c576001600160a01b03610df4612816565b165f90815260056020526040902080546001600160a01b0316610e19600183016128fe565b9161037c60ff6003610e2d600285016128fe565b9301541691610e4e604051958695865260806020870152608086019061299e565b90848203604086015261299e565b3461020c57602036600319011261020c576004355f52600760205260405f208054906001600160401b0382116108865760208260051b0191610ea160405193846128dd565b8083526020830180925f5260205f205f915b838310610f6457848660405191829160208301906020845251809152604083019060408160051b85010192915f905b828210610ef157505050500390f35b919360019193955060208091603f19898203018552875190815181528282015183820152848060a01b0360408301511660408201526060820151606082015260a080610f4c608085015160c0608086015260c085019061299e565b93015115159101529601920192018594939192610ee2565b60066020600192604051610f77816128a7565b855481528486015483820152848060a01b03600287015416604082015260038601546060820152610faa600487016128fe565b608082015260ff600587015416151560a0820152815201920192019190610eb3565b3461020c575f36600319011261020c5760206040517ff0e27d98792a1f4388176184868b885d3f7997fa8a9a3b972f6b9007c69106588152f35b3461020c57604036600319011261020c5761101f61282c565b6004355f525f60205260405f209060018060a01b03165f52602052602060ff60405f2054166040519015158152f35b3461020c57602036600319011261020c5760043561106a612f91565b61107261304a565b61107a6134ed565b805f52600460205261109c60018060a01b03600360405f200154163314612d2a565b805f52600a60205260ff600360405f20015416156114d757805f52600a60205260405f20604051906110cd826128c2565b6110db60ff82541683612d6a565b60018101546020830190815260ff60036110f7600285016128fe565b936040860194855201541615156060840152835f52600460205260405f20906005820154801515806114ca575b61142f575b50508251600581101561069857600382019260ff845460a81c1660048110156106985760ff879316036113ea575b5050825160058110156106985761116e9083612cf8565b60018060a01b03825416916bffffffffffffffffffffffff60a01b81541690555f6006820155600442910155825f52600a6020525f600360408220828155826001820155600281016111c0815461286f565b90816113a6575b50500155335f52600b60205260405f205480611271575b50805f52600c60205260405f2054611235575b505160058110156106985760207f126f2357217a57a127d57de8579b758d2dc7d17f1fc644303f7c0c2790abcc719161122d60405180926129c2565ba26001600255005b805f52600c60205260405f2061124b8154612d76565b9055805f52600c60205260405f20546111f1575f52600b6020525f6040812055826111f1565b835f52600460205283600160405f20019160405180937f41637461206465204465766f6c7563696f6e204669726d6164613a200000000060208301525f908054906112bb8261286f565b91600181169081156113825750600114611342575b5050906112e59103601f1981018552846128dd565b805f52600760205261130160405f20604051906102b1826128a7565b7f743d3a1c7fc430da02b652bd11fe5d5ac31a74fefa0a1b84f81167a324eb503660405160208152806113393396602083019061299e565b0390a4836111de565b9091505f5260205f205f905b8282106113655750508101603c016112e5896112d0565b8054603c838901015289955086935060209091019060010161134e565b90506112e5949350603c92915060ff191682840152801515028201019091896112d0565b81601f8693116001146113bd5750555b86806111c7565b818352602083206113da91601f0160051c84190190600101612b34565b80825281602081209155556113b6565b7f4ba644195ddad15d5480bbdf892fd3a68317084d3e4a49d17a0120c2f0d0fa746114255f925160405191829160208352602083019061299e565b0390a38385611157565b6006830154804203914283116114b6578083029283041490421417156114b657610e109004908051916078810292818404607814821517156114b65760648894041061147c575b50611129565b60407f9460118c07ceacdad770843a755ebf21b9b6188fe176613728061007f600cbcd915f935182519182526020820152a3838580611476565b634e487b7160e01b5f52601160045260245ffd5b5060068301541515611124565b60405162461bcd60e51b815260206004820152601a60248201527f4e6f206861792061756469746f7269612070656e6469656e74650000000000006044820152606490fd5b3461020c575f36600319011261020c57611534612f3a565b61153c61304a565b600160ff19815416176001557f62e78cea01bee320cd4e420270b5ea74000d11b0c9f74754ebdbfc544b05a2586020604051338152a1005b3461020c57602036600319011261020c5760043560095481101561020c5761159d602091612a6d565b905460405160039290921b1c6001600160a01b03168152f35b3461020c575f36600319011261020c5760206040517facaade3b8ba30639994a37216e3f69a43c82aee06bd093696f45c6386815da218152f35b3461020c57604036600319011261020c576004356001600160401b03811161020c57611620903690600401612a4f565b6024359061162c612ec3565b61163461304a565b6003549161164183612d1c565b60035560209060405161165483826128dd565b5f81525f36813760405161010081018181106001600160401b0382111761088657604090815286825233858301908152428383019081525f60608501818152608086018a815260a08701898152600160c0890181815260e08a019a8b528e865260068d529790942097518855945192870180546001600160a01b0319166001600160a01b039490941693909317909255915160028601559051600385015551805160048501916001600160401b03821161088657611712835461286f565b601f81116118ae575b508890601f831160011461184257826117749593600798979593611753935f926118375750508160011b915f199060031b1c19161790565b90555b516005840155511515600683019060ff801983541691151516179055565b019051908151916001600160401b03831161088657600160401b8311610886578490825484845580851061180b575b5001905f52835f205f5b8381106117f957877f0a21e54b25e00ab323df8e4bd0d986ce1c742f1493372abb6fe4cdbd58a653a36117f089898960405193849360408552604085019061299e565b918301520390a2005b825182820155918501916001016117ad565b835f528480845f20019103905f5b8281106118275750506117a3565b5f81830155889450600101611819565b015190508e8061079c565b90601f19831691845f528a5f20925f5b8c828210611898575050926001928592611774989660079b9a989610611880575b505050811b019055611756565b01515f1960f88460031b161c191690558d8080611873565b6001859682939686015181550195019301611852565b8281111561171b576118e090845f528a5f2090601f850160051c908c861061087e57601f82910160051c039101612b34565b8b61171b565b3461020c575f36600319011261020c5760206040517f59a1c48e5837ad7a7f3dcedcbe129bf3249ec4fbf651fd4f5e2600ead39fe2f58152f35b3461020c575f36600319011261020c576040518060206009549283815201809260095f527f6e1540171b6c0c960b71a7020d9f60077f6af931a8bbf590da0223dacf75c7af905f5b8181106119c9575050508161197e9103826128dd565b604051918291602083019060208452518091526040830191905f5b8181106119a7575050500390f35b82516001600160a01b0316845285945060209384019390920191600101611999565b82546001600160a01b0316845260209093019260019283019201611968565b3461020c575f36600319011261020c57602060ff600154166040519015158152f35b3461020c57604036600319011261020c576004356024356001600160401b03811161020c577f743d3a1c7fc430da02b652bd11fe5d5ac31a74fefa0a1b84f81167a324eb503691611a605f923690600401612842565b9390611a6a612ec3565b611a7261304a565b8284526006602052611a8d60ff600660408720015416612af5565b8284526007602052611ad96040852060405190611aa9826128a7565b858252866020830152336040830152426060830152611ac9368986612a19565b60808301528660a0830152612b4f565b846040519160208352816020840152604083013783604086830101526040813396601f80199101168101030190a4005b3461020c57608036600319011261020c57611b22612816565b6024356001600160401b03811161020c57611b41903690600401612a4f565b6044356001600160401b03811161020c57611b60903690600401612a4f565b60643592611b6c61304a565b335f9081527fad3228b676f7d3cd4284a5443f17f1962b36e491b30a40b2405849e597ba5fb5602052604090205460ff168015611f58575b15611f05576001600160a01b039081165f8181526005602052604090205490939116611ed05760405191611bd7836128c2565b838352602080840192835260408085019283526001606086018181525f888152600590945291909220945185546001600160a01b0319166001600160a01b03919091161785559251805191850191906001600160401b03821161088657611c3e835461286f565b601f8111611e96575b50602090601f8311600114611e3357611c7692915f9183611e285750508160011b915f199060031b1c19161790565b90555b51805160028401916001600160401b03821161088657611c99835461286f565b601f8111611dee575b50602090601f8311600114611d855782611cda969593600395936107b0935f92611d7a5750508160011b915f199060031b1c19161790565b600954600160401b81101561088657806001611cf99201600955612a6d565b81549060031b9083821b9160018060a01b03901b1916179055815f525f60205260405f20815f5260205260ff60405f20541615611d3257005b815f525f60205260405f20815f5260205260405f20600160ff1982541617905533917f2f8788117e7eff1d82e926ec794901d17c78024a50270940304540a733656f0d5f80a4005b015190508a8061079c565b90601f19831691845f52815f20925f5b818110611dd65750926001928592611cda9998966003989610611dbf57505050811b0190556107b3565b01515f1983881b60f8161c19169055898080610807565b92936020600181928786015181550195019301611d95565b82811115611ca257611e2290845f5260205f2090601f850160051c906020861061087e57601f82910160051c039101612b34565b87611ca2565b01519050898061079c565b90601f19831691845f52815f20925f5b818110611e7e5750908460019594939210611e66575b505050811b019055611c79565b01515f1960f88460031b161c19169055888080611e59565b92936020600181928786015181550195019301611e43565b82811115611c4757611eca90845f5260205f2090601f850160051c906020861061087e57601f82910160051c039101612b34565b88611c47565b60405162461bcd60e51b815260206004820152600d60248201526c5961207265676973747261646f60981b6044820152606490fd5b60405162461bcd60e51b815260206004820152602560248201527f4e6f206175746f72697a61646f207061726120726567697374726172207065726044820152641cdbdb985b60da1b6064820152608490fd5b50335f9081527f47269a026ebf0bd254cb25d8cf016769c6b577db8bf1cd82b8ad5d349aee4a01602052604090205460ff16611ba4565b3461020c575f36600319011261020c57611fa7612f3a565b60015460ff811615611fe65760ff19166001557f5db9ee0a495bf2e6ff9c91a7834c1ba4fdd244a5e8aa4e537bd38aeae4b073aa6020604051338152a1005b60405162461bcd60e51b815260206004820152601460248201527314185d5cd8589b194e881b9bdd081c185d5cd95960621b6044820152606490fd5b3461020c57604036600319011261020c5761203b61282c565b336001600160a01b0382160361205757610cab9060043561346d565b60405162461bcd60e51b815260206004820152602f60248201527f416363657373436f6e74726f6c3a2063616e206f6e6c792072656e6f756e636560448201526e103937b632b9903337b91039b2b63360891b6064820152608490fd5b3461020c576120c2366129cf565b905f52600760205260405f2090815481101561020c576120e1916129e5565b50805460018201549161213d60018060a01b0360028301541691600381015460ff6005612110600485016128fe565b9301541693604051968796875260208701526040860152606085015260c0608085015260c084019061299e565b90151560a08301520390f35b3461020c57602036600319011261020c576001600160a01b0361216a612816565b165f52600c602052602060405f2054604051908152f35b3461020c57604036600319011261020c5760043561219d61282c565b906121b6610ca1825f525f602052600160405f20015490565b5f818152602081815260408083206001600160a01b038616845290915290205460ff16156121e057005b5f818152602081815260408083206001600160a01b0395909516808452949091528120805460ff19166001179055339291907f2f8788117e7eff1d82e926ec794901d17c78024a50270940304540a733656f0d9080a4005b3461020c57602036600319011261020c57600435612254612ec3565b61225c61304a565b805f52600660205260ff600660405f200154161561236f575f818152600660208181526040808420928301805460ff19169055426003840155516007909201805480845290845281842092938492830191905b8181106123565750506122c4925003826128dd565b5f5b815181101561232f5760208160051b8301015190815f52600460205260ff600360405f20015460a01c1691600583101561069857600180931461230b575b50016122c6565b5f526004602052600360405f20018260a21b60ff60a01b1982541617905584612304565b827fccb7696195025f4e6e7f9114baab03db051fc97ddb2c6b9d09111341ea52e2d75f80a2005b84548352600194850194869450602090930192016122af565b60405162461bcd60e51b815260206004820152600a6024820152695961206365727261646f60b01b6044820152606490fd5b3461020c57602036600319011261020c5760206123cb6004355f525f602052600160405f20015490565b604051908152f35b3461020c575f36600319011261020c576020600354604051908152f35b3461020c576123fe366129cf565b61240661304a565b335f9081527f649b62ee4f6ab022f576b4a5f06ee4fd991a1bad6c308d2cf882760af7007187602052604090205460ff1680156125f5575b156125c057815f52600660205261245e60ff600660405f20015416612af5565b6001811015806125b5575b1561257e575f8281526006602090815260408083206005018054908590556007835292207f93ca5454d6f0f4848f0ec56e9678aaad69fb6cef60fb00e37b4680d24205e92a9360609392909161256a919061253960046124c887613300565b603b856124d489613300565b6040519788947f43616d62696f206465204e6976656c2064652052696573676f3a200000000000828701528051918291018587015e84019063010169f160e51b84830152805192839101603f83015e01015f838201520301601f1981018452836128dd565b60405191612546836128a7565b8883525f6020840152336040840152428784015260808301525f60a0830152612b4f565b6040519182526020820152336040820152a2005b60405162461bcd60e51b815260206004820152600f60248201526e52696573676f20696e76616c69646f60881b6044820152606490fd5b506005811115612469565b60405162461bcd60e51b815260206004820152600d60248201526c4e6f206175746f72697a61646f60981b6044820152606490fd5b50335f9081527f47269a026ebf0bd254cb25d8cf016769c6b577db8bf1cd82b8ad5d349aee4a01602052604090205460ff1661243e565b3461020c57602036600319011261020c576004355f52600460205260405f2080549061265a600182016128fe565b60018060a01b036002830154169060038301549260ff8460a81c16936126cd6004830154916126a66006600586015495015495604051998a5261012060208b01526101208a019061299e565b60408901969096526001600160a01b0381166060890152608088019060a01c60ff166129c2565b600485101561069857859460a086015260c085015260e08401526101008301520390f35b3461020c57606036600319011261020c576024356001600160401b03811161020c57612744612727610cab923690600401612842565b9190612731612db6565b61273961304a565b604435923691612a19565b60043561308e565b3461020c575f36600319011261020c5760206040517f731fe6f22e48c8ad24c7515b4379705d9f8883dd221815024b35c6580536cb718152f35b3461020c57602036600319011261020c576001600160a01b036127a7612816565b165f526008602052602060ff60405f2054166040519015158152f35b3461020c57602036600319011261020c576004359063ffffffff60e01b821680920361020c57602091637965db0b60e01b8114908115612805575b5015158152f35b6301ffc9a760e01b149050836127fe565b600435906001600160a01b038216820361020c57565b602435906001600160a01b038216820361020c57565b9181601f8401121561020c578235916001600160401b03831161020c576020838186019501011161020c57565b90600182811c9216801561289d575b602083101461288957565b634e487b7160e01b5f52602260045260245ffd5b91607f169161287e565b60c081019081106001600160401b0382111761088657604052565b608081019081106001600160401b0382111761088657604052565b90601f801991011681019081106001600160401b0382111761088657604052565b9060405191825f8254926129118461286f565b808452936001811690811561297c5750600114612938575b50612936925003836128dd565b565b90505f9291925260205f20905f915b818310612960575050906020612936928201015f612929565b6020919350806001915483858901015201910190918492612947565b90506020925061293694915060ff191682840152151560051b8201015f612929565b805180835260209291819084018484015e5f828201840152601f01601f1916010190565b9060058210156106985752565b604090600319011261020c576004359060243590565b80548210156104cb575f52600660205f20910201905f90565b6001600160401b03811161088657601f01601f191660200190565b929192612a25826129fe565b91612a3360405193846128dd565b82948184528183011161020c578281602093845f960137010152565b9080601f8301121561020c57816020612a6a93359101612a19565b90565b6009548110156104cb5760095f5260205f2001905f90565b90608060031983011261020c5760043591602435600581101561020c579160443591606435906001600160401b03821161020c57612a6a91600401612a4f565b9181601f8401121561020c578235916001600160401b03831161020c576020808501948460051b01011161020c57565b15612afc57565b60405162461bcd60e51b815260206004820152601060248201526f4576656e746f206e6f2061637469766f60801b6044820152606490fd5b5f5b828110612b4257505050565b5f82820155600101612b36565b8054600160401b81101561088657612b6c916001820181556129e5565b919091612ce557805182556020810151600183015560408101516002830180546001600160a01b0319166001600160a01b0392909216919091179055606081015160038301556080810151805160048401916001600160401b03821161088657612bd6835461286f565b601f8111612cab575b50602090601f8311600114612c3e5792612c198360a0946129369897946005975f92612c335750508160011b915f199060031b1c19161790565b90555b0151151591019060ff801983541691151516179055565b015190505f8061079c565b90601f19831691845f52815f20925f5b818110612c93575093612936979693600596936001938360a09810612c7b575b505050811b019055612c1c565b01515f1960f88460031b161c191690555f8080612c6e565b92936020600181928786015181550195019301612c4e565b82811115612bdf57612cdf90845f5260205f2090601f850160051c906020861061087e57601f82910160051c039101612b34565b5f612bdf565b634e487b7160e01b5f525f60045260245ffd5b90600581101561069857815460ff60a01b191660a09190911b60ff60a01b16179055565b5f1981146114b65760010190565b15612d3157565b60405162461bcd60e51b81526020600482015260116024820152704e6f20657320656c20637573746f64696f60781b6044820152606490fd5b60058210156106985752565b80156114b6575f190190565b91908110156104cb5760051b0190565b90600481101561069857815460ff60a81b191660a89190911b60ff60a81b16179055565b335f9081527f47269a026ebf0bd254cb25d8cf016769c6b577db8bf1cd82b8ad5d349aee4a01602052604090205460ff1615612dee57565b612ebf6020612e9f6011612e0133613552565b603784612e2d7f731fe6f22e48c8ad24c7515b4379705d9f8883dd221815024b35c6580536cb71613639565b6040519687947f416363657373436f6e74726f6c3a206163636f756e7420000000000000000000828701528051918291018587015e8401907001034b99036b4b9b9b4b733903937b6329607d1b84830152805192839101604883015e01015f838201520301601f1981018352826128dd565b60405162461bcd60e51b815260206004820152918291602483019061299e565b0390fd5b335f9081527f649b62ee4f6ab022f576b4a5f06ee4fd991a1bad6c308d2cf882760af7007187602052604090205460ff1615612efb57565b612ebf6020612e9f6011612f0e33613552565b603784612e2d7f1c33b934193907dc14a35370982c68e37544b8f15b0b2800284cda811d8d8456613639565b335f9081527fad3228b676f7d3cd4284a5443f17f1962b36e491b30a40b2405849e597ba5fb5602052604090205460ff1615612f7257565b612ebf6020612e9f6011612f8533613552565b603784612e2d5f613639565b335f9081527f076b16d7b6d895523585ddb38ef9c6438a6feac6f1c5e100f1239f95ff4b172a602052604090205460ff1615612fc957565b612ebf6020612e9f6011612fdc33613552565b603784612e2d7ff0e27d98792a1f4388176184868b885d3f7997fa8a9a3b972f6b9007c6910658613639565b5f8181526020818152604080832033845290915290205460ff161561302a5750565b6020612e9f6011612ebf93603784612e2d61304433613552565b93613639565b60ff6001541661305657565b60405162461bcd60e51b815260206004820152601060248201526f14185d5cd8589b194e881c185d5cd95960821b6044820152606490fd5b9190825f52600460205260405f20546132bb576040519061012082018281106001600160401b0382111761088657604052838252602082019181835260408101933285526060820193328552608083015f815260a08401905f825260c085019742895260e086019485526101008601935f85528a5f52600460205260405f20965187556001870190518051906001600160401b03821161088657613132835461286f565b601f8111613281575b50602090601f831160011461321e5761316a92915f9183612c335750508160011b915f199060031b1c19161790565b90555b516002860180546001600160a01b03199081166001600160a01b039384161790915597516003870180549099169116178755516005811015610698576131b39087612cf8565b51916004831015610698577fdc6c6e42e4beb3fd43a594802a1828532a6f0d9b270f6a1ec09bc8dbe4ad837d966131ef60069461321398612d92565b5160048501555160058401555191015560405191829160408352604083019061299e565b3260208301520390a2565b90601f19831691845f52815f20925f5b8181106132695750908460019594939210613251575b505050811b01905561316d565b01515f1960f88460031b161c191690555f8080613244565b9293602060018192878601518155019501930161322e565b8281111561313b576132b590845f5260205f2090601f850160051c906020861061087e57601f82910160051c039101612b34565b5f61313b565b60405162461bcd60e51b815260206004820152601c60248201527f456c20696e73756d6f2079612065737461207265676973747261646f000000006044820152606490fd5b805f9172184f03e93ff9f4daa797ed6e38ed64bf6a1f0160401b82101561344a575b806d04ee2d6d415b85acef8100000000600a92101561342f575b662386f26fc1000081101561341b575b6305f5e10081101561340a575b6127108110156133fb575b60648110156133ed575b10156133e2575b600a60216001840193613387856129fe565b9461339560405196876128dd565b8086526133a4601f19916129fe565b013660208701378401015b5f1901916f181899199a1a9b1b9c1cb0b131b232b360811b8282061a83530480156133dd57600a90916133af565b505090565b600190910190613375565b60646002910493019261336e565b61271060049104930192613364565b6305f5e10060089104930192613359565b662386f26fc100006010910493019261334c565b6d04ee2d6d415b85acef81000000006020910493019261333c565b506040915072184f03e93ff9f4daa797ed6e38ed64bf6a1f0160401b8104613322565b5f818152602081815260408083206001600160a01b038616845290915290205460ff16613498575050565b5f818152602081815260408083206001600160a01b0395909516808452949091528120805460ff19169055339291907ff6391f5c32d9c69d2a47ea670b442974b53935d1edc7fd64eb21e047a839171b9080a4565b60028054146134fc5760028055565b60405162461bcd60e51b815260206004820152601f60248201527f5265656e7472616e637947756172643a207265656e7472616e742063616c6c006044820152606490fd5b9081518110156104cb570160200190565b61355c602a6129fe565b9061356a60405192836128dd565b602a8252613578602a6129fe565b6020830190601f19013682378251156104cb57603090538151600110156104cb576078602183015360295b600181116135f757506135b35790565b606460405162461bcd60e51b815260206004820152602060248201527f537472696e67733a20686578206c656e67746820696e73756666696369656e746044820152fd5b90600f81169060108210156104cb57613634916f181899199a1a9b1b9c1cb0b131b232b360811b901a61362a8486613541565b5360041c91612d76565b6135a3565b61364360426129fe565b9061365160405192836128dd565b6042825261365f60426129fe565b6020830190601f19013682378251156104cb57603090538151600110156104cb576078602183015360415b6001811161369a57506135b35790565b90600f81169060108210156104cb576136cd916f181899199a1a9b1b9c1cb0b131b232b360811b901a61362a8486613541565b61368a56fea2646970667358221220d266fd0fa41f38280420d75e40cb144b6808aa8b5117a2397137ba63d90d3c6264736f6c63430008210033ad3228b676f7d3cd4284a5443f17f1962b36e491b30a40b2405849e597ba5fb5","linkReferences":{}},"methodIdentifiers":{"AUDITOR_ROLE()":"6e1d616e","BASE_OPERATIVA_ROLE()":"079a47db","CONSULTOR_ROLE()":"801d25ba","DEFAULT_ADMIN_ROLE()":"a217fddf","JEFE_ESCENA_ROLE()":"d5e49e98","OPERADOR_ROLE()":"9434ef34","abrirEventoIncendio(string,uint256)":"7cf1d61b","actualizarRiesgoIncendio(uint256,uint256)":"20f63985","asignarInsumo(uint256,bytes32,address)":"d8cb4278","auditoriasPendientes(bytes32)":"f5f119aa","basesAutorizadas(address)":"07735988","bitacoraEvento(uint256,uint256)":"308f72df","brigadistas(address)":"9cd12f22","cerrarIncidente(uint256)":"2b1c4235","contadorRecursos(address)":"2fa6b670","despliegueActual(address)":"fd358539","firmarDeslinde(bytes32)":"8b6ad2c6","getListaPersonal()":"676dd339","getRoleAdmin(bytes32)":"248a9ca3","grantRole(bytes32,address)":"2f2ff15d","hasRole(bytes32,address)":"91d14854","incendios(uint256)":"ccfbee66","iniciarRetorno(bytes32)":"ed59fb06","inventario(bytes32)":"1730e0d6","listaPersonal(uint256)":"812e9454","nextEventoID()":"2101bcfd","obtenerLogEvento(uint256)":"9c11ed41","pause()":"8456cb59","paused()":"5c975abb","registrarAuditoria(bytes32,uint8,uint256,string)":"db364cc0","registrarBitacoraTactica(uint256,string)":"4dc1fb2b","registrarHito(uint256,bytes32,string,uint8)":"fc5b8505","registrarInsumo(bytes32,string,uint256)":"12d81c2f","registrarInsumosBatch(bytes32[],string[],uint256[])":"f0fb65fd","registrarPersonal(address,string,string,bytes32)":"4b78e0da","renounceRole(bytes32,address)":"36568abe","retornarInsumo(bytes32,uint8,uint256,string)":"aeeffa1b","revokeRole(bytes32,address)":"d547741f","supportsInterface(bytes4)":"01ffc9a7","unpause()":"3f4ba83a"},"id":0}